:020000040000FA
:80000000FFFF62FF3900FFFFFFFFFFFFFFFFFFFFFFFFFFFFFFFFFFFFFFFFFFFFFFFFFFFFFFFFFFFFFFFFFFFFFFFFFFFFFFFFFFFFFFFFFFFFFFFFFFFFFFFFFFFFFFFFFFFFFFFFFFFFFFFFFFFFFFFFFFFFFF800C9001324006C8401100512006448198025504880011200244804C9001000000000000000000000000000000000C9001320027
:8000800026C80419280245A00814A8225004400C882002448008900140F80017E0025C800B70012A800A50012A4005B4800A50012A4005A8003FE0020000000000000000000000000000000012E0025C001DF0032E4005A80015A00554800AA002544005A80015E00298FF0000000000000000000000000000000000000000000000000011
:80010000000000000000000000000000000000000000000000000000000000000000000000000000000000000000000000000000000098FF0000000000000000000000000000000000000000000000000000000000000000000000000000000000000000000000000000000000000000000000000000000000000000000000000000009850
:80018000FF00012000058000100000000000000000000000000000000000008021280000000000000000000000000000000000002800040010108202000000000000000000000000000000000000200038FC1601A0001020024008000000000000000000000000000000000000240000000000000000000000400000000000000080001434
:80020000002048020800000000000000000000000000000000000080821DFF00000000000000000000000000000094000000000200000800000000000000000000000000000000000000000000000000005002004000000000000000000010000040010000412400041188FB00000000000000000000000000000010080000001800000040
:8002800000000000000000000000000000000000000000000000000000004020000000000000000000000000000000010200000000000080FB00000000000000000000000000000000000000001E000058000000000000000000000000000000000000000000000000000030000000000000000000000000000000800000000B00002C00C3
:8003000058FD00000000000000000000000000000000100000000000002000000000000000000000000000000000000000000000000000000042000053000000000000000000000040A00000048029100040FB00000000000000000000000000000000040000000C000030000000000000000000000000000000000000000000000000004B
:800380000000400000080000000000000000000201009000000A00902800A8FB0000000000000000000000000000000C00000000100000400000000000000000000000000000000000000000000000000000200000C00302000000000000003000008000000008E0012000E8FC0000000000000000000000000000002000000000100000AF
:8004000040000000000000000000000000000000000000000000000000000080000000030000000000000000C02000000200000A8001280058F8000000000000000000000000000000200A00000008000020000000000000000000000000000000000000000000000000000090280000930000000000000000C00000002201000480491077
:800480000080F900000400000000000000000000000000000000000200000800010000000000000000000000000000000000000000000000001028004000000000000000000010020040000000412400041154FF000000000000000000000000000000000000000000000000000000000000000000000000000C00000000000000060000CB
:8005000000000000000000000000000000000000400000000000000000000030F9000000000000000000000000000000000000000016000058000008000000000000000000000800000000000000040000000080400000000000000000000000004000C00000000B0000280058FA0000301100000000000000000000000000000000080002
:800580000020008C00000000000000000000000000000000000000000000000000000000530000000000000000000800000000000480291400E3FB00008000000000000000000000000000000000000C0000300040100000000000000000000000000000000000000000000000C0200000200400000000000000808400000300000A00082C
:800600002800A9FF00003C200000000000000000000000000000000010000040000F000000000000000000000000000000000000000000000000F00000C00300000000000000003000008083000008E001210048F9000030000000000000000000000000000000000010000040000C00000000000000000000000000000000000000000032
:80068000000000C0200000030000000000000000000000000300000A8001280003FB000030080000000000000000000000000000000008000020000C020000000000000000000000000000000000000000000000C002000083000000000000000000440000030000048041100028F81000040000000000000000000000000400000000025A
:80070000000008000100000000000000000000000000000000000000000000000010000040000000000000000000100000400900004124000411E0FC0000000000000000000000000000000000000000000000000000000000000000000000000000000000000000000000000000000000000000000000000000000000000001010000006F
:8007800000000088FE000000000000000000000000000000000800000016000058000008000000000000000000000000000000000000000000000000000000000000000000000000000000C08000000B0000280098FA0C0030110000000000000000000000300000000008000020008C0000000000000000000000000000000000000000BF
:8008000000000000C014000053000000000000000000000000080000048029140070FC04000001000000000000000000000080000000000C00003000400000000000000000000000000000000000000000000000000004010020010000000000000000040000A000000A00002800A0FF00003C1000000000000000000000003C20000000D8
:8008800010000040000F080000000000000000000000000000000000000000000000F00000C00300000000000000003080008000000008E081200020FD0C0030000000000000000000000000300000000010000040000C000000000000000000000000000000000000000000000000C0000000030000000000000000C02000000202000A8F
:8009000080012800A8FF0000B0080000000000000000000000B00800000008000020002C020000000000000000000000000000000000000000000000C02200008B0000000000000000C0000000120000048045100040FE000004000000000000000000000000040000000002000008000100000000000000000000000000000000000000F8
:800980000000000010120000400000000000000000001000004011010041240004110CF800000000000000000000000000000000000000000000000000000000000000000000000000000000000000000000000000000000000000000000000000000000000000010000000000000098FE0000000000000000000000000000000008000016
:800A00000016000058000008000000000000000000000000000000000000000000800100000000000000000000000000000000800300000B0000280050F8000030110000000000000000000000300000000008000020008C000000000000000000000000000000000000000000000000C014000053000000000000000000000040000000F5
:800A80000480291400C3FB00000012000000000000000000000000010000000C000030000000000000000000000000000000000000000000000000002600040000080100000000000000000201800200000A0084280061FB00003C0000000000000000000000003C1000000010000040000F04000000000000000000000000000000000073
:800B0000000000008007F28000C00300000000000000003000000002000008E0012000E8FB000030000000000000000000000000300000000010000040000C000000000000000000000000000000000000000000000006C0000000030000000000000000C00000800200000A8001280053FC0000300A0000000000000000000000300A005E
:800B8000000008000020008C020000000000000000000000000000000000000000000006C0280000A30000000000000000C0200000010000048051100020FC100004000000000000000000000000040000100002000008000100000400000000000000000000000000000000000000000010000040010000000000000000100000401001E3
:800C00000041A400241184FF00000000000000000000000000000000000000000000000000000800001000000000000000000000000000000000000000000000000081000000000000000000000000000000008040100050FE000000000000000000000000000000000800002016000058000000000010000000000000000000000000007A
:800C80000000000000000000000080000100000000000000000000800200000B40002800F8FE0C0030110000000000000000000000300000C00008000020000008000000000000000000000000000000000000000000000000100040200000000000000000C028004001000004208014009BFC04000001000000000000000000000000121C
:800D00000000000C00003000000200A000000000000000000000000000000000000000000000800000000200000000000000004200800200000A0008290069FE00003C2000000000000000000000003C0000F04010000040000300000C10000000000000000000000000000000000000000030000080000000000000000000F000000002D4
:800D80000000084000280060F80C0030080000000000000000000000300800C02010000040000002000010000000000000000000000000000000000000000000800000020000000000000000C02000800200000A0001280063FE000030020000000000000000000000300200C0080800002000080000000200000000000000000000000097
:800E00000000000000000000C0020000820000000000000000C00800000100000400412000D8FC0000140200000000000000000000000400001000020000080001200000000000000000000000000000000000000000000000100000400900000000000000001000004010010041A4040400CCFD000010080000000000000000000000004F
:800E80000000000000000000000000000000000000000000000000000000000000000000000000000000810000000000000000000000000000000080400000C8FF000000000000000000000000000000000800002016000058000008000000000000000000000000000000000000000000000000000080000000000000000000000000804C
:800F00000200000B40000000D0FC080000040000000000000000000000300000C00008000020008C808900000000000000000000000000000000000000000000C0400040080100000000000000000000400100000420083105EBFB00008010000000000000000000000080100000420C00003000200490000000000000000000000000007B
:800F800000000000000000000000080100200200000000000000000400800200000A00308010E9FE00000C0000000000000000000000003C0000F00010000040000FE00100000000000000000000000000000000000000000000F0000080000000000000000000308000000200000840003C00C8F80400200000000000000000000000008D
:80100000300800C02010000040000C824100000000000000000000000000000000000000000000C0200000020000000000000000C00000800200000A0001300823FC0000A0080000000000000000000000B00000C00208000020002C800500000000000000000000000000000000000000000000C0020000A20000000000000000C020007C
:8010800000010000040051B00028FF1000148100000000000000000100000400001000020000080085A04404110000000000000000000000000000000000040000D00000400008000000000000001084004010010041240094406CFA0000100800000000000000000000000000000000000000000004820000000000000000000000000043
:8011000000000000000000000000C0000000000000000000000000000000000000000000001000A0FF0000001000000000000000000300000000000000160000580000000000000000000000000000000000000000000000002000F0000000000000000000000000000000800200000B00000C0070FA0C000001000000000000000000005F
:80118000000000000000080000200020088400110000000000000000000000000000000000300000D000000053600A0000000000000042004001000004802900081BFD0400002006020000000000000C020080400000020D0000300000108880000000000000000000000000000000000000800000C00000000804240000000000008000BC
:8012000000800200000A00088000D1FC00000C8007000000000000000F00000C0000300010000040000360000C1000000000000000000000000000000000003C2000E00000C00378000000000000003040000002000008E081080890FA0C00200806000000000000000C0000301000C0001000004000080041001000000000000000000005
:801280000000000000000000300800C0000000836010000000000000004000800200000A804120007BF80000200206000000000000000C0000300100C088080000200028020910000000000000000000000000000000000000300000C000000003600000000000000000080000010000048001204178FC0000840800000000000008000180
:80130000000014090050240200004800452000000000000000000000000000000000000000000080001000004090080000000000000010000040100100412410950048FD000000000000000000000000000000100000400000000020000402000000000000000000000000000000000000000000000000000000000000000000000000009F
:801380000000000000000000001020F8FA0000002000000000000000000000000020000080160000580000000000000000000000000000000000000000000000000000040000C0800000000000000000000000C00200000B60000D00F8FF00000000000000000000000000000080000000080800002000408189000000000000000000101E
:80140000000000000000000800000006C040000008600A000000000000C0280000010000040008000AAAF800000004000000000000604220040000060000820C000030008004840000020000000000000001000000000000000000002000020000000101000000000000004800800200000A0044000988FD00000C00000000000000780064
:801480000300000C00003000100000500003E00100000400000000000010020000000000000800008007F2800080007840000000000000F0000000020000084000080020FF0000000800000000000060000C04002008008020100000200008824100800400000000000050020000000000000800000006C120000000601000000000000049
:80150000C02000800200000A00402008B1FC0000200000000000000060004C0000A000008002080000400028800900000400000000000000020000000000000000000026C0040000126402000000000000C0040000010000040011A00078F8100000000000000000000000000000000000000000000000000000000000040000000000009D
:801580000002000000000000000000000040000000000000000000000000000000000000000000000000ACFB20000480001000024000080001200004800010000240000800012000040000000000000000000000000000000020000480000000024000080001200004800010000240000800012000040098FE000000000000000000000038
:801600000000000000000000000000000000000000000000000000000000000000000000000000000000000000000000000000000000000000000000000000000000000098FF2C0004800010000240000800012000048000100002400008000120000400000000000000000000000000000000200004800010000240000800012000048002
:8016800000100002400008000120000400E3F804000000000000000000000000000000000000008008000022000000000000000000000000000000000000000000000000000004000011000000000000000000000000090000448004100109F9200004800010000240000800012000048000100000400000000120000400000000000000D1
:8017000000000000000000000020000400000040020000090001200004800010000200000A000004000110D8FC0C00000000000000000000000008000000000000000000000000000000000000000000000000000000000000000000000000002000000000000000000000000000000000000000000000004BF820000480001000024000E3
:801780000800012000048000100002490008240120000400000000000000000000000000000000200004802012080240000800012000048000100002400008000120000400E8F80000000000000000000000000000000040000000010000000000000000000000000000000000000000000000000000000000000000800802000000000099
:80180000000000000100000000000000000058F900000000000000000000000000000000000000000000000000000000000000000000000000000000000000000000000000000000000000000000000000000000000000000000000000000098FF00000000010000000000000000000000000000200000000000000000000000000000005E
:8018800000000000000000000000000000000000000000000000000000000000000000000000000000000000B8FC080000000000000000000000000000000000000000000000000000000000000000000000000000000000000000000000000000000000020000000000000000000000000000000000000000B0FD0000000000000000007D
:80190000000000000000000000000000000000000000000000000000000000000000000000000000000000000000010000000000000000000000002000000000000000000000A8FC02000000000000000000000000000000000000000000000000000000000000000000000000000000000000000000000000080000000000000000000098
:8019800000000000000000000000000000000030FD000000000000000000000000000000000000008000000220000000000000000000000000000000000000000000000000000000000000000000000000000000000000000000000002000000B0FF00000000000000004000000000000008080000000804004010000400000000000000B7
:801A0000000000000000000000000000000000000020000000000000008000000000000000010000040000008828FE0000000000000000400000000000000420000040029000184000080000000000000000000000000000000000000000000000008000000000000000000100A080020040000000010400002094FE0000000000000000E3
:801A8000000100000002000004000000100202400808000000000000000000000000000000000000000000008000004001000000000000000000604A000000C000000401000000D8F80000000000000000800000000004000000000000000000000000000000000000000000000000000000000000000000000000000000000000000000F7
:801B00000000000040000000800000040000000058FF080000000000000000000000000000001000000008040220100200000000000000000000000000000000000000000000000000000000000000000000000000000000000001000002000080BDFD000000000000000000000000000000000000000000000000000000000000000000B5
:801B800000000000000000000000000000000000000000000000000000000000000000000000000000000000000098FF000000000000000000000000000000000000000000000000000000000000000000000000000000000000000000000000000020000000000000000000000000000000000000000000200000B8FD0000000000000059
:801C00000000000000000000000000000000000000000000000000000000000000000000000000000000000000000020020000000000000000000000000000000000000000000000B8FF100000000000000000000000000000000000000000000000000000000000000000000000000000000000000000000000000000000000000000007B
:801C80000000000000000000000000000000000000CCFB00000000000000000000000000000000000000000000000000000800000000000000000000000000000000000000000000000000000000000000000000000000000000000000000000000018FF0000000000000000000000000000000000000000000000000000040000000000FA
:801D000000000000000000000000000000000000000000000000010000000000000000000000000000000000000000C8FE00000800000000000000000000000000000000100000000000000000000000000000000000000000000000000000000000000000000000000000000000000000000000000000000000000008FE0000000000007E
:801D800000000000000000000000000000000000000000010000000000000000000000000000000000000000000000000000000000000000000000000000000000000000000000000098FE0000000000000000000000000000000000000000000000000000000000000000000000000000000000000000000000000000000000000000004C
:801E000000000000000000000000000000000000000098FF00000000000000000000000000000000000000000000000000000200000000000000000000000000000000000000008000100000000000000000000000000000000000000000000000000020FE000080000000000000000000000000000000000000000000000000000000009B
:801E8000000000000000000000000000000000000000000000000000000000000000000000000000000000000000000010FF00000000000000000000000000000000000000100000000000000000000000000000000000000000000000000000000000000000000000000000000000000000000000000000000000000088FE00000000003D
:801F00000000000000000000000008000000000000000000000000000000000000000000000000000000000000000000000000000000000000000000000000000000000000000000000090FF0000000000000000000000000000000000000000000000000002000000000000000000000000000000000000000000000000000000000000C8
:801F80000000000000000000000000000000000000000098FD00000000000000000000000000000000000000000000000000000000000000000000000000000000000000000000000000000000000000000000000000000000000000000000000000000089FE000000000000000000000008000000000000000000000000000000000000BD
:8020000000000000000000000000000000000000000000000000000000000000000000000000000000000000000000000018FF00002000000000000000000002000020000000000000000000000000000000000000000000000000000000000000000000041000000000000000000000000000000000000000000001000088FB08000C005B
:80208000000000000000000000000000000000000000000000001000100000000000000000000000000000000000000000000080010000020000000000000040000000000000004000000080F80000000800000000000000000000001000000000000000000000860000000000000000000000000000000000000000000000002000000186
:80210000000000000000000040000000000000000044100008FB00000008000000000000000000000000080000000000000000008000680000000000000000000000000000000000000008001020004080001000000000000080110000000000000000000040FD0000000000000000000000000000000000000000100000400000000000AA
:8021800000000000000000000000000000000000000000000200000000000000000000000000000000000200000000020000B8F800000000000000000000000000000000000000000000000000000000000000000000000000000000000000000000000000000000000000000000000000000000000000000000000000000098FF00000092
:802200000000000000000000000000000400000000000000000000000000000000000000000000000000000000000000000000000000000000000000000000000000000000000000000000009CFF000000000000000000000000000000000000000000000000000000000000000000000000000000000000000000000000000000000000BF
:8022800000000000000000000000000000010000040000100088FB00000000000000000000000004000010000010000000000000000400000000000000000000000000000000000000000000000000000000000004002000000000000000000000048200000070F90A000000001000000000004000402000000040000804802010048200CF
:8023000000000000000000000000000000000000000000000000000000004120000000000000000000000000000000000010806CFA00000000141000000000004006200009000030000210000A40012C40A0000000000000000000000000000000000000A0001400000040000A0002008000000041000000000000024400040030FB0000A4
:80238000200084800010008060000800212000008020100212400828000900000000000000000000000000000000000000008010000000000200002000001000642A0000000120000483002000A8FB0000000000000000000022000000000000000080000000000000000000000000000000000000000000000000000000000000000000E6
:8024000000000000000000080000000000000110000488000000B0FB00001000812000040000100002008110000040000890001010024000000000000000000000000000000000000000000000000000000001000000000000000100000000000000000200100058FD100000000000000000000000000000000400400000000000000400B9
:802480000000000000000000000000000000000000000000000000000000000004000000000000000000000008000000800000008CFF00004000000000000000000000000008000000000000000000004002000000000000000000000000000000000000000000000000008000100000000000000020000000000000000000000888FC00FF
:80250000000000000000000000000000000000000000000000000000000000000000000000000000000000000000000000000000000010000000000000000000000000000000000000002000004088F900000000000000000000000020000000000000000800002000000000000000000000000000000000000000000000000000008000A2
:802580000000080000000000000000000000000001000000000000A8FD00001000000000000000000000000000000000000000000000000000000000000000000000000000000000000000000000008000000002000000000000000000000000000000080000200098FE0000000000000000000000000000000000000001000000000010CC
:8026000000000000000000000000000000000000000000000000000000000000000000000000000000000000008200000000460000A0FB00000400000000000000000004000000000000000000000000000000000000000000000000000000000000000000000000000000000000000000000000000000000000000000000000000098FB5C
:80268000020080000000000000000000000000000000000000000000000000000000000000000000000000000000000000000000000000000000000000000000000000000000000000000000800000B0FD0000000000000000000000000000000000000000000000000000000000000000000000000000000000000000000000000000002B
:80270000000000000000000000000000000000000000000000000020BAFF00000000000000000000000000000000000000000000000000000100000000000000000000000000000000000000000000000000000000080000000000000000000000000000002000040000F9000000000000000000000000000000400000000000000000001A
:802780000000000000000000000000000000000000000000000000000000000000000000000000000000000000000000000000000000D8FF000000000000000000000000000000040000000000000000000000010000000000000000000000000000000000000000000000000000000000000000000000000000000000000000000080403D
:80280000FA000000800001000200000800012000241200000002400000000100000400000000000000000000000000000000A0010480060000000000000000000000800090040040034801010000000088F8000000000000000000006000008001100000000000000000000000000000000000000000000000000000000000800100000671
:8028800000000000000000000000000000C0200000006010000000000080FA000000000400001804000020000000211000000000040000000000000000000000000000000000000000000000008000000002000000000000000000000000004000C08000000C0200000028FC0000000024020000010060024C8405300200000018001301A9
:80290000000000000000000000000000000000000000000000800130420600000000000000000000000046420000000020208000000000E0FC000000008200001804006044808001202000000000011000008004008040000000000000000000000000000000801100022600000000000000000000000040800801000344088C0200000003
:80298000D0F9000000800300001E000078000FE8013D000000001ED00301000300000C0000000000000000000000000000000060003DA00104000000000000000000008007340000800018000F00000000E0FD0000000000010018000060000C8001300000000018000300000C080030100000000000000000000000000000008081300068
:802A00000602000000000000000000000006802000000340100C0000000058FD0000000010000098080010204C4280382100000098049300004C00003002000000000000000000000000000000401030094100000000000000000000000026010200000001040C1000000078FF00000080009084004000480401201124910010000240001C
:802A80000000002000340000000000000000000000000000000020000480000000004000000001000000800090281A40000810000000000034FB000000000040000000000020000080000000000000000000000000000000000000000000000C00000000000000860100000600000000000000000000000000C00018000000000000000073
:802B00000038FD00000000008040000000600000804130000000400004000000006000300000000000000000080000000000000004800000000200000080000003000000000000400008004000000000000030FF0000000026C80800000060114C8411201226C4041800130100000000300800000000000000000000000000000000103067
:802B80004240000000000B00000000000000464200180053400A0000000000FBFB0000000020820200000B60204080053112000008802010000000800901100000000000000000000000000000008091801046020000000000002C000000001082081908082104000000000091F90000008007F04000C00379000FE4013C8007F2801EC00B
:802C000003020000E0010C00000000000000000000000000000000E0013C8007000000C00301000F0400008007300006C0033820000000000070FC0000000006C08000000360100C8041300006C000180003000000800100100000000000000000000000000000008001300006000000000300000C000000000680201808030010000000DC
:802C800000008BFB0000000006E10400000360040C8201304006C120180483000000800180000000000000000000000000000000008029300886000000008300000C000000000601040401830001000000000050FF10000480449044020000080081200004800010000240020000002000040000000000000000000000000000000000004A
:802D00000402000000004000000000000000804010200240000800010000000038FA00000000060100000000600000020000000000000000830000000000000000000000000000000000000000000000000008000000000000000000000000000001001800000000000000000078FE0000000000C0000004000020080400000000004000ED
:802D800004000000006000000000000000000000000000000000000000002000000000000080000000000000000480000008000000000200000030F90C000000A280885800006000080000000026C404180041000000000030090000000000000000000000000000000000A01000000000000B0000000000000014820001011361222C000D
:802E000000000020FE0400300804C0840021006041248401300210020480100A000000809100410000000000000000000000000000000000100600000000000801000000000000C240481809200142000000000018F800003C8001F2001E0000180007E0413C9007F0401EC000010000E0013C000000000000000000000000000000000008
:802E8000001C0000000000C003000000000000800370001EC00378000F0400000090FD0C00300004C1401800006020008001001006C00018000200000080013000000000000000000000000000000000000000000000000000030000000000000000002018000360000C0000000068FC0000300040C0045804007004408201080016C12236
:802F00005804800000008001B0080000000000000000000000000000000000000900000000008B0000000000000020010058108B60112C02000000B8FD00000080200100020000482201200004801010025240200000012000A408000000000000000000000000000000000024000000000040080000000000008004100000400008120192
:802F800020000000A0F800000000000000000000000000000000000001200804800000000000100000000000000000000000000000000000003008000000000080000000000000000601000000000000000000000088FB0000000004000000040060000C0000001004824016000200000060002C000000000000000000000000000000002C
:8030000000000000000000000002000000000000000000000000004000006200000088FD0C0000002402005800004084400100300224800008040A010000000090080000000000000000000000000000000000100400000000000A0200000000000082C044000013410A2C0000000030FD0400000082000040080060242C900530124240DF
:80308000421001610000408431A0100000000000000000000000000000000000A0000000000000410000000000000014000000000821042090850000D8FE000000800300001E000078000FE0813C800374000CC801000003E001180000000000000000000000000000000000000C1000000000C0010000000000008001F28000C0033820D2
:803100000FE001000070FE0C00000000000018000060000C8201300000000018040000000C88013008000000000000000000000000000000000020000000000000000000000000000004C00000000300000C8001000038FD0000000000010018050060804C800130050001208C009000004C800118010000000000000000000000000000F9
:8031800000000000080000000000800000000000000000C1280000A300118C82010000D0FD0000008000D0008200000800012091048044900802410008000020008400000000000000000000000000000000000004000000000240220000000000008000102200400308004120000000ECF90000000000C0000004000000008001000006FD
:80320000C1200004000000000000000800000000000000000000000000000000000000000000000083000000000000000000000000000000000200000088FF000000000000801008000000000081000000004010040019000060002008000000000000000000000000000000000000000000000000000000000000000000800000C0000007
:80328000000860000000E8FC0C00000026C808900000000000800800000244028000130000000000000100000000000000000000000000000000000000000000180851000000000000000080000100A06022280800000033F90400000020C8180801006004008105300A0482485804106000008085300A0000000000000000000000000012
:8033000000000000004000000040080A000000000000000040480000130422048101010069F9080000800730000E1000782003E0803C800130001EC003794000E0013C0000000000000000000000000000000000000C000000001EC00002000000000080017200008000780007E001000030F91800000006C14000000000200C828130002F
:80338000048000180883600000800130000000000000000000000000000000000000300000000018040200000000000000060000000003621000800100005BF80000000046200840040010000CC0113000100122180123600000800130080000000000000000000000000000000000B00800000018018800000000000000160128000020E9
:8034000060042082010000E8FD000000800010000200000800092089048000100002449208000000000400000000000000000000000000000000000004000000001A4000000001200000800010000040000800012000000060FF0000000000C00000000000000C0200000000000000000300000000000000000000000000000000000000F4
:8034800000000000000000000000000000000000000000000000000000000000000000000058FE00000000000240000000002000840100000600001800001800000000000000000000000000000000000000000000003000000000180000000003000000000600000000000000006000000048FE0C0000002600080000006004240091000F
:803500000040010010084100000000003009000000000000000000000000000000000000410000001808000000008009010010C444000053608400000000006AFC0400000020C2840009006024888491302026010059000A600C00000000210000000000000000000000000000000000300400000000090804000C04000000060404010075
:80358000100142409031000030FA0800008007F000060000780003E0013C800730001EC40079000000003C0000000000000000000000000000000000003C0000000006C00000000FE081008007F00000C003780003E0010000C0FA1800000006C1401810006000088001300006C000180082600000000030080000000000000000000000C8
:80360000000000000000300000000018040300000C8041000006C12000008360100C8001000029FE0000000016C0005800006021008205310046C2281804106000000000B0000000000000000000000000000000000000300A00000040002304000C8005000026C00200000B60010C8101000040FCA001008014010002000008000120001C
:80368000048000100002408008000000000408000000000000000000000000000000000004000000001A4000000001200004800010001A4000481129000000000CF980010000060000000000000000000030000000000000000000000000000000000000000000000000000000000000000000000000180000000000000000000000001885
:80370000000060000C0200000098FAE00100000000000000000000000000001006C10000000218000000003010000000000000000000000000000000000030000000001C00030000030000000000000000080000000000000000F8F98C010000A200000000000000000000300120000401000A0100000000A00000000000000000000000BC
:803780000000000000000000110000001A00A00000000000300500C04818000B21204401000000B3FD840100000400008004006041208811B02016C1000009616024000000B0080000000000000000000000000000000000300100000018009300008C8185001110000018000841082800000000D9FAC8010080010200060000780003E014
:80380000813C8007F04006C00178000000003C0000000000000000000000000000000000003C100000001CC00300000FE0013C8001F48006C8031800030800000060FB9801000004010018100060000C0080300006C020180080600000000030000000000000000000000000000000000000300800000018000302000C0040300806C1200E
:8038800018088340100800000000CBFB8001000020000098000060002C4200081046C4089820206000000000B0080000000000000000000000000000000000B0000000001A000B00000C0004300046C00004010300028002000000C8FD20003480000000520000080001200024820010001A400008000000003400000000000000000000DF
:8039000000000000000000000400000000024000000001200000800010000240000800012000000030FE000000000000001804000000000000001000000000000000000000000000000000000000000000000000000000000000000000000200000000000000000000000018000000000000000000D0FC0000300000020000000000000C67
:803980000880300000000004000019000000000800000000000000000000000000000000000000000000000600000000030040000006000000080000000060000000C0FE000030102600000810000000208011300900000082041300000000000441000000000000001000000000000000080000000000000000000000000004000020C231
:803A00004800015360840000000000B8FF8085801020080010080060008C80913010200010181110604400000030220200000000000000010000000000000000000000000018051000002C0400010026000419092001224082050000C0FFE0010C8007000006000078100FE4013C8001310004C0037A0000000008000400000000000010E7
:803A80000200000000000008000C100000001CC08000000F6000008007F4001EC003780003E0010100F8FC8001300806010010000060000C8201300006C0201A1083600000000034800400000000000050020000000000000800300800000018000301000C8081000006C02018008360100C8401000098FD800100012600000005006000AF
:803B00002C8001B20816C202400013600000000000220400000000000000020000000000000000300200000018001300000C0004000046C10498021360028C8001000080FA00000000000000000000000000000000000000008000000000000000001204000000000000000200000000000000000000000000402000000000000000000023
:803B800000000000000000000000000054F820000480001000024000080001200004800010000250000800012000040000000000000000000000000000000020000480001000004000080001200004800010000240000800012000040088FD00000000000000000000000000000000000000000000000000000000000000000000000000A2
:803C0000000000000000000000000000000000001000000000000000000000000000000000000000000098FE2C0004800010000240000800012000048000100000400008000120000000000000000000000000000000000000200004800010000241000800012000048000100002400008000120000400D3FC0490000000000000000000F0
:803C80000000000000000000000808002000008000101000000000000000000000000000000000000000000000400400000004000000000000000000110000008000000019F908000480001000024000080001200004800010000040000000010000000000000000000000000000000000000020000480001000024000080000200004808B
:803D00000010000200000A00010000040060FA180000000000000000000000000000000000000000000000000000000000000000000000000000000000000000000000000000000010000000000000000000000000000000000000000000B3FD000006800010000240000800012000048000100002400008000120000400000000000000EC
:803D8000000000000000000000200004800010000241000800012000048000100002000008000120000400C8FF00000000000000000000000000010000000000000400000000000000084000000000000000000000000000000000000000000100000000040000000000000000000000000000000000000040FE0000000000000000000089
:803E0000000000000000000000000000000000000000000000000000000000000000000000000000000000000000000000000000000000000000000000000000001000000098FE0000000000000200000000080000000000000000001000000000000000000000000000000000000000000000000000000000000000000000000000000082
:803E8000000000000000000000000004000068F9000000000000000000000000000000050000000000000000000000000000000000000000000000000000000000000000000000000000000000000000000000000000000000000000000000C8FA800040000000004000000000000001000000000000000000000020000000000000000075
:803F00000000000000000000000000000000000000200040000000000000000000000000000000000000000028FF000000000000000000004000000000000000000000000000000000200000000000000000000000000000000000000000000000000000000000000000000000008000000000000000000000F0FB080010000000000000D7
:803F800000080000008000000000800842000010000000000000000000000000000000000000000000000000000000000000000000000000000002000000000100000000008094FA0000000002410000440000000008000820001000008000000000800010080000000000000000000000000000000040002000000000000000000000000F
:8040000000000201000810800810000200000098FB060008800014000050001000008880042000104004C800002000A000042000000000000000000000000000000000000120000100000000000000000000800006000210800B400008000000B0FC0000000000004201008200080820200008024120420083880200A0A0960000000000EC
:8040800000000000000000000000000000000000000000000020000415011004B4801050024142080800010000E0FE00000000000000000080000000000000100484800080000200008000100000000000000000000000000000000000000000000000000000400008000020000000000080000000000000000050FF0A000000000000007F
:80410000000200400400000100000000000001000000004000000000000000000000000000000000000000000000000000000000000002010020848020040400211001800000809CFE00000000000000000800000010000000000002000004000000000000000000000000000000000000000000000000800000000000008000000000007E
:8041800000000000000000008000000000000000E0F940000100000000000000000000000000000000000000000000000000080000000000000000000000000000000000000000000000000000000000000000000000000000040000000000000040FB0000000000000000000000000000008000000000000000000000000000000000005E
:8042000000000000000000000000000000000000000000000000000000000000000000000000000000000000000018FF100000000000002400000080000001000000000004000000000200000000000000000000000000000000000000000000000000000000000000000080000000000000000000000000000000BCFF0000000000000031
:804280000002000000000000000000000020000000000000000000000000000000000000000000000000000020200000000000000000020000000000000000000000000000000000B8FD000000000800000000000000000000000000000040000000200000000000000000000000000000000000000000000000000000000000000000003D
:80430000000000000000002000000000000000000030F9000000000000000000000000001000000400000000000000000000000020000000000000000000000000000000000000000000000000000000040000000000000000000000000020000000C8FE08000000000000000000004000000000000000000000000000004000000000004E
:8043800000000000000000000000000000000004000000000000000000000000000000000000000000000000000000D0FF000000000100000000000000040000000000600000800000000000000000000000000000000000000000000000000000000000000000000000000000000000000000000000000080000000B0FA000000000000DB
:80440000000000000000000000000000020000000010010400000000000000000000000000000000000000000000000000000000000000000000000000000000000000000000000000A8F900000000002000000000000000000000000000800000000000208000000000000000000000000000000000000000000000000000000000000044
:8044800001000000000000000000000000000000000028FE00000000000000000000000000008000000000000000000000000000000000000000000000000000000000000000000000000000000000000008000000000000000000000000000800000098FF000000000000000000000000000000000000000000000000000000000000006E
:80450000000000000000000000000000000000000000000000000000000000000000000000000000000000000000000098FF00000080000000000000000000000000000000000000000000000000000000000000000000000000000000000000000000000000000000000000000000000800000000000000000000000098FF000000000085
:804580000000000000000000000000000000000000000800000000000000000000000000000000000000000000000000000000000000000000000000000000000000000000000000000018FF00000000000000000002000000000000000000000000000000000000000000000000000000000000000000000000000000000000000000009A
:8046000000000000000000000000000000000000400000F8FD00000000000000000000000000000000000000000000000000000000000800000000000000000000000000000000000000000000000000000000000000000000000000040000000000000018FB000000000060000000002000008000102000000000000000000000000000B6
:80468000000000000000000000000000000000800000000200000000000000000000000000210008000000000000000000B0FA00001000000000000000000008000000000080000000800000000000000000000000000000000000000000000000001000000000000000000000000000000200000000010000000000000038FE0000000004
:80470000000010000000100000404008000010000800020000000000000000000000000000000000000000000040004000010000000000000000000000000000000500000000000000000050F900000000000000000000800000000240000000000000000000000000000000000000000000000000000000000000000000000000000000E6
:80478000000000000000000480000000000000000000000030FF00000000000000000000000100000000000000000000000000000000000000000000000000000000000000000000000000000000000000000000000000000000000000000080000000000008FF00000000000000000000000000000000000000000000020000000000007C
:804800000000000000000000000000000000000000000000000000002000000000000000000000000000000000000000008010FF00000000000800000000000000000000000000010020000000000000804000000000000000000000000000000020002000000000004000000000000000000400400000012000010000000032F84200014D
:8048800000000020000000000000000000000000000000000000000040080000000000000000000000000000000000000000000000000000020000800000000000000000000000000000000008FF1800000000200004000000000242200000024000080801201004000000000000000000000000000000000000000000100001000000008F
:8049000001200000000000000001000000800000000040000052F84083000000104002000020000528400180C0100002500028500100C00800000000000000000000000000000000000004800000000044004901004000A0000004000800000200000000010078F8200004268400180802604000200008005404C00010034348A82480005A
:8049800000000000000000000000000000000000000000200000000008008200010D35000000A000182229800014880121000000F9000000000000001000000000000000000000100000400000000240000000000000000000000000000000000000000000000000000800800000020000000000000000000001100000000000F0FA000069
:804A00000010810020000480100000000000100240000284001110000000000000000000000000000000000000000000001000000000000001000001020000000001200000000000048240000038FF100000000000000800000000004400000002014000080000000000000000000000000000000000000000000000000004900000000883
:804A8000000100000000000080100200000000000000100000001CFD000000000000000000000000000000000004000000000000000000000000000000000000000000000000000000000000000000000400800000000000040000000000C40000000002000000B8FB0000000000000000000010000000202800000000000000000000009D
:804B0000000000000000000000000000000000000000000000000000000000000000008004000000000000000000000000000000E8FC00000000008000000000000000000000100000000000000000000000100000000000000000000000000000000000000000000000000000000000000000000000000000000000000000000010FF120C
:804B80000000000000000000000000000000000004000000020000000000001000000000000000000000000000000000000000000000000000000000000000000000000000000002000000000000F8FE0000000002000000100000000000000000080000000200000000000000040000000000000000000000000000000000000000000087
:804C0000000004040000000210000000000000000008100000000010FF00000000000000000000000000000000000000000000000000000000000000000000000000000000000000000000000000000000000000000000000000000001000000000000010000000088FF020000000000000000000000010000000000000000000000000067
:804C800000000000000000000000000000000000000000000000000000000000000000000000000000000000004000000000000000E8F8000000000000200000000000000000000000000000000000000000000000000000000000000000000000000000000000000000000000000000000000000000000000000000000000000000B8FFBD
:804D000000000000000000000000000002000000000020000000000000000000000000000000000000000000000000000000000040000000000200000000000000000000010000008000000000000070FC00000000001400040000000000000000000100000040000000000000000000000000000000000000000000000000000000000089
:804D800000000000000000000000000000000400008000000000000040FA18000000000000000000000010000000000000000000040000000000000000000000000000000000000000000000000000000000000000000000000000000000000200020C00040000000070FD2009050000000000000000000000000400000000000000000016
:804E00000000000000000000000000000000000000000000200000000010000000000000000000000000000002400008000120000400E0FC800000000000000000000000000000000000000000000000000000000000000000000000000000000000000000000000000000000000000000000000000000000000000300000000000000181C
:804E8000FC008100000000000000000000000000000000000000000000000000000000000000000000000000000000000000000000000000000000000000000000000000000000C80300200B00000000F0FE8001000000000000000000000000003040000000000000000000000000000000000000000000000000000000008009020000D5
:804F00000000000000000000000000000000001801006004048005B24070FD0005301000000000000000000000000012000000000000000000000000000000000000000000000000000000000008000000C0480000000000000000000000000000890100210600888000F8F9E0813C0000000000000000000000003C0000000000000000E2
:804F8000000000000000000000000000000000000000000000E081000000F000000000000000000000000000001E0002780008E0013C2060F98041000800000000000000000000003000000000000000000000000000000000000000000000000000000000008001000000C0000000000000000000000000000018000260000880013000BD
:80500000C8F8C005000100000000000000000000003009000000000000000000000000000000000000000000000000000000008049000000C000000000000000000000000000009804016012048049300938FD209124210000000000000000000000240A000000000000000001000000000000000000000000000000000000002000000059
:805080000000000000000000000000000000000000400008000100000400D8FE000010000000000000000000000000100000000000000000000000000000000000000000000C0000000000000006000000000000000000000000000000000000000000000000000000000060FC8081201000000000000000000000002000000000000000AE
:8051000000000200000000000000000000000800000000000000040000000000000000000000000000000000000000C00200200B0000000080FB00113000000000000000000000000030090000000000000000010000000000000000000000000000000000000080090200000000000000000000000000000000000000016004040000B09A
:805180004053FE800931010000000000000000000000201100000000000000004C04000000000000000000000000000000000000000400000000000000000000000000000000000000800100000600000000B9FEE0013C0800000000000000000000003C0000000000000000000F00000000000000000000000000000000000000E001014E
:80520000000000000000000000000000000000000000000278200800003C1020FC804130000000000000000000000000300000000000000000000C00000000000000000000000000000000000000800100000000000000000000000000000000000000000260000800003000EBF880091812000000000000000000000038100000000000FE
:805280000000000C00000000000000000000000000000000000000804100000000000000000000000000000000000000000160100400003008E0FD000014090000000000000000000000240000000000000000004900000000000000000000000000000000000000A0010000000000000000000000000000000000000040000812012000B1
:80530000040038FA000000000000000000000000000000000800000000000000000C02000000000000000000000000000000000000000000000000000000000000000000000000000000000000000000000000B8FB000030000000000000000000000000302000000000000000000C0400000000000000000000000000000000000080011D
:8053800001000000000000000000000000000000000000C00200100B0000010088FB0C0030120000000000000000000000A00000000000000000002C0000000000000000000000000000000000000000000000000000000000000000000000000000000000010001048001B04058FE040030210000000000000000000000300A00000000D5
:80540000000000000C01000000000000000000000000000000000000008800000000000000000000000000000000000000800100100600308010E0F908003C0000000000000000000000003C0000000000000000000F00000000000000000000000000000000000000E001000000000000000000000000000000000000000002180008E0F5
:80548000013C0068FD180030080000000000000000000000300000000000000000000C0000000000000000000000000000000000000080010000000000000000000000000000000000000000020010088081300000F90000B0000000000000000000000000300400000000000000002C040000000000000000000000000000000000008025
:80550000490000000000000000000000000000000000000000014000048009B008A8F8000034000000000000000000000000340000000000000000000100000000000000000000000000000000000000A01001000000000000000000000000000000000002400008000120001400F8FE0000300000000000000000000000003000000000CD
:8055800000000000000C00000000000000000000000000000000000000000100000000000000000000000000000000000000000000000000001008B0F8000038000000000000000000000000380000000000000000000000000000000000000000000000000000000000800000000000000000000000000000000000000000C80200200BF9
:8056000000000000C0FD0C003400000000000000000000000034000000000000000000000400000000000000000000000000000000000000490000000000000000000000000000000000001801016004048005021042FA04000001000000000000000000000000010000000000000000200800000000000000000000000000000000000029
:80568000801000000000000000000000000000000000000080A00100810600900001C0FE08000C0800000000000000000000000C080000000000000000030000000000000000000000000000000000000060410000000000000000000000000000000000001E0002780008E0010C2040F81800000000000000000000000000000000000052
:80570000000000000000000800000000000000000000000000000000000080800000000000000000000000000000000000001800026000088001201029F90000040000000000000000000000000400000000000000000040000000000000000000000000000000000000008011000000000000000000000000000000000000180501601461
:80578000048051200200FF000034000000000040006800000000240A0000000000000000010000000000000000000000000000000000000020010000000000000000000000000000000000000040002801012000140218FD000030000000000000006000000000100000000000000000000000000000000000000000000000000000000032
:8058000000804100000000000000000000000000000000000000000020400000001008F8FC000038000000000000007800000000200000000000000000000008000000000000000000000000000000000000008000000000000000000000000000000000000000C00200000B0000000000FA0C0034000000000000536800000000300900A8
:80588000000000000000000C00000000000000000000000000000000000000001000000000000000000000000000000000000000000100080480050212FBF9040000090000000000080012000000200400000000000000008001000000000000000000000000000000000000804100000000000000000000000000000000000000800100E4
:8059000002060000001281FF08000C0000000000C0031A000000003C0000000000000000000F00000000000000000000000000000000000000E000000000000000000000000000000000000000000002182008E0010D0058F9180000000000000000830000000000300000000000000000000C040000000000000000000000000000000015
:8059800000008001000000000000000000000000000000000000000002400008804120005EFA000000000000000000230000000000B81000000000000000004C0000000000000000000000000000000000000080400000000000000000000000000000000000000000014084048011A008C8FFA00104010000000040820000000000240057
:805A000000000000000000008104000000000000000000000000000000000000A0910080000000000000000000000000000000000240002801012000040138F8800100100000000000010000000000000800000000000000000000000000000000000000000000000000000000800100000000000000000000000000000000000000000014
:805A800020200000000008B0FCE00100080000000000820000000000300000000000000000000008000000000000000000000000000000000000804100000000000000000000000000000000000000C80200000B00000000E0F8AC01100000000000002300000000002021000000000000000004000000000000000000000000000000007C
:805B000000000080110000000000000000000000000000000000001801010080048005821030FC044400060000000000120200000000300A0000000000000000800100000000000000000000000000000000000000310000000000000000000000000000000000004080010044060008000940FA68001C0000000000C00300000000003C8C
:805B80000000000000000000000700000000000000000000000000000000000000E0000080010400000000000000000000000000001E1002180008E0010D0038FB1800201000000000000300000000003008000000000000000008040000000000000000000000000000000000000001000006010000000000000000000000000000180415
:805C0000024000088041002050F920001001000000008003040000000030010000000000000000440000000000000000000000000000000000000000840000060000000000000000000000000000005800014012048005200020FA000004800600001A409200000D0000048006D0001A0000000089000034000000000000000000000000D7
:805C8000000000002000348006000000000008000000000000000000004000280201A048300838FF0000000006000018000000000C0000000006C0001800000000040800300000000000000000000000000000000000003000060000000000000000000000000000000000002040008000300020FE000000000700001C000300000F000023
:805D0000000007E0001E00000000080400380000000000000000000000000000000000003C000700000000000020000000000000000000C00200200B00003D0058FA0C0030850600001A004200000D000030C006D0001A000000000C000034000000000000000000000000000000000000348006000000000060040000000000000000008D
:805D8000000100020400083000BBFD04008010400100000583000080020000414001280005000000280000000A0000000000000000000000000000000088000A0600000000000002000000000000000000800100400600103200A9F808003C8001000006C00300000300003C8001300006000000000F02000C000000000000000000000007
:805E0000000000000060000C000700000000007820000000000000000000000218000860003800A0FC180030080000000000030000000000300800000000000000000C0000000000000000000000000000000000000080010080060000000000601000000000000000000000024000080041300066F90000308000000002001301000000D3
:805E800000308000100000000000000E0200040000000000000000000000000000000080490080060000000000600000000000000000000000014042040005300010FEA00104800600001A40006800000000348006D0001A0000000005000034000000000000000000000000000000002000348006000000400300000000000080000000EE
:805F0000004000280409A008040080FD800100000600001800006000000000300006C0001800000000000400300000000000000000000000000000000000003000060000000003000000000000000000000000002010048040000068FDC00100800700001E000070000000003C8007F0001E000000000C04003C00000000000000000000BD
:805F80000000000000004000388007000000C0030000000000000000000000C00200000B00000000E0FDAC0130A00600001A00536800000000348006D0001A000000000C0000340000000000000000100000000000000028003480060000000003000000000000001602000000010020040084000078FA04408040000100000410001000A8
:806000000000000800012000040000008C0000000802000000000000000100000000000080050008060000000003000000000000001002000080010041060000800818FA68003C8001000006C0031A000000000C8001300006000000000F08000C00040000000000001002000000000000C8810C00070000008003000000000000800700E8
:806080000000000218000A60800C00A0FB180030080000000000830000000000000000000000000000000C02000080040000000000005002000000000000880100000600000000030000000000000006010000000240000400013010C0FE000030010000000000130800000000000000000002000000002C000000000400000000000000E2
:8061000002000000000000800104000600000000030000000000000026000000000140140800053101F0FC000000000000000000000000000000000000000000000000000000000000040000000000000002000000000000000000000001000000000000000000000000000000000000000000000000E8FB000000000010000040000000AF
:80618000012000000000000000400008000120000000000000000000000000000000000000200000800010000240000800012000048000100002400008000120000400C8FD004000080000000010000000000000000000000000040000000000000000000000000000000000000000000000000000000000000000000000000000000000D6
:8062000000000000000000000000000090FE2C080482A01000424000080A01200004A180101402400008000120008410000000000000000000000000000000200004050012000240000800012000048000100002400008000120000400C3FE04000000000000000000000000000000000000000000000000000000000000000000000000BB
:80628000000000000000000000040000120100000008000000000000000000000000080100200400000039FF08000000001000004000000001200000000000000040000800002000000000000000000000000000000000000000400000001000020000090001200004800010000200000800002000042060FE1880002000010000040000C0
:80630000100004000000000120000800000000020000080000000000000000000000000000000000010800000000000000000000000000000000000000000000000000001EFF201004800010000240000802012000048A00100002410008008120000400000000000000000000000000000000200804810010000200000900012000048084
:8063800000100002404008000121000404B0FD000000000000000040000000000000000000000000000000000000000000000000000000000000000000000000000000000000000000000000000000000000000000000010000000040000D8FE00000000000000000000000000000000000000000000000000000000000000000000000002
:8064000000000000000000000000000000000000000000000000000000000000000000000000000000000098FF00000000000000000000000000000000000000000000000000000000000000000000000000000000000000000000000000000000000000000000000000000000000000000000000000000098FF00000000000000000000EE
:80648000000000000000000000000000000000000000000000000000000000000000000000000000010000000000000000000000000000000000000000000000000000000098FE0000000000000000000000000000000000000000000000000000000000000000000000000000000000000000000000000000000000000000000000000005
:806500000000000000400000010100000400C8FB000000000000000000400000000000000000000000000000000000000000000000000000000000000000000000000000000000000000000000000000000000000000000000000000000000D8FF0000000000000002000000000000000008000000000000000000200000000000000000D1
:806580000000000000000000000000000000000020000000000000000000000000000004000000000000000034FF00400000000000000000000000000000000000000000000000000001000000000000000000000000000000000000000000000000000000000000000000000002000000812000040240000080FF00000105000000040091
:8066000000C0000000006010C00000000000000000600000000000000000000000000000000000000000000600005800000000000000000000000400004800CA00010800018078FF000000040000000000000000000000000400800000000040000080410000000000000000000000000000000000000100000200000000000000000000C9
:806680000000000000100302000C0C0200005270FC0E0000000000000000000000000000000000000000000000000020000100000000000000000000000000000000000000000100000000000000000000000000000000000000000101000000E0FA0A0000080000000000000000000000000800200000000008000000010000000000005E
:80670000000000000000000000000080000000000000000000000000000000000000000804010010040000000094F9000000000000000000000000000000000000000000000000000004000000000000000000000000000000000000000000000000000000000000000000000000000000000100000400000000D8FA000000000000000010
:806780000000000000000000000000000000000000000000000000000000000000000000000000000000000000000000000000000000000000000000000000000000000000011098FF0000200000000000000000000000000000000000000000000000000000000000000000000000000000000000000000000000000000000000000000D1
:806800000000000000000000000000000000000098FD5000000000000000000000000000000000000000000000000000000000000000000000000000000000000000000004000000000000000000000000000000000000000000400000000000008CFB02000000000000000000000000000000000000000000000000000000000000000066
:8068800000000000000000000000000000000100000000000000000000000000000000000000008000000000208088FF00000000000000000000000000000000000000000000000000100000000000000000000000000000000000000000000000000000000000000000000000000000000000000000000000000088FE100000000000004A
:806900000000000000000000000000000000000000000000000000000000000000000000000000000000000000000000000000000000000000000000000000000000080000000000C4FB1A00000000000000000000000000000000000000000000000000000000000000000000000000000000000000000000000000000000000000000036
:806980000000000000000000000000000000000000A0FD00000000000000000000000000000000000000000000000000000000000000000000000000000000000000000000000000000000000000000000000000000000000000000000000000000098FF04000000000000000000000000000000000000000000000000010000000000005E
:806A000000000000000000000000000000000000000000000000000000000000000000000000000000000000000000D8FA02000000000000000000000000000000000000000000000000000000000000000000000000000000000000000000000000000000000000000000000000000000000000000000000000080030FD00000400000009
:806A800000004004000000000000200000000000000000000000000000000000000000000000000000000000000000000000000000000000000000000000000000000080000000000038FD0000000000000000000000000000000000000000000000000000000000000000000000000000000000000000000000000000000000000000007D
:806B000000000000000000000000000000000000000098FF08000000000000000000000000000000000000000000000000000000000000000000000000000000000000000000000000000000000000000000000000000000000000000000000000180008FE0000000000000000000000000000000000000000000000000004000000000054
:806B8000000000000000000000000000000000000000000000000000000000000000000000000000000000000000000098FB00000000000000000000000000000000000000000000000000000000000000000000000000000000000000000000000000000000000000000000000000000000000000000000000000000098FF000004000067
:806C00000000000000000000000040000000000000000000010000000000000000000000000000000000000000000000000000000000000000000000000000000000000000002000000098FC00000000000000000000000000000000000000000000000000000000000000000000000000000000000000000000000400000000000000001B
:806C800000000000000000000000000000010000000000C8FE00001800000000000080000000000000000000000000000000020000000000000000000000000000000000000000000000080000000004000000000000000200000000002000004040000030FE0A0000000000000000800000000000001000100000000000000000000000AD
:806D0000000000000000000000000000000000404000000020000000000000000000000000000000040000000000022008F0FE00000000000000000000000000000000000000000000000000100000000000000000000000000000000000000000000000000000000000000000000000000000000000000010000000000098FE040000009D
:806D80000000000000000800000000040000000008000000000A00000000000000000000000000000000000000000000000002000000002000000000000000000008000020000000400000D8FD0000000000000000000000000000000000000000000000000000000000000000000000000000000000000000000001000000000000000015
:806E00004000000000000000000000000000000000000000D8FA000000000000000000000200000000004000000000000000000000000000000000000000000000000000000000000000000000000000000000000000000000000000200000000080810000E0F8000000000000000000012000080000100000000000000000000002000189
:806E800004000000000000000000000000000000000000000000000000000000000000000000000000000000000000001000C0FC9E00000000200000800000100248200008000000080000200000000020000000000000000000000000000000000000000000000004000041000000000000000000000401001004800000801AFC203000F6
:806F00000000100000C00010400328000920000000020000080000068004100000000000000000000000000000008000A0000000000200600A0000000000000000000050000040012000080088FA00450008860000100008420100000010000680001000002001048020300000000000000000000000000000000000800280020000000065
:806F8000030000888341000002010080024240020801010004D0FE004000100200000000000000000000100001000000000010000240001000000000000000000000000000000000000000000200000000010000004280000082000000000000000000000000A8FA4000000081000004000010000000000000024000080000000000000090
:80700000110000000000000000000000000000000000000000000000008000000001280000000000000004810800048200001060F800000040000000000000000000000000000000000000000000000000000000000000000000000000000000000000040000000000000000000000000000000000000000004080000000100048FE02007F
:807080000000000000000000000000000008000000000000000000200000000000000000000000000000000000000000000000000000000000000000000000000000000400000040004004008058FF000000000000000000000000000000048000000000000000002001000000000000000000000000000000000000000000000000000064
:8071000000000000000000000000000000000000000000000000E0F9080080000000000000000000000000000000000000000000000400000000000000000000000000000000000000800000000000000000000000000000000000000000000000000000000000BAF904000010000000000000000000000000000000000000000000000063
:80718000000000000000000000000000000000000000000000000000000000000000000000000000000000000000000000000240C8FD00000800000000000000000002000010000000000000000000000000000000000000000000000000000000000000000000000000000000000000000000000400000000008030000000400090F900F1
:807200000000000000000002000000000000000400000000000000000000000000000000000000000000000000000000000000000000000000000000000000000000000000000008000000000008B8FB0000000000000000000000000000000000000000000000000000000000000000000000000000000000000000000000000000000045
:807280000000000000000000000000000000000000000000008000B2FD00000000000000000000000000000000000000000000000000000000000000000000000000000000000000000000000000000000000000000000000000000000000000000000000000000098FF802000840000000000000000000000200000000000000000000084
:8073000000002000000000000000000000000000000000000000000000000000020000000000000000000000000000000000000000D8F910000000000000000000000000000000000000000000000000000000000000000000000000000000000000000020000000000000000000000000000000000000000000000000000000408060FBCF
:8073800000010000000000000000000000000000000000000000000000000000000000000000000000000000000000000000000000000000000000000000000000000000000000000000000000000098FE00000080001000024000000001000000800600004A60002882010000040000000000000000000000000000000020000400000020
:8074000000024000000000004804800000000040000000010000040068FB000000000000000000000000000000000006000000000000000000000000000000000000000000000000000000000000000000000000000000000000000000000000000000000000000000F8FF0000000000000000000000000000000080010000181000600050
:807480000000000800000000000000000000000000000000000000000000000000000100006000001000010000000000000000000010F8FE0000000000000000000000000000000000000000100000400800000034090000000000000000000000000000000000301000000018080B0000000000B00026000000000000002C0400300008CE
:80750000FB0000000046C00898102300002C0000000006000010002042004002000002000000000000000000000000000000004480100000000000100000008091001220080000001000002004000001B0FE0000008007F2401EC00301000F0200000006000012C00048000300003C0800000000000000000000000000000060003C00008E
:8075800000001EC803010000E0013C8007000000C00002000F00003C2038F80000000000024018000001000C0000000000000008008320000C02003008000000000000000000000000000000804130000000001800030000008001300006000000008300000C0000300028FD0000000001200018800000000C000000000000000800232091
:80760000000C00003400000000000000000000000000000000800930090000009804930000008001300926010000001300004C0200300930FB20000480149002004000000001000000800214008A480828410100003400000000000000000000000000000000000000000000001A4000000000000000000000000000000000000000000040
:8076800038FA800100000002400000000000000000000000000000000001000000003000000000000000000C0000000000000006000000000000180000000000000000000000000000000000000000000028FE0080000006C000000000000000000000000632001808006000000000380000000000000000080000000000000004000000D2
