:020000040000FA
:80000000FFFF62FF3900FFFFFFFFFFFFFFFFFFFFFFFFFFFFFFFFFFFFFFFFFFFFFFFFFFFFFFFFFFFFFFFFFFFFFFFFFFFFFFFFFFFFFFFFFFFFFFFFFFFFFFFFFFFFFFFFFFFFFFFFFFFFFFFFFFFFFFFFFFFFFF800C9001324006C840110071200A4481A80265048A4011280246804C9001000000000000000000000000000000000C9001320097
:8000800026C80419300245A00814A82260044014882A0245A008900138FD0017E0025C800B70012A800A50012A4005B4800A50012A4005A8003FE0020000000000000000000000000000000012E0025C001DF0032E4005A80015A00554800AA002544005A80015E00298FF00000000000000000000000000000000000000000000000000C9
:80010000000000000000000000000000000000000000000000000000000000000000000000000000000000000000000000000000000098FF0000000000000000000000000000000000000000000000000000000000000000000000000000000000000000000000000000000000000000000000000000000000000000000000000000009850
:80018000FF000120000480001008000000000000000000000000000000000080212800000000000000000000000000000000000020100400101002020000000000000000000000000000000000002000A0FD0E01400090000340000000000000000000000000000000000000400480000000000000000000004000000000000000800014AB
:800200000020060008010000000000000000000000000000000000C080D3FFA001000000000002000000000000000400001000004000080041200000000000000000000000000000000000000000000000100400400068000000000000001002020100000000A0010000F8F880010000000000000000000000000000000000000000036097
:80028000000804000000000000000000000000000000000000000000000000800000006000000000000000004000040000000080010000A8FC0000000000000000000000000000000000000020000000780004640100000000000000000000000000000000000000000000800000000061000000000000000000060000000000E0010000E0
:8003000078F9000000000000000000000000000000B00800C00400001002008C80000000000000000000000000000000000000000000000080140000236000000000000000001018040000000080010000B8FA0030000000000098000000000000000010000044000013320000C000000000000000000000000000000000000000000000DB
:80038000004020000010001400000000000080001400000000000000000060FD600000000000001E100000000000003C0000F000004003400001000100000000000000000000000000000000000000000000700000C003190000000000000030401000000000006080000068F9000000000000001800000000000000300000C00000000331
:800400004000000001000000000000000000000000000000000000000000000080000003000000000000000000801000000000000000000058FA008000000000001800000000000000300900C024000000200000800000000000000000000000000000000000000000000000000200009300000000000000000000080000000000200000C4
:8004800000D8F820310000000000000000000000000000000010000040100C0021280000000000000000000002000000000000000100000000100001400008040000000000001000420000000000A00100009CF9800000000000000000000000000000000000000000000200000800000000000000000000000000000000000000000000B4
:8005000000000000000000002000000000000000000004000000008001000048FA0001000000000000000000000000000000000020000001580004600100000000000000000000000000000000000000000000804000000041100000000000000000060000000000E001000058F8808100000000000000000000000000000000C0040000A8
:800580000322004C8400000000000000000000000000000000000000000000008000000023400000000000000000005A04000000008001000063FF0001010000000000000000000000000000000004000000300000C0000000000000000000000000000000000000000000000040400000082000000000000000000414000000000000101C
:80060000000029FFE00100000000000000000000000000000000F040004000400001000100000000000000000000000000000000000000000000700000C0033A2000000000000030201000000000006080000008F8800100000000000000000000000000000000C00000000040000000010000000000000000000000000000000000000070
:8006800000000000400000030000000000000000C000100000000000000000004BFAC08500000000000000000000000000000000C02000000020000080000000000000000000000000000000000000000000000000080000830042000000000000C02408000000000020000000C0F9301100000000000000000000000000040000100000F6
:800700004040080021200034000000000000000000000000000000000000000000908200402008100120000000001000020000000000A001000060FF0080000000000000000000000000000000000000000002000008080030000000000000000000000000000000000000000000C00000008000000000000000000000000000000000803D
:8007800001000038FB80010000000000000000000000000000000000200000015900046001300000000000000000000000000000000000000000000020000002401000040000000000201E00000000008001000090F90C0902000000000000000000000000000000C00400001320008C90003000000000000000000000000000000000001D
:8008000000000000400400005240002C0000000000C0001A00000000008001000070FA8431000000000000000000000000000006000042000000300000C000000800000000000000000000000000000000000000008010000081200040800500000000421400000000000008000018FAE001000000000000000000000000000C0000F00079
:8008800000400040000100010C000000000000000000000000000000000000000000300000C00138200FE481000000F0000800000000006040000080FE8C8100000000000000000000000000300000C000000000400000000100000000000000000008000000000000000400000000800000000000100C8001000000C00008000000000068
:8009000000000000E8FE800500000000000000000000000000B04000C022000000200000800000000000000000000012000000000000000600000000008800009000042C8201000000C0221000000000000000000038FE20310080000000000000000000000004000010000240080800212000000000000000000000000000000000000017
:800980000000000000904402400048000100000480001002130000000000200004006CFB8000000000000000000000000000000000000000000002020008040000000000000000000008000000000000000000000000C0000000006040000000000006800008000000000000000000F0FB00010000000000000000000000000000000000F2
:800A0000200000015A0004600100000000000000000000000000000000000500000000004006000000000C000000800700801400000000000040000020FD808100000000000000000000000000B00800C00458081320000C880000000000000000000010000000000000000100000000400402000020220010000000000002080000000070
:800A800000000800001BF90005010086000000000000000000000001000008410000300000C00000000000000000000002000000000000000400000000804898106040142C0800B0100300080C00000000008045000631FCE001008007000000000000000000003C1000F0001E50004000010001000000000000000000140000000000007F
:800B000000000000000030001EC00018000F00003C0004304014000000000060000C00A0F9800100000600000000000000000000300000C000180000400000000100000000000000000000000000000000000200000000800018000340000C0200300004000008000000000000403010C3FFC01101000600000000000000000000300A002C
:800B8000C028180500200000800000000000000000000014000000000000000A00000000000419008B00200C0000300002008210000000000000003000E8F93011000000000002400000000D000004000010880040200C002124002406000000000000000000000000000000200004000010001A4002080001000000801011000000000840
:800C00000000A0010400A4FB0080000000000000000000000C0000000000000000000200000800001000000000000000000000000000000000020000000000001800830000000000000000000000000000000080010000D0F98001010000000000000000000F00000000000000000001590004680120000000000000000004000000000027
:800C800000006800002000C000180080002000040000800101200000000020008001000018F90C01000000000000004300000D0000B00800004200000B20004C800030100100000000000080000000000000002000300200002018001160012C0000000016C0000000006004000050300AD3F884310000000000980008000040020000112E
:800D0000000000000000300000C000A00001000000000000A2000000000000009005001100C004800042002020000000000500480000000001008001800021FFE00100000000001ED00302000300003C0000304000400040000100013C20000000000000000400000000000000E2813C0000F02006C40078000F0800000004F00000000004
:800D8000784000A0013C20B8FF8C81000000000018008300000000003008008080000000400000000130800200000000000048010000000000008201300800C00000000260100C0200000004C020000000601000000030080BFB800100000000001800230000000000300200000200000020000080003821010000000000008C0000000068
:800E00000000008401300200C02200008060048C0000000002C00800000060040080013002B0FA20310080000000000000000000000004000010000040200A00812000240202000000000000000100000000000000000000001000004000481241020000804001000040000000002000040004F88000000000000000000000000000000037
:800E8000000000000000020000080400001000000000000000820200000000000000000000000000000000600000000000000000000000000000000000000098F80001000000000000000000000000000000000020000001580004600130900400000000000010000000000000000800000000000000000300000800000080010100000018
:800F00000000000040010000E8FB888100000000000000000000000000B00800C00400001321000C8100A0000800000000000042040000000000000500000000000000004020224801000080060000000000000000A000300ACBFC0089000086000000000000000000000042000048000000300000C00030860000000000000010000000D3
:800F8000000000000000000000000800002340148401000000050000000043000000C0040000C9FAE001008007000000000000000000003C0000F00000400040000100013C000000000000000004000000000000000100000000302000C0031900070000000004000000C00300000020413C2090FD840101000600000000000000000000F7
:80100000300800C0200000004000000001308001000000000000D0000000000000000800000000C000000083401000000000000400000000030000000001300853FCC01100000600000000000000000000B00000C002000000200000800030110000000000000082010000000000000900000000C024000023000220020000000200000089
:8010800000030000008044B000F8FD301100000000000000000000000000040000100000401008000120000080020000000000002000000000000000A001000000D000004003080029000000800011000000000000002000040054F80080000000000000000000000000000000000000000002010008080000800000000000000082010098
:8011000000000000009001000000C00000000300000C020000000000000000000000000000000078FF8001000000000000000000000000000000000020000001580004600100000800000000000010000000000000008101000000C000000003180000000000800101000000000000004001000018F80C29000000000000000000000000BA
:8011800000B00800C00400002322008C880000800000000000000002000000000000008801000000C00000000308000401000080260000000000000000A000300A3BFA8431000000000000000000000000000012000040000000300000C00000000400000000000050010000000000000148000000002000008060400801000000050004A3
:80120000000000000000C004001029FAE001000000000000000000000000003C0000F00000400040000100010000000000000000000A000000000000006000000000300000C0007800030000000004302000000000000020413C00B0F98C0100000000000000000000000000300800C0200000004000000001000000000000000000000093
:80128000000000000000110000000000000000006000080200000004C0200000000000000001300843FB800102000000000000000000000000300000C00000000020000080000000000000000000000000000000000000000000000000000000006000800000000002C00400000000000080443000F8F90000000000000000000008000072
:80130000000004000010000240080800012101040000000000000000000000000000000000000080001000004000080001000000801012880040000800002001040058FD0000000000000000000000000000000000000000000002010008800000000000000000000000000000000000000000000000000000000000000000000000000090
:80138000000000000000008000000000FD000000000000000000000000000000000000000000000158000064010C000000000000000000000000000000000000000000340000C000002000000000800102000000000020004001000000FA000000000000000000006008000000B00800000058084320000880000400000000000000001035
:80140000000000000000000800000046100000400060010000000080160044000000600400A000300AF2FD0000000000000000000000010000008010000018000000300000C00030120200000000000010010000000000000800000020C00200000304018010000000058018000063002000C0040001D8FF00000000000000000000784082
:801480000000003C000030001E500040000340013C000500000000000094020000000000000A00008007F24000C0037840030000000004300000C00378000060413C10B0FC000000000000000000006010000000300800C020180400400000800030000600000000000010030000000000000800000006C10000000360100C02000000046D
:8015000000000000036010008000300869F8000000000000000000006002000000300100C008980000200000000130000400000000000008020000000000000400000026C00000000360022C0000000002004200000360020000453001E0FF1000000000000000000000000000000000000000000000000000000000000000000000000004
:801580000000000000000000000000000000000000000000000000000000000000000000000000000000CCFB20000480001000024000080001200004800010000240000800012000040000000000000000020000000000000021000480001000024000080001200004800010000240000800012000040088FC000000000000000000000059
:801600000000000000000000000000000000000000000000000000000000000000000000000000000000000000000000000000000000000000000000000000000000000098FF2C0004800010000240000800012000048000100002400008000120000400000000000000000000000000000000200004800010000240000800012000048002
:8016800000100002400008000120080500EBF904000000000000000000000000000000000000000000000000000000000000000000000000000000000000000000000000000000000000000000000000002000008000000000000000000041F8200004800010000240000800002000048000100002400000200100801400000000000000F8
:80170000000000000000000000A00004800050000A4001280001200004000212000848000800010000040020FA0C0000000000000000000000000000000000000000000000000000000000000000000000000000000000000000000000000000000000000000000000000000000000000000000000000000E3F820000480001000024000F5
:80178000080041240004800010000240000820012080040000000000000000000000000000000020000480001000024000080001200004800010000240000800012008050070FA00000100000000000000000000000000000000000000080000000000000000000000004000000000000001004000000000000000000004000000000000B6
:80180000000000000000000000000000000050FA00000000000000000000000000000000000000000000000000000000000000000000000000000000000000000000000000000000000000000000000000000000000000000000000000000098FF000000000000000000000000000000000000000000000000000000000000000000000087
:801880000000000000000000000000000000000000000000000000000000000000000000000000000000000098FF08000000000000000000000000000000000000000040000200000000000000000000000000000000000010000000000000008000000000000000000000000000000000000000000000000068FF00000000000000000010
:80190000000000000000040000100000000000000000000000000000000000000000000000000000000000000000000000000001000000000000000000000000000000000400D8FF0000000000000000000000000000000000000000000000000000000000000000000000000000000000000000000000000000000000000000000008006F
:8019800000000000000000000000000000000010FF000000000000000200000000000040100000002000000000100082200000000000000000000000000000000000000000000000000000000010088000000000400000000008000000000000F0FA0080000000000000040000000000000000020000000080200804404010000000000028
:801A0000000000000000000000000000000000000000000001000004010001000002000804000000000000000880FF00000100000000041000000000008008800000400000000A6001648005000000000000000000000000000000000000000000000000400A0020034800010002A502D2120010000000000020C8FD220169000400000051
:801A800000000000000208100010402010000240006000610000000000000000000000000000000000000000000200000040080008A101012000749B020016002000040000440128FF0000000000000000000000000004001000004020000000000000004000000000000000000000000000000000000000000004000000000000000000C5
:801B00000000000002000010004000080000000010FB28001000020000000000000000000000000000000800024000008000010000000000000000000000000000000000000000000000000000001000420010000440000004000000000000008031F9000000000000000000000000000000000000000000000000000004000000000000A3
:801B8000000000000000000000000000000000000000000000002000040000000000000000000000000000000000B8F920000000000000000000000010000000000000000000028000000002000000000000000000000000000000000000000000002000000000000000000000000000000000000000000000000000FD000000000000003F
:801C0000000000000000000000000000000000008100080002000000000020000000000000000000000000000000000000000000000000000000000000000000000000000000000088FD10000000000000000000000000000000000000000000000000001000000000000020000000000000001000000000000000001000000000000000D4
:801C80000000000000000000000000000000000000ECFA000000000000000000000000000000000000000000000000000000000000000000000000000000000000000000000000000000000000000200000000000000000000000000000000020000B8FF000000000000000000000000000000000000000000000000000000000010000033
:801D000000000000000000000000000000000000000000000000000000000000000000000000000000000000020000B8FC04000000000000000000000000000000000000000000000000000000000000100000000080000008000004200000000000000000000000000000000000000000000000000000000000000031FD000000000000BF
:801D800000000000000000000000000000000000000000000000080000000002000000000000000004004000000000000000000000000000000000000000000000000000000000000070FD00000000000000004000080000000000000000000000000000000000000000800000000000000000000000000000000000000000000000000060
:801E0000000000000000000000000000000000000080D4FF000000800000000000000000000000000000000000000801000000000000000000000000008000000000000000000100000000000002000000000000000000000000400000000000000000E8FE000000000000000000000000000000000000000000800000000000000000005D
:801E8000000000000000000000000000000000000000000000004000000000000000000200000000000000000000000038FBC0000000000000000000000000000000000000000000000400000000000000100000000010000008000000000800000000000000000000000000000000000000000000000000000080000010FE0000000000EB
:801F000000000000000000000000004000000000000000000000000000000000000000000000000000000000000000000000000000000000000000000000000000000000000000000000D8FB0000000000000000000000000000000000000000000000000004000040000000000000000000000000000000000000000000000000400000CA
:801F800000010000000000000000000000000000000000D9FB000000000000000000000000000000000000000000000000000000000000000000000000020000000000000000000000000000000000000000000000000000000000000000000000000000B8FD000000000000000000000000000000000000000010004000001002000000F3
:80200000000000000000000000000000004000000000048000000000000000000000000000000000000000000000000000E0FB00000000000000000000000000000000000000000000000000000000000000000000000000000000000000000000000000040000000000000001000000000000100000000000000000000098FB0000000019
:802080000000000000000000000000002000008000000000000000000000000000000000000000000000000000000000000000000000000000000000000000000000000000000000000000F4F902000000000000000000000000000010000040000000000000000000000000000000000000000000000000080000000000000000000000F9
:80210000000000000000000040010000000000000000000020FC00000000000000000000000000000000000000010000000000000000000000000040000000000000000102100000000000000000000001000000000000000000010000002000000000008060FF000200000000000000000000000000000000000000000000000402004065
:8021800000000000010000000000000000000000000000000000B0000000800000000000000000000000000000000000000050FC00000000000000000000000000000000000000000000000000000000000000000000000000000020000000000000000000000000000000000000000000000000200000000000000000000098FD0000008D
:8022000000000000000000000000000020000080000040000000000000000000000000000000000000000000000000000000000000000002000008000000000000000100000000000000200060FF000000000000000000000010000000000000000000040000000000000000000000000040000000000000000000000000000000000000A0
:80228000000010000000000000000000000000100000000808E2FD000000000000000000000000000000108800400000000100100100400000000000080400200000000000000000800000000020800000010000004000000000400000000008400080000008E8FC02000000000000040080100002000008000000000080001000044000B0
:802300001000000000000000000000000004022000000000000440000004000000000280000000010000000000000000000080E6FF000000000000008202000A100100000C1001210000C000082003208004050000001002001000000000040220004000008500314000900020000048000100A0242000000010200040280010D0FC0000B7
:802380002104848400100000200208002110082040101002084010AC4122A00A0000000804C0200000000008014018800148802020400182020500428040008084256809008220081400041008B0F800000000000000000000200000000010080040000000000010010000000800000008044020000000000000001040000000000000009F
:802400000000000000408000008000200200802000040000100840FC00002010812000100000000008402000000000201010004000020240080000000000004000000000000402201000010000000000001001000000000000000201000000010040000000000020F8104000000000000000000000000000000000001000000000000000A9
:802480000010000000000000000000000000000000000000000000200000000000000000000000001000000000000000000000009CFD002400000000000000800000000000080000A00000080000000000000000000000000000000000000000000000000000000000000000800000000200000000A00000000000000000000010B8FA20AB
:80250000000000000000000000000000000000000000000000000000100100040000000100000000010080000000000000000000000000000000000000000000000000000000000000000000000028FB0000000000000000000000000000000000000000000080000000000000000000000000002000000000000000000000000000000001
:802580000000000020000000000000000000000000000000000000B0FD80000000000000000000000000000000000000000000000000000000000000000000000000000200000000000000000000000000000000000000010000000400001000000000000000000078FF000000000000000000000000000000100000400000000000000AA6
:802600000000000008010000000000000400000000000000001000000000000000000000000000000000000000000000000000000008FD00200000000000000000000000000008000020000000820000000000000000000000000000000000000000000000000000000000000000100000000000000000000000001000000000080000FF47
:8026800000000000000000000000000000000000000000020000000000000000000000000000000000000000000000000000000000000000000000000000000000000000020000000000000000000098FF0000000000000000040000000000000000000000000001000020000000000000000000000000000080200000000000000000007A
:80270000000000000000000000100000000000400000000000000000A0FE000000000000000000000000000000000000000000000400000104000000000200010000000040000000000000000000000040000000000000000001000000000000000000000000000000D8F90004000000000000000000000000000000000000000000000009
:802780000100000000000000040A00000000000008000000000000000000000000000000000000000000000000000000000000000000D0FC0801010000000000000000000000000000000000000000000000000000080000000000000000000000040000000000000000000000000080000000000000000000000000000000000000004818
:80280000FE2000008000900802400008000120000000001000004000680000000004000000000000000000000000000000002030008000D00000400048420D000000800010005240030000012000000000FB0000000000408000000000000080010000000000000000600000000000000000000000000000000000000000000000000000A2
:80288000C00000000060000C0000000000000018080000000008000000A8FA0000000000800000040000000C00000000000000000000600000000000000000000000000000000000000000000081000006C10000000000200C0000000000000000C0000000080800010008F90000000016C24418000000004081210000000000000023640F
:802900000000000000000000000000000000000000000000000009000040C00000008B20000C0000000000C0488802880000288011000090FC8005000020804200088860148C8805000000002400001000120000000012000000000000000000000000000000801000000601280000084022400200000040010010099300002400100200CE
:8029800060FDE081008007F2001EC00078000F6000010000300000C00319000000000C00000000000000000000000000000000E040008007300000C0031A00030000008001F080068000000007E4010000B8FB8001000006C08018008360000C8201000000C0000000030000000000300000000000000000000000000000000000000000B1
:802A00000601000000034000000000000006C00010000300000080010000A0FC8001000026E10898042360004CC085000000C02800009300000000003008000000000000000000000000000000008800001600000000930022000000000016C2240011A00000008449000058FA0000008040910002000048840120003400001000424400FA
:802A8000080000200004420000000000000002000000000000002100008010040000000008000D00000486001000004000000001000000007CF90000000000004000000020000000003000000000000000000000000000000000000000000000000000000000000000000000000000000000000C00000000000000000000000000000000B0
:802B00000080F90000000004C200000400400000800130000000801E0800180000600000000000000000000000000000000000006000000004000000000000000C000020100000000000000000000200000040FC0000000024800219000060218C8401300000C0080001230C0000200000100000000000000000000000000000002000005C
:802B80000044010000000000000C0000200016C44800000000002C000000000BFC0000000022C008400000400080843100110000480804086022008005000600000000000000000000000000000080050000120000000000600C00020010004002020000400000401000000099FB0000008003F1801E100078200FE0010C0000F00014C0FF
:802C0000037A0000E0010D00000000000000000000000000000000E001018003020000000078000300001C9007F08000C00000000F00000000F0FE0000000000C14018000060000C8081000000C00018040360000080010010000000000000000000000000000000800100000000000000006000000000002006C00000000300000C0000FB
:802C8000000023F90000000010C00418040070840C8205080000C02018008360000080011002000000000000000000000000000000800100002008000000006000000000800006C12000004300000C0200000040FD1000008006900802010008000D20002482001000024000080001000084080000000000000000000000000000002001B9
:802D0000008000000000400000000D2000A4A00010000240000000012000000018F90000000006408000040000000C00000010000000000000000000000000000000000000000000000000000000008081000000000000000000000C0000300000000000000000000000000000F0FD0000000006800010040000000C000030000004800034
:802D8000C00018000000003C000000000000000000000000000000000000000000000000000000000C0000010006010000000002000002400000E0FA0C00000006C04450000060210C0000A04046C008004000080000000000220000000000000000000000000000008040000000000000000000000C8009101100000018212300002C80C4
:802E0000110000B8FC0400000020800208000060844082513011000242000103620C0C0100100800000000000000000000000000000000810000200100000060000020028020120601844008080100200000020010F80000008001F1800E0800780003E0013C8007F00006C80378000F0000280000000000000000200000000000000070C9
:802E800000008001000000C000000003E0010C800730001EC00300000FE8010000E0FC0C00000000C0000000006020008001300006C00018000360000C00003008000000000000000000000000000000000100000600000000030100008001200006C00018080300000C8001000038FA0000000000E0428004006002008001300A16C122A3
:802F000058100360000C00003000000000000000000C000000000000000920000006010000002300000080450004A6C02898008B00002C8245000090FB100000800090000200006800012000048014100200400008000100000400000000000000000000000000000000200004880000000200000000010000048000100800400008008935
:802F800020000000E8FF000000000000400000006000000000300006012000000000000000000000000000000000001000000000000000040000000000000000000000000000000000002000000000000C0400000060F90000008001C000180000000000000000000081000000001800000000000000000000000000020000000000000042
:80300000800120800100000600000000030000000000804000000000000000400000A8FA0C00008000800841040000008C0400300412808800000B0900000000300900000000000000020000000000000000282090000000000000000001000000001684000000006041248411000080FD0400000026C408980400000420840530401448A8
:8030800080000010602480000000020000000000000008000000000000008909104016020018100000000C040000021042100000080022280880000090FE0000008007F0801E000018200FE0013D8001700000C00379000304003C20000000000000001000000000000000E8011D800700001E000000000F00000C8807700000C00079001C
:8031000003E0010000F0FC0C00000006C00018080000000C8001300004010000000360000C080030000000000000000000000000000000008001000806000018000000000C000030100600000000036000088001000040F80000000006C00419000010808C820188104000200000A360008C0000300A0000000000000000000000000000C4
:80318000008591000006000018000000000C0000B00046012400002364144088510000C0FA0000008014910812400008000120000480001000034000080000000004000000000000000006000000000000002000248AC010001A000000000100000480201000004000080001200000004CFF000000000640801804000000008001000000F1
:8032000000000000000000000000000000000000000000200000000000000010003000000000180000000000000000000001000000000000000000000060FD000000000080000000000000030000000000844000000018000000000000000000000000000200000000000000010000000402001800000000030000300004C080000003007E
:80328000000C0000000088FF0C00000042C1448808006021018021B01046800458040B090000000000000400000000000040000000000000000100104104000018000000000100000008040208000008618440020000004BFB1400000004820850041060842C8089300610401800090860800000008000000000000000000A0200000000C3
:8033000000000810210202C20440040000008C0100B00002C81800000B00224C0010000069F80800008001F04006C0007A000FE4013C800774001EC0037A000000000C1000000000000000220000000000000060000C9003F04006000000000F00003C8803F00000C0037A000F6280000040FF0800000004C18010000360200C800130201B
:80338000060100180483600000000030800200000000000000010000000000008201200800C00000000000000C0000300000C02000000362100C84810000D3FF0000000000E00000040361020C40843001460042180123600000000030410800000000000000040000000000008149000100C40000000000000C0000B01000C10200000B20
:8034000060042C8005000028FB00000080009000024000080001200004800090081A40206800000000340000000000000000040000000000000030000080040800020000000001000004804490000040000800012000000070FD000000000000400000000000000000000000C02000008060000000000000050000000000009402000000DB
:803480000000000A0000000600000000000000000000000006C12000000000000000000000E0FC0000000000C0000600000000000000008001008018040260000000003008000000000000000000000000000000800101000000000600000000030000300000000000000000000000400000A0FB0C000000468814020000000000808500F1
:803500008000400458008A6000000000B080080000000000000204000000000000010000001202000200000000010000000A22481400000B644100801100005AF81400000020C208181120600C0081313002268204000811010200000000100000000000000050000000000000008491000024000018100000008C100030094480480000D3
:80358000080102800108000070FD0800008007F0801EC0007A0003E0013C8807308006C00118100000000C00000000000000000200000000000000E00100800101001E000000000F00003C8001320000C003782003E081000028F80800000006C18018000360000C82013000068000000800000000000000800400000000000050020000CC
:80360000000000008401000004040018000000000C0000302004800000008360100C80410000A9F90000000016C00218004360000C80293000060022000190000000000000220100000000000002000000000000008645000010000018000000000C0000300140012000000B60014C81050000C8F900000080009008024000680041A001D9
:803680000080061000024002680000A00104000200000000000050020000000000002000048006100000000008000D00000480001000824000080089200000008CF80000000000408000000060000082010000060000000083600000800100000300000000000084010000000000000200000006000000000000200C00000000000000006C
:80370000100000000C0200000068FA000000000080000000030000088401000006C020000000610000800100000000000000000010000000000000008441000006300000000040200C000030100000001008000000000000010088FB0C00000046C844000020020048800100000600085804216000008001300900000000000000020000AE
:8037800000000000000210301206100000000040040C0000000100C002110000608424841100005BFE1400000020808000010B6102440200020010C12080000A000400001000810200000000000050010000000000008845001220C080000000202440000030112002020802100002280888000021FF0800008007F20006C803781007609A
:8038000000008001F0001EC88018100060403C10000000000000000000000000000000E0013C8001F10000000038000302003C8001F0800EC000792003E0010000E8F80800000006C1001800036000000000000000C020180402000000000030080000000000000020000000000000009001300800C0000000000040000000300806C120B1
:80388000000003601008804100003BFB0000000006E0009902237182004200000000C002180080000000000030000000000000000000000000000000008051300000C0000000000004000000B00046C00040088360002082010000C0F9000000800090001A4000480489201100802091021A40036800002000340000000000000000000035
:80390000000000000000A00104804400000040000000010000048000100002400300002120000400D8F90000000000004018000000200C0280000000C04000000360000000000000000000000000000000000000000000800100000604000000000000000000000000000000000000000002000000E0FC0000000000C00018008360200001
:803980008201000004000004040360000060000800000000000000000000000000000000800100000002000000000000030000000006020000C08000000808400000D8F800000000168284180008400184004900001448100201036000000000040A0000000000000010000000000000008801301222000000008B0000010000000040C0CC
:803A00000201000800002880110000A0FF0000000020C208400413648008840102001281401803080001008005B0100200000000000010010000000000000810801044020000000001002C000000012604000001230000240004300650FB0000008007F08006C003780003E001008003300004C080181000E001090005000000000000940F
:803A8000020000000000006A403C8001000000C00300000F04000C8807F080069000010007E4013D0038F90000000006C140000083600008804100000080001A0000000000800134080600000000000010030000000000000800300804000000008300000C0000300006C12018048300000080413000B0FB0000000026C0000000036010EA
:803B00008082110000100104412000000000800100020400000000000008020000000000000400300180000000001300000C0000300516C0041800000000008209300028FF0000000000000000000000000000000000000000001000000000000000200000000000000000000000000000000000000000000000000000000000000000001E
:803B8000000000000000000000000000CCF920000480001000024000080001200004800010000240000800012000040000000000000000020000000000000021000480001000024000080001200004800010000240000800012000040088FC0000000000000000000000000000000000000000000000000000000000000000000000000035
:803C0000000000000000000000000000000000000000000000000000000000000000000000000000000098FF2C0004800010000240000800012000048000100000400008000120000000000000000000000000000000000000200004800010000240000800012000048000100002400008000120000400C3FC140000000000000000000090
:803C800000000000000000000000080000000000000010000000000000000000000000000000000000000000000000000000000000000000000000001000000000000000C1FA280004800210000A4000080005200004800210000A4001280001A0001400000000000000000000000000000000A00004800250000A4000080005200004807D
:803D00000010000240010A00012000040008F8080000000000000000000000000000000000000000000000000000000000000000000000000000000000000000000000000000000000000000000000000000000000000000000000000000A3FC200004800010000240000800012000048000100002400008000120000400000000000000F8
:803D8000000000000000000000200004800010000240000800012000048000100002000008000120000400D8FF00000000000000000000010000000000000000000000000000000000000000000000000000000000000000800040000000000000000000000000000000000000000000000400000000000090FE0000000000008000000037
:803E0000000000000000000000000000000000000000000000000000000080000000000000004000000000000000000000000000000000000000000000000000000000000098FB00000000000000000000000000000000000000800000000000000000000000000000001000000000000000000000000000000000000000000000000080DF
:803E8000000000000100000000040000000000FA00000000040000000000000000000000008000100000020000000040000000000000000000000000001000000000000000000000000000000000000000000401000000000010000000000000F8000000000000002000000000000000000000000020000000001000000000000000000080
:803F00000000000000000000000000000000000000004000000000000000000000000000400000010002008004F900000000800000000000000008000000000000000000010000000000080000000000000000000000000000000000020000000000000000000000080000000000000000000000000000000098FC00000000000000020010
:803F800000000000000000000080000000000000080000000000000000000000000000000000000000000000000020000401001000000000000022000408000000008000000020FF000000000000000004000140044200040000010000000100000000000008000000000000000000000000000000000000080201000080004000000000D3
:80400000000002800008008008100020800000E0F800000000008022041000024001A8030400002400004000200A0600050020000000000000000000000000000000000000A600044000C800082068010500800032000608000A40006000010060F80000640084C01990006200001121200008260100102CE248A8840184020000000000ED
:80408000000000000000000000000000030001010000820001C0080C8201200490C1190004852012008021480058FD00000000004000000000000000000000200404000008000200040000000000000000000000000000000000000000000000000000008000000002020100000042000008012240000001000030F9060020000211200827
:804100000082000000080001000200001000812010000200000000000000000000000000000000000080000000000000000000201008400020208020200000000000008000018044FB000000000000000000040000000000000000100000000800000000000000000000000000000000000000000000000000000002000000000000000099
:804180000018000000000000000000000000000078FB000000000010000000000000000000000000000000000000000000002000000000000000000000000020000000000000000100000000000000000000000000000000004000000000000000F8FB00000000000000000000000000000000000000000000000040000000000000000070
:8042000000100000000000000408000000000080000002000000000000000000000000000000000000000000000020FC10000000000000000000000000000000000000000004000000000000000000020002000001000001000000001000000000000000000000000000000000008000000000000000000000000024FE00000000000000B8
:80428000000000000000000000000000000000000000000000000800000000000000000000000000000000000020000000000000000002000400000004000000000000000000000018F9000000000000404000008000010000000000000000000000000000000000000000000000000000000000000000000000000000000000002000005A
:804300000000080000000000000000000000000000A8F800000000000000000001000000000000000000000020000000000000000000000200000000000000000000000000000000000000000000000000000000000000000008000000000000000080FE1800000000000001000000000000000000020000000000000000000000000000D1
:804380000000000000000000100000000040000000000000000000000000000000000000000000000000080000000078FF00000000000000000000000000000080000000000000000000000000000008000000000000000000100000000000000000028000000000000000000000000000000000000000000000000088FC0001000000004F
:80440000000000000000002000000000000000000030000000000000000000000000000100000000000080000000000000000000000008000000000000000000000004000004000000B0FE0000000000001000000210000000000000000000000000000000000000000000000000000000000000000000000000000000000040000000004B
:80448000000000000000000000000000000000000000F8F8060000000000200000000000000000000000000000000000000000000000000000000000000000000000000000200000000000000000010000080000000000000000400000000000000000A0F80000000000200000000000000000000000000000000000000000000000000085
:80450000000000000000000000000000000000000000000000000000000001000000000000000000000000000000000088FC080000000000000000000400000040000000000000000000000100000000000000000000000000000000000000000000000000000000001000000000400000000000000000000000000000C0FF00000000005A
:804580000000000000200000000000000000000000000800000000000000000000000000000000000000000000000000000000000000000000000000000000000000000000000000000038FD00000000000000000000000000000000000000000000000000000000000000000000008000000000000000002000400000000000000000007E
:804600000000000000000000001000000000000020000070F800000000040000000000000002000000000000201200000000000000200000000000000000000000000000000000000000000000000000000000000000000000000000004000000000000098FC0000000000000002000000000000000000000000080000000000000000006C
:8046800000000000000000000000000000000000000000000000000000000000000000000020000400000000000000010078FC00000000000000000000000004000000000040000000000000000000002000000000000000000000000000000000001000800000000000000000000000000200000800010000000000000030F90A000000EF
:80470000000001000000000000000000000000000000000000000000000000000000000000000000000000200000040000000000000000000000000000000000100000000000000000000090FB00000000000000004080800008000240200000004000000000000000C000000000400000000000000020000000000020000004000000004B
:804780000000000000000000800000400000001000000000C0F8000000000008002000000000000000000000000000000004000000000000004000000000000000200000000000000000000000000000000000000000040000000000000000800000000000D8FD10000000000000000000000000000000000000000000020000000000102A
:804800000000000000080000000000000000000000000000000000000000000000000000000010000000040000000001010010F800000000000000000400000000800000000001000000000000000000000000000000000000000000000000000000000000000000000080000000000000000010400200000000000200000032F80200008D
:8048800000000100000000001000200000000000200400011008014000041000000008044020000000000002001000400000822000000000220004400000000210000000002010010000000820F81A0000000040000400801000020000000002000000840000100080000000000000000000000000000000020000000000080000000004B8
:80490000000010000080100000022000000008000402000080B0FD000300000092150200000A20014000008000004004D00010700260000810000000100280100000000000030008008000201522200010001140024000050001248000000018200308050010A0FC002000088680000400B2000A0002B1020414011CB002C010088CA10021
:80498000000000000008044020000000000C0060104000200610403800284120020C8140200092C120080002C0100002412001B0FC00000020020000000080000000020000000004000000800000020001000000000008044020000000000400201000000000008010000001080008408000008140100800000010000200010090FE0080E6
:804A00000000812000000001001000402000100200200810000110010200000000000000000000000000000400200000002008000020000040000004020010000082000000012000008000100008FE1000000000000001000008000000000000000000000000000000000000100000000000000000000000000000000000000000000000A2
:804A80000000000000000000000000000000000000000000000044FB000000000000120000004080020001200000200004008000000000000020000000000000000000000000000000000008000000000000000000000000000001002000000000000100400000E8FA000000000100400000000000000000004000200000000000000000D1
:804B000000000000008000000000000000400010000000000000000000000000080000000000000000000400820000008000040028F8000000000000000400000000000000000000000000000000000000000000000000000000200000000000000000000000000400000000000000000000000000000000000000000000000000B8FF0252
:804B80000000000000010000000000000000000000080000000000000000000000040000000000000006000000000000004000000000000000000000000000000000000000000000000000000000C0FC000000000200000000000000000000000000000000000000000000000000080000000000000000000000000000000000000000009C
:804C0000000000000000000000000000000020002000008000000038FF000000000000000400000000000000000001000000000000000000000000000000000000000000000000020000200000000000000080000000004000000000000000000000000041000080D8F90000000000000000000000000000000000000000000000000000C4
:804C80000000000000000040000000000000000800000000000000000000000000000000000030800000000000800000001000000068FE00000000000000000000004000A000050000000204000000000000000C0000000001000000000000000000000000010000010000000000000000000004040000000004000000000000000038FF89
:804D000000000000000000000000004020000010000080000000000000000100100080000000000000004000800000000000000000000000000000800000000000000200000000020000000000000088FC000000000040820000000000000000000000000000000000000000000000000000002000000000000002010000000040000000C5
:804D8000000000000000000000000008000000000000000000000000A8FE0000000000A000000000000000000000000000000000000000000000000000000008020000000000000000080000000000000000000000000000000000000000000000000000000000000090FFA0013400000000000000680000000000000000001A000000006D
:804E000000000000000000000000000000000000000000000000000000000000000008000020000000000000024000000C200830004130FA8001300000000000000060000000000000000000180000000000000000000000000000000000000000000000000000000000000000000000000000000000000000000000080000200000007830
:804E8000F8E0013000000000000000780000000000000000001C000000000000000000000000000000000000000000000000000000000000000000000000000000000000000000000058000B60012C00F0FCA0013000000000000000600000000000000000001A0000000000000000000000000000000000000000000000000000000000EE
:804F00000000000000600A008029000000000058085320000480001000E0FA000080000000000000006000000000000000000000000000000000000000000000000000000000000000000000000000000000000000000020000008020000000000081054000A40012800B8F860400C1000000000000070000000000000000000060400000E
:804F800000000000000000000000000000000000000000000000000000000000000000780000E00100000000001EC0034000080001200020FC000030080000000000006000000000000000000000000000000000000000000000000000000000000000000000000000000000000000006010008001000000000018000350200A400129006A
:8050000018FE2000B000000000000000600000000000000000000000000000000000000000000000000000000000000000000000000000000000000000600200804900000000009804932000048008100048F800000000000000000000000000000000000000001A000000000000000000000000000000000000000000000000200000005A
:8050800000000000000000000020000000000000024020010C2008300041E4F8000000000000000000000000000000000000000018000000000000000000000000000000000C0000000000000006000000000000000000000000000000000000000000000800002000000070FE00000000000000000000000000000000000000001E0000CE
:8051000000000000000000000000000000000800000000000000040001000000000000000000000000000000000000000158000B6001280010F800000000000000000000000000000000000000001A0000000000000000000000000000000000000000000000008001000000000000000000000080290000000000580808240004800014C5
:8051800000CBF8000000000000000000000000000000000000000000010000000000000000000000000000000000000000000000008000000000000000000000000008000000000000090350000A4001280039FD000000000000000000000000000000000000000006040000000000000000000000000000000000000000000000E0010073
:8052000000000000000000000000E00101000000001EC08340000800012000A0F8000000000000000000000000000000000000000000000000000000000000000000000000000000000000000000800100000000000000000000008001000000000018000350000A4001280083FF0000000000000000000000000000000000000000020086
:805280000000000000000000000000000000000000000000000000804100000000000000000000008041000000000018041321810480001100A8FE0000000000000000000000000000000000000000122000000000000000000000000000000000000000000000002000000000000000000000000020000000001000020021000C20083017
:80530000004140FD00000000000000000000000000000000000000000800000000000000000000000000000000000000000000000000000000000000000000000000000000000000000000810800002000000090FC000000000000000000000000000000000000000010100000000000000000000000000000000000000000000000000052
:8053800001000000000000000000000000000000008000C00358000B60012800E0FE0C0000000000000000000000000000000000000018010000000000000000000000000000000000000000000000800100000000000000000000008029000000C0085808002000048000140000FE1400000000000000000000000000000000000000500E
:80540000100000000000000000000000000000000000000000000000000802000000000000000000000080000000004080800250000A4001280080F808000000000000000000000000000000000000001E000000000000000000000000000000000000000000000000E0010000000000000000000000E001000000F0001E080240000800CD
:8054800001200048FD080000000000000000000000000000000000000018000000000000000000000000000000000000000000000000800100000000000000000000008001000000C00018800250400A4001290038FD00000000000000000000000000000000000000005C08000000000000000000000000000000000000000000000080AD
:805500004500000000000000000000008045000000C0225804012001048004100020FD0000340000000000000000000000000000000000921000000000000000000000000000000000000000000000002000000000000000000008000020000000001000020020000C200830004130FF0000300000000000000000000000000000000000B8
:805580000000000000000000000000000000000000000000000000000000000000000000000000000000000000000000000000800800002000000010FE000038000000000000000000000000000000000018000000000000000000000000000000000000000000000000000001000000000000000000000000000000008000C00258000BFF
:8056000060012800F0FC0C003400000000000000000000000000000000001004000000000000000000000000000000000000000000000080010000000000000000600A008029000000C008182101200004800014004AF814000001000000000000000000000000000000001820000000000000000000000000000000000000000000000084
:80568000000800000000000000000020000000020000000280800250000A40012800E8FB08000C08000000000000000000000000000000001E000000000000000000000000000000000000000000000000E0010100000000000000780000E001000000F0801E08024000080001200060FA08000000000000000000000000000000000000FE
:805700000018000000000000000000000000000000000000000000000000800100000000000000006010008001000000C00018800250400A4001290049FB000004000000000000000000000000000000000058200000000000000000000000000000000000000000000000805100000000000000006002008051000000C028180501200057
:805780000480001000D0FD00003400000000000000000000000034000000001220000000000000000000000000000000000000000000000020000080000000000000080000A0000000001000020220000C200830204134FF0000300000000000000000000000003000000000080000000000000000000000000000000000000000000000D2
:8058000000000000000000000000000000008040000000000000008008000020001000B8FB000038000000000000000000000000380000000010100000000000000000000000000000000000000000000000000001000000000000000000004000000000000010D00258000B6001280000F90C0034000000000000000000000000340000F1
:8058800000001801000000000000000000000000000000000000000000000080010000000000000000600A002004020000001400010120000480001400F9FC14000009000000000000000000000000090000005000000000000000000000000000000000000000000000000000100200C000000000000002000000000000000098880250FF
:80590000000A40012800A1F908000C0000000000000000000000000C000000001E100000000000000000000000000000000000000000000000E0010080010000000000784000408000000030801E00024000080001280050F90800000000000000000000000000000000000000180000000000000000000000000000000000000000000048
:805980000000804100000601000000006010000001000000004018800250200A4081280053FE00000000000000000000000000000004000000001C110000000000000000000000000000000000000000000000801100001600000000006004000041000000C0021805012002048004200070FB000004000000000000000000000000040046
:805A00000000009210000000000000000000000000000000000000000000000020000080060000000000080001A0040000005002880420000C200830140800F800000000000000000000000000000000000000000000000000000000000000000000000000000000000000000000000000060000000000000000804000000040200A00800B
:805A800008000020001000C8FC00000020000000000000000000000000200000001808000000000000000000000000000000000000000000000000000100070000000000000000400000000030001EC00258000B60010C00C0F90C0030010000000000000000000000300100000010010000000000000000000000000000000000000000EA
:805B000000000080010080060000000000600A0C289000000000480000012000048000000AA8FD140000110000000000000000000000000100000018200000000000000000000000000000000000000000000000009000000600000000000080200004000000004814800250000A4001000998F808003C0000000000000000000000003C2A
:805B8000100000001E000000000000000000000000000000000000000000000000E001000007000000000078000F4880000000200010000240000800010800C8FC0800300800000000000000000000003008000000180000000000000000000000000000000000000000000000008041008006000000000060100C0201000000800014808F
:805C00000250000A4001200020FC0000B0000000000000000000000000B000000000180200000000000000000000000000000000000000000000008005008006000000000060012C005100000090284804012024048088A010B8F9A00124820600001A40006800000000048006D00012200000000D00003400000000000000000000000056
:805C8000000000002000348000000000000008008528900000001000800420000C200830142114F8800110100600001800006000000000000006C00008000000000C0000300000000000000000000000000000000000003000000000000000000004000000000000000200800800002000100090FDE00120200700001E00007A00000000CE
:805D000000A007F00010100000000F0000380000000000000000000000000000000000003D000004000000000000036080000000000016C00258000B60010C00C8FEAC0130820600001A00136800000000308106D00018010000000D0000340000000000000000000000000000000080013400060000000000600A800804000000000008FF
:805D8000000120000480000008F1FC14502010400100000510001400000000124001281000000000800200000A0000000000000000000000000000000088000A2002000000000022000844000000C00415800250000A4001800029FE68003C8001000006C0031A000000003C800130001E040000000300000C00000000000000000000000F
:805E00000000000000E0010C800700000000007800024000000000F00010000240000800010808B0F8080030000000000000830000000000300800000018080000000000000000000000000000000000000000000000804100000601000000006010080040000000002014800250400A4001202083FE0000388A000000000003080000003F
:805E80000030000000005C00000000000000040000000000000000000000000000000080010000060000000000600088101100000000040804012002048080A00050FA000004A10600001A400068000D0000348006D00092100000000000003400000000000000000000000000000000200034800600000200000800012000000000D000B2
:805F0000800420000C2008310400A8FF0000100006000018000060000C0000300006C00000000000000000003000000000000000000000000000000000000030000600000000000000000000000000C000020080080000A000000068FF000010800700001C000072000F00003C0007E00018080000000000003C0000000000000000000073
:805F8000000000000000000038800700000010000000000000000000F00016C00258000B6001000018FB0C0030890600001A001368000D0000348006D0009000000000000000340000000000000000100000000000000088293480060000580000600A4C8129000000D00008000120000480003005F0F9140030020001000004100110003E
:806000000200000800012018200000000000000008020000000000000001000000000000008800080600004000000020400008010000C00014800250000A40010012A0F908003C9001000006C00318000300000C800130001E000000000000000C00040000000000001002000000000000E8010C000700001E100078000FE401000000E0AB
:806080000010000240000840013C0020FD0800300800000000008300000000000000000000180000000000000000800400000000000050020000000000008841000006000018040060100C8241000000C00014800250000A4001300818FA00003002000000020013000000000000800010001808000000000000000004000000000000009B
:80610000020000000000008009040006000098000060024C8009000000C0008804012044040091300148FB00000000000000000000000000000000000000000000000000000000000004000000000000000200000000000000000000000100000000000000000000000000008000000008000020000048FB000000000010000040000000BF
:8061800001200000000000000040000800012000000000000000000000000000000000000020000080001000024000080001200004800050000250000800012000040098FD004000080000000008000010000000000000000000000000000000000000000000000000000000000000000000000000000000000000000000000000000000B2
:8062000000000000000000000000000050FA2C000482A0100002410008020120008490801048824400080001200084100000000000000000000000000000002000042200120002400008000120000480001000024000080001200004006BFA1400000000000000000000210000000000000000000000000000000000000000000000000035
:806280000000000000000000000000002001000000000000400488000000008800001001224004880011EDFC08000000001000004000000000200000000000000040000800002000000000000000000000000000000000000020000080021000024000080005A00004800000000A5001280005A0001400A2FF0880000000010000040000C1
:8063000000000400000800012000080000000000000008000000000000000000000000000000000000080000000000000000000000000000002000000000000000000000F2F820080489001000824000000A4120000482201004424000080001240004000000000000000000000000000000002000048100100002400008000120000480CB
:8063800000100802400008000120000400B0FF00000000000000000000000000000000000000000800000000000000000000000000000000000000000000000000000000000000000000000020000000000000000000000000000002000018FD00000000000000000000000000000000000000000000000000000000000000000000000028
:8064000000000000000000000000000000000000000000000000000000000000000000000000000000000098FF00000000000000000000000000000000000000000000000000000000000000000000000000000000000000000000000000000000000000000000000000000000000000000000000000000098FF00000000000000000000EE
:80648000000000000000000000000000000000000000000000000000000000000000000000000000000000000000000000000000000000000000000000000000000000000098FF0000000000000000000000000000000000000000000000000000000000000000000000000000000000000000000000000000000000000000000000000005
:80650000000000000000000000000000000098FF00000000000000000000000000000000000000000000000000000000000000000000000000000000000000000000000000000000000000000000100000000000000000000000000000000088FE0000000000000000000000000000000000000000000000080000002000000000000000C6
:8065800000000000000000000000800000000000000000000010000000000000000000000000000000000000B8FE00000000000000000000101008010000000000000000000000000000000000000000000000000000000000000000000000000000000000000000000000000000000000000010040000000810FA00400000000000300096
:80660000000840810900000600000050206010000000800000000000000000000000000000000000400000000C80010003000020000000600000000000000A4041410145002020FA0208600000000000000000000800000000000000000C0020100000000000000000000000000000000000000000804000000000000000002000000000B8
:80668000000080000000430008480122002100F4FC0E000000000000000000000000000000000000000004000840000000000000000000000000000000000000000080400000000000000000200000000000000000000000000000000200008038FB0200100000000000000000000200000000000000000000000000000000000000000050
:806700000000000000000000000000000000000000000000000000000000000080000000040000100000002080ACFC00000000000000000000000000000000000000000000000000000000000000000000000000000000000000000000000000000000000000000000000000000000000000000000000000000098FF0000000000000000A6
:8067800000000000000000000000000000000000000000000000000000000000000000000000000000000000000000000000000000000002000000000000000000000000000000B8FF0000000000000000000000000000000000000000000000000010000000000000000000000000000000000000000000000000000000000000000002CE
:806800000000000000000000000000000000000088FC100000000000000000000000000000000000000000000000000000000000000000000000000000000000000000000000000000000000000000000000000000000000000000000000000000CCFB000080000000000000080000000000800000000000000000000000000000000000B5
:8068800000000000000000000000000000000000000000000000000000000000000000000000000000000000000098FF000000000000000000000000000000000000000000000000000000000000000000000000000000000000000000000000000000000000000000000000000000000000000000000000040000D8FB000000000000002A
:80690000000000000000000000000000000000000000000000000000000000000000000000000000000000000000000000000000000000000000000000000000000000008100000000FF180000000000000000000000000000000000000000000000000000000000000000000000000000000000000000000000000000000000000000007F
:80698000000000000000000000000000000002004082FB00000000000000000000000000000000000000000000000000000000000000000000000000000000000000000000000000000000000000000000000000000000000000000008000000000090FF080000000000000000000000000000200000000000000000000000000000000019
:806A000000000000000000000000000000000000000000000000000000000000000000000000000010000000000000B0FE00000000000000000000000000000000000000000000000000000000000000000000000000000000000000000000000000000000000000000000000000000000000000000000000000008010FF000000000000C9
:806A800000000000000000000000000000000000000000000000000000000000000000000000000000000000000000000000000000000000000000000000000000000000000000000098FF0400000000000000000000000000000000000000000000000000000000000000000000000000000000000000000000008000000000000000007B
:806B000000000000000000000000000000000000000058FB00000000000000000000000000000000000000000000000000000000000000000000000000000000000000000000000000000000000000000000000000000000000000000000000000000098FF000000000000000000000000000000000000000000000000000000000000002B
:806B8000000000000000000000000000000000000000000000000000000000000000000000000000000000000000000098FF00000000000000000000000000000000000000000000000000000000000000000000000000000000000000000000000000000000000000000000000000000000100000000001000000000098FF000000000056
:806C000000000000000000000000200000000000000000000000000000000000000000000000000000000000000000000000000000000000080000000000000010000000000000000000B0FE00000000000000000000000000000000000000000000000000000000000000000000000000000000000000000000000300000000000000002B
:806C800000048000020000000202000104000400001000B0FF000000000000000000802000000000000000000000000000000000000000000000000000000000000000000000004000000800000000000010000040020000000000000000000000000000D0FE00000000000000000000000000000000000000000004000000000000000036
:806D000000000000000000000000000000000000000000000000000000000000000000000010000008002000008000000048F900000000000000000000000000000000000000000002000000000000000000000000000000000000000000000000000000000000000000000000040100000000000000000081000000000478F806002000F8
:806D8000000000000000080000000000000000000000000000000000000000000000000000000000000000000000040000100000000000000000000000000000000000000000000000200040FC00000000000000000000000000000000000000002000000000000000000000000000000000000000000000000000000000000000000000FB
:806E00000040000000010000000000000000000000050000D8FD000000000000000000000000000000000000000000000000000000000000000000000000000000000000000000000000000000000004000000000201000000002000000000000000000000E8FF000000000000000800002000000000100000000000000000400000000071
:806E80000000000000000000000000000000000080400000020000000001201001000010000010000000010100000000000090F906000000010000040000002008040000000200000000020000000000000000000000000000000000000000000000000000000000000000400000800000000040000804000000040081100098FC0033A0B0
:806F000080000000060001D04001080008800C0000D04200002004000000000000000000000000000000000000004080A00001000000800018200620000800003000029050410B5921280505A8FC80000006828000220000E000080121100C90001810000200000000013000000000000000000000000000000000804000800401001002A0
:806F80000A081004820080000490400368406040082230005368FE400000000200000000002000000000100800000000000000000000001000000000000000000000000000000000804000000004000000000010042200000000000000000010000002000000B0FE0000000880200000000010000241200010000420044000000000200040
:80700000100000000000000000000000000000000000000080000000041002000000000000800040000000802000040040000028FC100000000000000000000000000000000000000000000000000000000000000000000000000000000000000000000000000000000000001000000000000000C000040000000000000000005CFA000068
:8070800010000000000000000000000000080000000000000000000000000000000000000000000000000000000000C0000000000000000000000000000000000000001400040000000000080098FB400040000000000000000000000000000000000004100000000000000000000000000000000000000000000000000000000000000071
:807100000000000000000000000000000004004400000080000008FB00000000000000000000000000000000000000000000000000000000000000000000000000000000000000000000000000000000000000000000000000000020400000000800002000000078F906000000000000000000000000000000000000000004000000000041
:8071800000000000000000000000000000000000000000000008000000000000000000000000000000000000000000000020008018FD00000000000000000001000000000000000000000000000000000000000000000000000000000000000000000000000000020000000000280000402000000000000060000000000000000000F800EF
:807200000000000000000000000000000000000000800000000000000000000000000000000000000000000000000000400000000000000002000000004000000000200000000008000020000000BAFB000000000000000000000000000000000000000000000000000000000000000000000000000000000000000000000000000000000F
:80728000000000000020000000000000000000000000000000008030FF00000000000000000000000000000000800000000220000000000000000000000000000000000000000000000000000000000000000000000000000000000000000000001010000000000080FE1000008400000008000000000000000000000000180200000000C9
:807300000000200000000000000000000000000000000020000000000000000000000001200000000000000880000000000000040410FD08000800000000000000000002000000000000000000000000000000000000000000000000000000000000000000000000000000000000000000800000000000000000000000000000000038FD48
:80738000000000000000000000000000000000000000000000000000000000000000000000000000000000000000000000000000000000000000000000000000000000000001020000000000000000A8FD0000008000100000400008000000000080000000000000000000200004000000000000000000000000000000002000048000D0F5
:8074000000004000000001000004804000001A40000000002000000048FF0000000000000000000000000000000000000000000000000000000000000000000000000000000000000000000000000000C00000000300000C0000000000010018000000000000000000F8FC00000000000000000000001000000000800100000000000000D9
:807480000000000D0000000000000000000000000000000040000C0001E00000C00300000C00000C8001000000C0000000006000000060FD0000000000000000000060040000000000000000000000000000801100000000000000000000000000000000002000008000D000000000000040040000000601000000000000000000000028A1
:80750000F80000000026C22800000B00800000000000260400000000000000008430090000000000000000000000000000008011B0000600020180010000400000300805000080001301000080010100D0F80000008007F00000C0037A000000000080070000000000000000E0013C00000000000000000000000000000000C08138100783
:80758000240000000200000D04003800040000029003000000C0010000B8FF0000000006C00000000360000000000000060000000000000000800130000000000000000000000000000000008001300006000000800200000C000030000400001800030000008001000080FB0000000006C00000000360120000000000060000000000005A
:80760000000080493000000000000000000000000000000000A00130800600000000010000000000300002000018000300000080010000D8FD0000008006100000400008000100000000000000000000000000000004000000000000000000000000000000002000008000D000004000000081000000801001001A000068000000000000EF
:8076800000FE0000000006C0000000000000000000000000000000000000000000000000000000000000000C000000000000000600000000C0000000000000080800000000000000000060000000000000F0FD00000000000040000000001000000000000000000000000000000000002000000000000000080000000000000044000000DB
