:020000040000FA
:80000000FFFF62FF3900FFFFFFFFFFFFFFFFFFFFFFFFFFFFFFFFFFFFFFFFFFFFFFFFFFFFFFFFFFFFFFFFFFFFFFFFFFFFFFFFFFFFFFFFFFFFFFFFFFFFFFFFFFFFFFFFFFFFFFFFFFFFFFFFFFFFFFFFFFFFFF800C9001324006C840110051200A4481A80255048A4011300245804C9001000000000000000000000000000000000C90013200C0
:8000800026C80419280245C00814A8225004401488320245A0089001C0FB0017E0025C800B70012A800A50012A4005B4800A50012A4005A8003FE0020000000000000000000000000000000012E0025C001DF0032E4005A80015A00554800AA002544005A80015E00298FF0000000000000000000000000000000000000000000000000033
:80010000000000000000000000000000000000000000000000000000000000000000000000000000000000000000000000000000000098FF0000000000000000000000000000000000000000000000000000000000000000000000000000000000000000000000000000000000000000000000000000000000000000000000000000009850
:80018000FF00012000048000100000000000000000000000000000000000008021200000000000000000000000000000000000002000050010108202000000000000000000000000000000000000200030FC1601800401001010000000000000000000000000000000000000008480040000000000000000004000000000000000C00010A1
:800200000020601000000000000000000000000000000000000000A080C5FD0000000000000002000008000000000400000000000000000000200000000000000000000000000000000000002000000000D0001A40000000010000008000000002400308040120000000D8FC000000000000001800000000000000000000000000000000B5
:800280000000000000000000000000000000000000000000008001000000C00018000000000C0000000000000000000300100000000000C8FD000000000000001E000058000000000000000000000000000000E0410000000000000000000000000000000000E001000000E0001CC00000000C0000008001000004000018000240000000A2
:80030000E8FF000000000000000000002000000000B008000000000000000000001000000000000000000000000000000000000000000000D0001A00000000001000000000000002000060100120000000A0FF000000000000000C00003000000000801000000000000000000080450000000000000000000000000000000000C000000031
:800380000000080109A30000000000000026020098000851000C8105000070FB0000000000000010000040000000003C00000000000000000000E00100000000000000000000000000000000000001000000200004800300000D040000000700001C440040000EC0810000E8FE0000000000000010000040000000003000000000000000B0
:80040000000000804100000000000000000000000000000000004001000000000000000300000C0000000006000018000340000C80010000E8FE000000000000000800002000000000300900000000000000000080090000000000000000000000000000000000800000000000000200030000000000000006000018000320000DA0010039
:800480000058FA0000000000000002000008000000000400001000004000000001200000000000000000000000000000000000002000000000D00052400000004100000000001000024003081401200000004CFD000000000000000000000000000000000000000000000000000000000000000000000000000C000000000000000600007B
:800500000000C0000808000000080400000000000000000000000000000000F8FD0000000000000016000058000000000000000020000000000000000001000000000000000008000000000000006401000000E0001880000000040000000000002004000018100240000000F0FD000000000000000800002000000000B00800C002000015
:800580000000000C810900000000000000000000000000000000008000000000D00088440000008C0800000000C0000200136A0001200000002BFB000000000000000C00003000000000001200001000000302000001840000000000000000000000000000000000C00000000000049800630000080000000000004218000350000C803116
:80060000000069FE0000000000000010000040000000003C0000F00000C00300000FE0010000000000000000000000000000000000000100000020801E84030000090000000000F0001C440040000EC201000068F9000000000000001000004000000000300000C00000000300000C800100000000000000000000000000000000004001C2
:8006800000000000001804030000040000000000C00018000040000C80010000A3F8000000000000000800002000000000300800C02000000300000C82410000000000000000000000000000000000800000000000009C40030000040000000000C0201A000320000CA001000028FA1000040000104402000008000D0000040000100000A3
:8007000000000000002000000000000000000000000000000000000020000000009020424400000001010000000010000240030800012000000020F80000000000000000000000000C000000000000000000000000000000000000000000000000000000000000000000000000004000000000000008000000000000000000000000000017
:80078000000000D8FF0000002000000016000058000F000000000000200000000000000000010000000000000000000000000000000060010000008080088400000004000000000000000600007000024000000020FD0C00300100404208000020000D0000000000C0020000000000008009000000000000000000000000000000000080DF
:8008000000000000C00400400000002C040000000000000000036C000120000000E0F9040000100080040C00003000400200000200000800000000000000900000000000000000000000000000000000C00000000080085800030100080000000000000818010350008C8001000040FC00003C0000704010000040000300000C1000F04037
:80088000000000000000E00100000000000000000000000000000000000001000000F0201E8803000009000000000030401C440020000EC2410000D8F80C00300000C0001000004000000000300000C000000000000000800100000000000000000000000000000000004001000000C0001804030000040000000000C02018000020000C7E
:800900008001000070FF0000B0080040400800002000010000300500C022000000000000804500000000000000000000000000000000008000000000E0249840030000040000000000C0041A000340000C8001000050FC0000041200101802000008000D00000400005008000000000000200000000000000000000000000000000000001C
:8009800020000400009080024400000021040000000000000240032800012000000004F90000000000000000000000000C000030000040200000000000000000000000000000000000000000000000000000000000000000000000000008000000000000001800004000000000000008FC0000001000000016000058000F00000000000040
:800A000000000000000000600000000000000000000000000000000000006001002000C000008400000004040000000000001E00003000034000000098FC0000900000400209000020000D00000041000080000000000000000000000000000000000000000000000000008000300200800401410000000C0000000000000002000B410089
:800A8000002000000033F90000A0080080420C00003000400000300800000400000000000000400000000000000000000000000000000000C000800000C020000523000008000000000000000C000330002C80110000A9FD00001C000070001000004000030200340000304000000000000060000000000000000000000000000000000071
:800B00000000013C2000F0000680830000090000000000000010400050000EC241000040FD0000300000C04010000040000000003000008000000000000000804100000000000000000000000000000000004001300000C0200004030000040000000000000010000020000C8001000093F800009008004000080000200000000000000093
:800B80008022000000000000800100000000000000000000000000000000008000300A00C0084800030000040000000000000008000340000C8001000088FD3000940000500802000008000D00000406001004000000000001208800000000000000000000000000000000002000000000D0001A40000000010400000000108842440368D2
:800C000000012000000034FC0000100800404000000000000000002000000040000000000000000000000000000000000000000000000000000000000000C0001800000000080000000000000000000060000000000000A8FD0000001000000016000058000000001020000000000000000000000000000000000000000000000000000098
:800C800000006001000000E0001C80000000040000000000000006040070000240000000E8FC0C0080000000420800002000400400B00000408000000000000C812000000000000000000000000000000000008000000000D0001A400000002C08000000000044580023690001200000002BFF840501120000440C000030008C0000000023
:800D000000800200000000008000050000000000000000000000000000000000C000000000000880000B0000080000000000808414000300014C8805000079FCE0010C0000300010000040000D0400040000702000000000000FE4400000000000000000000000000000000000000100000020400488830000090000000000300010400069
:800D800010100EC041000070F88C01200800800010000040000C0000000000C00000000000000C82010000000000000000000000000000000000400100000000000000030000040000000000000010000000000C800100002BFD8001A00000804808000020000C0000000000402000000000008C80400000000000000000000000000000A6
:800E0000000000800000000000000200030000040000000000004208000300000D80010000B8F80000040000504802000008004504000402001000004000000001201001000000000000000000000000000000002000000000100002400000004104000000001000024503080001200000009CFE00000000004000000000000008000020AB
:800E8000080000000000030000000000000000000000000000000000000000000000000000000000000000000008000000000000000000000000000000000030F80000002000000016000058000C000010000000000000000100000000000000000000000000000000000000000060010000000040048000000004080000000000200604B1
:800F0000001A000240000000F8F9080030010000020900002000080800302100000000000300000C818800000000000000000000000000000000008000000000C00202400000004C0000000000C0001A000B00000120000000FBFE000000040000180C000030000000000000000004000013010020080901000000000000000000000000D6
:800F800000000000C00000000000449820130000000000000000004814000360104C8209000041FC00003C000030001000004000010000040000308000C00300000FE00000000000000000000000000000000000000001000000F0001C80830000010000000000F00010400070000EC041000078F90400300800804010000040000000008F
:80100000000000C08000000300000C820100000000000000000000000000000000004001000000C0201800030000000000000000C02010000060000C8001000033FF0000B0000080020800002000000000000000C00000800801002C808400000000000000000000000000000000008000000000C0021A00030000000000000000C0020857
:80108000000368000C8001000078FA3000040000100002000008008510000400001000024000000001A0100000000000000000000000000000000000200000800010001A400068008128000480001000024403680001200000005CFE00000000000000000000000008000020080000000000000000008040000000000000000000000000D1
:80110000000000000000000000000000180000600008000000000000000000006000000000000000FE0000002000300016000058000C0400000000300006000000000000000000000000000000000000000000000000600100000004201C800078000468000C800100000604006000036000000058FC0C003001000000080000200048002D
:8011800000202200000000000B01000C012000000000000000000000000000000000008000000046C0021A400060002C000000000000009A004360000000000000A3FE840581000000220C00003000000000000000000418022301004004880000000000000000000000000000000000C00000002002021800930044088021B01046020826
:8012000014000300010C82450000F1F9E0013C2000300010000040000100000C000030201CC00300000F600000000000000000000000000000000000000001008007F0201C8003100009C001380007304010400018100EC0010000A8FB8C01300800C0201000004000000000000000C04018000302000C0201000000000000000000000066
:801280000000000000004001000006C1001800030000048001300006C02010000000000C8001000083FB8001300000C0080800002000000000000000C00018001300000C004500000000000000000000000000000000008000000006C0481800030000048001300006C00808000300000C80010000C0FB0000040000100002000048004D0E
:8013000000000400001000004000000001A00404000000000000000000000000000000002001000000100002400008008D2000040000108802420308000120003400A0FA00000000000000000000200000040000000000000000000000008080000000000000000000000000000000000080000000000000000000000004080000000000BE
:801380000000000001000000003000D8FE0000002000F00016000058000E0200000000F00000000000000000000C000000000000000000000000000000006001000000004000C00018000C60000C0000000006C08310000260003C00A8F9000030010000220800002000410000B00800002800000000000C01880000000000000000001092
:80140000000000000000008800000000C002982000000004010000000000429A4210080001000030009AFF0000001100C0040C00003000040000800000C02400000302000004103110020000000000000001000000000000C000000000004840088B6040048001300600800014000160122C8249000688FD00003C0000F020100000500024
:801480000B00003C2000F00000C00300000F600038000400000000000010020000000000004801000000F0001E8003700007C081380000304010800270000EC0010C00C0FF0000300800C0201000002000040000300800C04000000300000C02013180040000000000005002000000000000C800000000C0201804036000048001300000C6
:80150000008010000160000C80010000C9F80000300100C0020800004000090000300100C00200000300004C001130000400000000000000020000000000000001000000C0049800036000048001300000000808000268000C8001000060F81000000000000000000000000000000000000000000000000000000000000400000000000077
:801580000002000000000000000000000000000800000000000000000000000008000020000000000000A4FD20000480001000024000080001200004800010000240000800012000040000000000000000000000000000000020000480001000000000080001200004800010000040000000000000040038FA00000000000000000000000F
:801600000000000000000000000000000000000000000000000000000000000000000000000000000000000000000000000000000000000000000000000000000000000098FF2C0004800010000240000800813000048000100002400008000120000400000000000000000000000000000000200004800010000240000900012000048071
:8016800000100002400008000124800400B3F8040000000000000000000000000000000000000008080000000000001040000000000000000000000000000000808000000040400008012420008080101002020000080101200484800000D9F820000480001000005000004000200004800010000040000800012000000000000000000083
:8017000000000000000000000000000480000000000000000001000000000010000000000000000000040000FF0C0000000000000000000000000000000000000000000000000000000000000000000000000000000000000000000000000000000000000000000000000000000000000000000000000000E3F820000480001008035100DA
:80178000084421220004800010080340000800012080040000000000000000000000000000000020000480001000824400080001200004800010000248000820012000041098F80000000000000000000000000000000000004000000000000000000008000000000000000000000000000000000000000000000100000000000000000017
:80180000000000000000020000000000000040FC00000000000000000000000000000000000000000000000000000000000000000000000000000000000000000000000000000000000000000001000000000000000000000000000000000088FE0000000000000000000000000000000000000000000000000000000000000000000000A3
:8018800000000000000000000000000000000040000010000000000000040000000000000000000000000000D8FE00000000000000000800002000000000000000000000000000000000000000000000000000000000000000000000000000000000000000000000000000000000000000000000000000000018FD00000000000000000081
:8019000000000000000000000000000000000000000000000000000000000000000000000000000000000000000000000004000008000000000000002000008000100002000068FA020000000000000000000000000000000000000000000000000000000000000000000000000000000000000000000000000000800000000000000002C3
:8019800000000000000000000000000000000018FD00000000000000000000000004000010000000000000000000000000000000000000000000000000000000000000000000000000000000000000000000000000000800800000000000000040FB200000000000000804002010000000200000000002100000000000400000000000002D
:801A0000000000000000000000000000400008000000000080000004020000000001000000010210000200000088FE2800000000000002100008400200000C00000000021000000000000001000000000000000000000000000000000000012000000000000002000108000000140400044000034A400900000040FF0000200004000010C8
:801A8000020140080100402000000000000080000000010100000000000000000000000000000000000001040700000000040000000801000000500A0012028300004800000000D0FD000000000000000080000000000080000000000000008000000000000000000000000000000000000000000000000000000000000004000000000015
:801B00000000000000000040800000000000000098FF0000108000000008040020100000001000000000000000000000820000000000000000000000000000000000008000000800000000000000000402000000000000020201000004000000805DF900000000000000000000000008040000000000000000000000000000000000000037
:801B8000000000000000000000000000000000000000000000000000040000000000000000000000000000000000D0FF000000000000000000000000000000000000000000000000000000000000000000000000000000000000000000000000000000000000000000000000000000000000000002000000000000B8FF0000000000000059
:801C0000000000000000000000000000000000000000000000000000000000000000000000000000000000000000000000000000000100000000000000000000000000000000000088FF10000000000000000000000000000000000000000000000000000000000000000000000000000000000000000000000000000000000000000000CC
:801C80000000000000000000000400000000000000CCFF000000000000000000000000000000400000006000000000000000000000000000000000000000000000000000000000000000000000000000000000000000000100000000000020000000B8FA000000000020000000000000000000000000000000000000000000000000000082
:801D00000000000000000000000000000000000000000000000000000100000000000000000000000000000000000088FD00200000000000000000000000000000000080000400000000000000002000000000000000000000000000000040000000002020040000120000400008000100000480001000024000000090F90000000000C01B
:801D800000000000000000000000000000000000000000000000000000000000000000000000000000000000000000000000000000000000000000000000000200000000010000000030FA00000000000000000000000000000000000000000000000000010000000000000000000000000000000000000000000000008000000000000035
:801E000000000000000000000000000000000000008098FE00000000000000000000000000000000000000000000010000000000000000000000000000000000000000000000000000000000000000000000000000000000000000000000000000000098FE00000000000000010000000000000000000000000000080000000000000000AC
:801E8000000000000000000000000000000000000000000000000000000000000000000000000000000000000000000010FE000008000000000000000000000000000000000000000000000000000000000000000000000000000000000000000000000000000000000000100800000000000000000000000000000000C4FB0000100000E5
:801F00001000000000000000000000000000000000000000000000000000000000000000000000000000000000000000000000000000000000000000000000000000000000000000000089FE0000000000000000000000000400000000000000000000000000000000000000000000000000000000000000000000000000000000000000C6
:801F800000000000000000000000000000000000000000D8FB00008000000000000000000000000000000000000000000000000004000000000000000000000000000000000000000000000000000000000000000000000000000000000000000000000050FB0000000000000000000000000000000000000000000000000000002100001E
:80200000000000000000000000000000000000000000048000000000000000000000000000000000000000000000000000E0FA000000000000000000000000100000000000000000000000000000000000000000000000000000000000000000000000000000000000000000020000000000000000400000000000000000E8FD00000000CB
:80208000000000000000000000080000000000000000000000000000000000000000000000000000000000000000000000000000002000000000000000000200000000000000000000000030FD00000000000000000000000000000010080000000000000000008000000000000000000000000000000000000000000000000000080000E9
:80210000000021040000000040000000000000000000000070FA00000008000000000000000000000000080000020080000000000000000000000000000000000000000000000000000008000000000000000000000000000000110000020000000000000080FF0000000000800100040000100000000000000000000000000000010000CE
:802180000000000000000000000000000000000000000000000000000000000000000000000000000000000000000000000050FF00000400000000000000000000000000000000000000000000000000000000000000000000000000000000000000000000000000040000000004000000000000000000000000000000000098FF080000E5
:8022000000000000000000000000000000000000000000000000000000000000000000000000000000000000000000000000000000100000000000000000000000000000000000000000040080FA0000100000000000000000000000000000000000000000000004000000000000000000000000000000000000000000000002400000007A
:802280000000000202000000000000000000000000000000009AFE00001000000000000001000000000000000000000000002000000200000000000000000000000000000000000000000000000000000000200000020000000040000800010000000000000048FC08400008022000080400201000020000000040000880000000014000A7
:802300000000000000000000000000000000000000800000000000000000000000048000100002000000048020000000000000C0FD000009A000100002900008400008000000001000024000100001240000000000000000000000000000000000002000000014400000000010000124000480002100D492000A80000000000020FE002048
:80238000102294C0001002086008448040000000802030290040010C0200200800000000000000000000000000000000416000004000080002200008000120042420400D16420029800901040698FA00001000002000000000100002402000000000200000000000040200000400000000000000000000000000000000400000004000089D
:802400000000200000000000000000000804000000000000000080F9000001008140000404002040000000000000400008000010000200001000000000000000000000000000000000800010000000000000010000048000101001000000108100100082000008D8FE100000000000000000000000020000000000000000000000000000DA
:80248000020000000000000000000000000000000000000000000000000000000000000000000000000000004100000000004000CCFA000000000000000100000000101000081000000003000200000040000000000000000000000000000000000000000000000020000000000000200000000000A0000000000000000000000030FA000B
:80250000000800004000000000000000000000000000010000000000122000000000000000000000000000000000000000000000000002000000000000010000000000000000000000000000000028F800000000000000000000000000000000000000000000000000000000000000000000000000000000000000000000000000000000BD
:80258000100000000000000000000100000000000000000100000088FE00000000000000000000000000000000040000000000000000000000000000000000000000000000000000000000000000000000000000000000020010000000000000000000000000000088F90000000000000000000000000000000400000000000000000000A8
:802600008000000000000000000000000000000000000000000000000000000000000000000000000000000000000100000000000040FB02000000000000000000000000000000200000000000000000000000000000000000000000000000000000000000000000000000004000000000000000000000000000000000000000000098FBA9
:80268000000000000000000000000000000000000000200000000000000000000000000000000000000000000000000000000000000000000000000000000000000000000200000000000000000000B8FD000000000000000000000000000000040000000000000000000000000000000000000000000000000000000000000000000000FF
:8027000080008000000000000000000000000000000000000000008058FB00000000000000000000000000000000000010000000000000010000000000000000000000000000000000000000000000000000000000000000000000000000000000000000000001000098FF00000000000000000000000000000000000000000000000000DD
:80278000000000000000000000000000000000000000000000000000000000000000000000000000000000000000000000000000000098FF0000000000000000000000000000000000000000000000000000000600000000000000000000000000000000000000000000000000000000000820000000000000000000000000000000009480
:80280000FF000000000090480200000800000000340000000002000000000120000000000000000000000000000000000000000000000000000040000000000000000000000002400000000100000000E0FE00000000004000000000000000000030000000000000000000000000000000000000000000000000000000000000000000004F
:8028800000000000000000000000000000000000000000000000000000A8FB0000000000800000040000000000003C000000000000000000000000000000000000000000000000000000000000000000000000000080000000000000000000000000000000000200000088FB0000000000C0425800000000000000300000000000000000E6
:80290000002C02000000000000000000000000000000000000000000000000000000230000000000000000000000000000008C0000000080FD000000000080000010006002000000300000000098000000004000080000000000000000000000000000000000000000000000000000080000000000000000000098001001008004000000C6
:8029800068FD0000000000F0401E0000781000000038000000001E100000000F684000000000000000000000000000000000000000000000000000C003020000000000000000001EC80000000F00000000A8FA0000000000C0001800006000000000300000000018000000000C800100000000000000000000000000000000000000000016
:802A00000000000000030000000000000000000018000300000C0000000070FD0000000000E0029904006000000000300000000018000000004C82450000000000000000000000000000000000000000000000000000930000000000000000000018004300004C02000000C8FC000000000090020200006800000000000000000000000089
:802A80000000012000044200000000000000000000000000000000000000001000000000000001A001000000000000400000000100000000D4FC000000000000400000006000000000000000000000000000000000000000000000000000000C00000000000000060000000000000000000000008001000000000000000000000000000079
:802B00000048FB0000000000C000000000002000000000000000000000000000000000000000000000000000080000000000000004000000000000000000000000884100000000000000000000000200000068F9000000000080221810006000000000000000000000000000002C820502100000000000000000000000000000000000000B
:802B80000000000000000000000C8011000000000000000000008C000000005BF90000000000C04800100060020000000000000000000000000000040000210000000000000000000000000000000000000000C0020000000000408051000000000000002000004010000000C9FB0000000000F0001E00001820000000000000000000006C
:802C00000000000FE0010D000000000000000000000000000000000000000000F04000000000000FE801000000000000C00001000F0000000090F80000000000C0201800006000000000000000000000000000000C800100000000000000000000000000000000000000000000C00000000000000C0000000000000000000301000C000016
:802C80000000B3FD0000000000C0041804001021000000000000000000000000000C824110410000000000000000000000000000000000000000C00000000000000C8201010000000000000300000C0200000098F9100000000010000200000800000000040000000042440000000120080400000000000000000000000000000000000020
:802D00000000000000004000000000A00100000000000040000000000000000010F9000000000000000000006000000000000000000000000000000000000100000000000000000000000000000000000000000000000000000000000000000000000000000000000000000000F8F800000000000000000400000000000000000000001EB6
:802D800010000000000081000800000000000000000000000000000000000000000000000080000000808100000000000000000200000000000008FF0C00000000C0825800000021000000000000000000000000000000093001000000000000000000000000000000000000000000000000230000008005000000000000001300000000F4
:802E000000000050F904000000000042000800602400000030400000000804430000409000021200000000000000000000000000000000000000000000000000010000009000000000000000000100000000000098FC0000000000F0001E000078000000003C0000000014C003000003E0003C0000000000000000000000000000000000B6
:802E800000000000000000C0030000006000000000000000C00300000000000000A0FE0C00000000C0001800006000000000300000000018040300000C00003000000000000000000000000000000000000000000000000000030000008001000000000000000300000000000000C0F90000000000C0005904006020000000300000000072
:802F000018000300008C0420B0080000000000000000000000000000000000000000000000008B0000000044000000000000008B0000000000000078FA00000000001000020000080000000000000000000200000000012010340000000000000000000000000000000000000400000000000000000000200000000000000040000000011C
:802F80000000000030FB0000000000C000000000600000000000000000000000000000000000010000000000000000000000000000000000000000000000000000000000000000000000000000000000000000000070FC00000000000040000400002000000000000000000000000000000001310000000000000000000000000000000083
:8030000000000000000000000000000000000000000000000000000000000200000098FE0C00000000C0085800006004000000000000000000000000002C0209300A000000000000000000000000000000000000000000000000000000000000000000000000000000008C0000000028FC0400000000C02280080060040000000000000035
:80308000008020000000808490801000000000000000000000000000000000003021000000000000000000801100000000000000000000000400000060F90000000000F0001E00007810000000000000000006000000000FE0000C0000000000000000000000000000000000003C00000000000000000000E001010000000000C000020056
:803100000F0000000058FF0C00000000C0001800006000000000000000000018100000000C00000000000000000000000000000000000000000030000000000000000000000040000000000000000300000C0000000030FD000000000020401805001042000000000000000018010000008C0240801000000000000000000000000000007F
:8031800000000030000000000000000000000010000000000000009300008C02000000E0F8000000000090080A010048000020000000000000020000000001203104000000000000000000000000000000000000000000000000400000000020000000000000004000000001000000004CFF000000000000400804000040000000000000BB
:8032000000000000000000008001000000000000000000000000000000000000000000000000000000000000000000000000000000000000000000000088FA0000000000C0000600006040000000000000000000000000000000000008000000000000000000000000000000000000000000000000000000000000010000000000000000DC
:80328000000000000000E0FE0C0000000080248002004000000000000000000018050000002C82083201000000000000000000000000000000000000000000000000000000008005000000000000002304000000000000A3FA0400000000C044800000602200800900000000000009000000400481001100000000000000000000000000BD
:803300000000000000000000000000200000000080000000000000000001008000000000B9FB1800000000F000041000780000E08100000000001E000000000F60003C000000000000000000000000000000000000000000000000C000010000E001000000000000C00300000304000000A0F80800000000C00010040060100080010000E9
:8033800000000018040000000C02013008000000000000000000000000000000000000000000000000030100008041000000000000008300000C0000000063FC0000000000C0849000006000008001000000000018010000008C00103102000000000000000000000000000000000000000000000000230000008011000000000000002343
:8034000000004C0400000000FD0000000000D000020000080000000000000000001A00000000012011340000000000000000000000000000000000000000000000000000000000A001000000000000400008000100000000F0FF0000000000C00000000000000000000000000000000000000000804100000000000000000000000000004B
:80348000000000000000000000000000000000008001000000000000000000000000000000D0FA00000000000040000000000000000000000000001804000000000080080000000000000000000000000000000000000000000000000000000000C00100000000000000000000000200000068FE0C00000000C000000000000000000000A8
:803500000000000058000000002C8200840800000000000000000000000000000000000000000000000000000000A001000000000000000000008C00000000CAFC0400000000C0008120006020000000000000000000020000000001013100000000000000000000000000000000000000000000000000000000008001000000000000002B
:80358000406020200000000070F9180000000030000600007800000000000000000006000000000F6000082000000000000000000000000000000000000000000000000000000000C001000000000000C00078000F0800000008FA0800000000C0001810006000000000000000000000100000000C0201340000000000000000000000006A
:8036000000000000000000000000000000000000008001000000000000000360000C02000000D9FF000000000020425800006000000000000000000000000000002C0000010500000000000000000000000000000000000000000000000000000000A001000000000000008360002C0000000020FA20000000001000020000080000200010
:8036800004000000000200000000002000040100000000000000000000000000000000000000000000000000000000200004000010000040030000010000000014FC0000000000C00000000060000000003000000000000000000000000000080000000000000000000000000000000000000000000000000000000020000000000000009F
:80370000000000000000000000E0FF000001000000000004000020000000011000000000000000000080013C00000000000000000000000000000000000000000000000000000000006000000000000000C0000000000200000068FD8C010000000042580000600000800130000000001805000000000050801000000000000000000000BB
:803780000000000000000000000000000000000000002000000000000000008800008C000000003BFB0488000000C048400000600C000020B0100000008008000000008045900800000000000000000000000000000000000000000000000000000000804530040000000000030000400400000021FCF801000000F0001E1000780000E08E
:80380000013C000000001E0000000000E001280000000000000000000000000000000000000000000000000000000000C0013C0000300000800001000F0000000050F98841000000C0001804006000008041300000000018040000000080413008000000000000000000000000000000000000000000000000000000008001300000000022
:8038800000000300000C0200000053FE8001000000C048180000102100800108400000001800000000008011300200000000000000000000000000000000000000000000000000000000800130000000000000A000000C0000000080F920000000001000024000080000000004000000001A0000000001200004000000000000000000005D
:8039000000000000000000000000001000004000000000A001000000D0000040030000000000000078FE000000000000000000000000000000000000000000000000000000000000000000000000000000000000000000000000000000000000000000008001000000C0000000000000000000000040FF000000000000000000000000004D
:803980000000000000000004040000000080010000000000000000000000000000000000000000000000000000800000008041000000C04000C08000000000000000D0FA0000000000C0821810006021000000304000000002010000002C02480000000000000000001000000000000000080000000000000000230000008011000000C093
:803A0000020000200000000000000028FD8081000000008280081360240000003012000000580000000020805100010200000000000000010000000000000000000000C0020000200100008051000000C0100000130000000000000000FDE001000000F0001EC0037A000000003C0000000004100000000FE8010C20040000000000001086
:803A8000020000000000000800000000F04000C003000000E001000000F0000080000100000000000008FD8001000000C040180403602000000030200000001A000000000C820131800400000000000050020000000000000800000000C000000083000000000000000000000000830000000000000068FD8001000000C0049800036002DD
:803B0000000000B00000000000020000004C800130080400000000000000020000000000000000000000C0000000130000008001010000C08000000800000000000000C0F80000000000000000000000000000000000000000000100000000000000020400000000000000020000000000000000000000000000000000000000000000002A
:803B80000000000000000000000000008CFE20000480001000024000080001200004800010000250000800012000042000000000000000000000000000000020000480001000024000080001008004800010000240000800012000040020FF0000000000000000000000000000000000000000000000000000000000000000000000000048
:803C0000000000000000000000000000000000000000000000000000000000000000000000000000000098FF2C0004800010000240000800012000048000100000400008000120000000000000000000000000000000000000200004800010000240000800010050048000100002400008000120000400E3FB040000000000004800000009
:803C80000000000080000000000802000000000000901000000000000000000000000000000000000000000000000000000000000400000000000000210000000000000059FF3800048000100002480008000120000490001000024000080001200004000000000000000000000000000000002000048000100002400008000120400480E8
:803D00000010000240000A00012000040030FA080000000000000000000000000000000000000000000000000000000000000000000000000000000000000000000000000000000000000000000000000000000000000000000000000000A3FC20000480001000024000080001200004A200100002400008000120000400000000000000AD
:803D8000000000000000000000200004800010000240000800012050048000100002000008000120000400F8FA00000000000000000400000000000000000000000008000000000004001000000000000000000000000000000000000000000000000000000000000000000000000000000100000000000080FA0000000000000000000004
:803E0000000000000000000000000000000000000000000000000000000000000000000000000000000000000000000000000000000000000000000000000000000000000098FF000000000000000000000000000000002000000000000000000000000000000000000000000000000000000000000000000000000000000000000000008B
:803E80000000000000000000000000000000B8FD020000000000000000000000000000000000000000000000000000000000000000000000000000000000000000000000000000000000000000000000000000000000000000000000000000B8FD000000000000000000000000000000000000000000000000000000000000000000000056
:803F00000000000000000000000000000000000000000000000000008000000000400000000000000000000050FB00000000000000000000000000000000000000000000000000000000000000000000000000000000000000000000000000000000000000000000000000000000000000000000100000000088FE04000000040000000098
:803F800000080000000000000000000008010000000400000000000000000000000000000000000000000000000000000000000000000000000100000004000000000000000048FA000001000000000000000000004000000800000000000000000100400004000000000000000000000000000000000000000000000000010008000000CE
:80400000000000000010000002100000000400E0FE00000100010000080000100080A1000020000000008C002000410503012000000000000000000000000000000000000000000000804200004000000000000100000208000240000000040000F90800100000400004444400001280040000000000180022424501010030000000000012
:8040800000000000000000000000000000100080001080000000000008802200000000000200900A001400000488FD000004000040000010000000004000000000000004000000000000000400000000000000000000000000000000000010000000000000000000000000000000000000000000000000000000D8FB060000000000000038
:8041000000000200000000000000000008800008000004000800000000000000000000000000000000000000008000200000000000000000080000000000020000400000000020F0FB00000000000000000000400000000000000000000000000000000040000000000000000000000000000000000000000000000000000000000000002C
:804180000000000000000000000000000000000098FB00000000000000020000000000000000000000000000000000000000000000000000000000000000000000000000000000000000000000000000000000000000000000040000000000000098F90000000000201000000008000000000000000000000000000000000010000000004D
:8042000000000000000000000000000000000000000000000000000000000000000000000000000000000000000010FC100000000000001000000000000000000000000002000000000000000000000000000000000000000000000000000000000000000000000000000000000000000000000000000000000000FCFA000000000000001A
:80428000010000000000000000000000000000000000000000010800000000000000000000000000000000000000000000000004000000000000000000000000000000100000000048FA000000000000000000000000000000000000000000000000000040000000000000000000000000000000000000000000000000000000000000001E
:804300000000000000000000400000000000000000D8FB400000000000000000001000000000000400000000000000000000000000000000000000000000000000000000000000000000000000000000000000000000000000000000000000000000C8FA1800000000000000000000000000000000000000000000000000000000000000FC
:804380000000000000000000000000000000000000000000000000000000000000000000000000000000000000000080FF00000000000000000000000000000100000000000000000000000000000000000000000000000000000000000000000000000000000000000000002000000000000000000000000000000088FD00000000000098
:8044000000000000000100000000000000000000000000000000000000000000000000000000000000000000000000000000000000000000000000000000000000000000000000008044FB0000000000400000000000000000000000000000000000000000000000000000000000000000000000000000000000000000000000000000003C
:8044800000000000000000000000000000000000000098FB000000000000000000000000000000000000000000000000000000000000000000000000000000000000000000000000000000000000010000000002000000000000000004000000000000E8FE000000000000000000000000000000000000000002000000000000000000003A
:804500000000000000000000000000000000000000000000000000000000000000000000000000000000000000000000B8FF00000000000001000000000000000000000000000000000000000000000000000000000000000000000000000000000000000000000000000000000000000000000000010000000000000088FF0000000000FB
:804580000000000000000000000000000000000000000000000000000000000000000000000000000000000000000000000000000000000000000000000000000000000000000000000098FF0000000000000000200000000000000000000000002000000000100000000000000000000000000000000000000000000000000000000000D4
:8046000000000000000000000000000000000000000000B8FC00000000000000000000000000000000000000000000000000002000000000000000000000000000000000000000000000000000000000000000000000000000000000020000000000000098FF0000000000000000000000000000000000000000404000000000000000004D
:80468000000000000000000000000000000000000000000000000000000000000000000000000000000000000000000000D8FB080000000000000008000000000000000000000000000000000002000000000000000000000000000000000000000000000000000000000000000200000000000000000800000000000000B8FD0000000016
:80470000002000000000100000000008000000000000000000000000001400000000000000000000000000000000000000000000000000000000000004000000000000000000000000000080F9000000000000010000000000000000100000000000000000000000004000000000000000000000000000000000000000000000000000001F
:80478000000000000000000040000000000000000000000098FA000000000000000000000020002000000000000000000000000100000000000000000000000000000000000000000000000000000000000000000000000000000000000000000000000000B8FE000000000000000000008000000000000000000000000000000000000070
:804800000000000000000000000000000000000000000000000000000000000000000000000000000000000000000000000090FF800000000000000804000000000000000000000008000000000002001000000000000000000000000000000000000000000000000000800000000000000000000000000000000402000000C0FA82000041
:80488000000000000000000000000080100000000000480000000040000000000000000000000000000000000000000000000020000000000000000040000000000002100000000000000000D8FF1A000100012000000000000000400000000000000080000000000001010000000000000000000000000000000000000000000000000455
:804900000040200000000000840000080000000000000000000AFE4003018000100050008000000020C0080000000000C8000000006200A1000000000000000000000000000000000000000000200080120008400000856080004400060800000A0400000000A8FE200000008000002A801440A00400211022008000180400D0A40440207E
:8049800020040000000000000000000000000000000000000404C000800002000000204420060D00004804420012001400000080FE00000000000000040000000002000020000000000208000000020000000000000000000000000000000000000000000000004000000000000000008000000000000210000010000000000018FF000055
:804A000000008000000000001000004020000000100010000010000000201020000000000000000000000000000000000000100480000000010000000000080802000000000102000000000000E8FF00000000000000000000000000000000000000000000000000080000000000000000000000000000000000000000000000000000002D
:804A80008000000000800000000000000080000000020000000010FD00000000008000000000400000000000200000000404000000060000082000000000000000000000000000000000000000000000008000000000400000000000000000000000020000000030FF080000000000004000000000000000000000000000000000000000D8
:804B0000000000000000000000000000000000000000000000000000000000000000000000000000000000000400000000000000F2FD000000000000200000000000000000000000000000020000000000800000000000000000000000000000000000000000040000000000000000000000000000000000800000000000000000D8F90249
:804B80000000000000000000800000000000000800000000040000000000000000000000000000000000000000000000000000000000000000000000000000000000000000000000000000000000F0F90000000000000000000000000000000000000000000000000000000000000000000000000000000000000000000000000000000040
:804C0000000000000000000000000010000000000100000000000098FF000000000000800400000000000000000000000000000000000200000000000000000000000000000000000000000000000000000000000000004000000000000000000000000000000080D0FD100000000000000000000000000000000000000000000000000069
:804C800000040000000000000000000000000000000000000000000000000000000000000000000000000000000000000010000000C8FA020000000080000000000000000000000000000000000000000000800020000000000000000000000000000000000000000000000000000000000000000000000010000010000000000000B0FFED
:804D000000000000004040000000200000000020000000000000000000000000040000000000000000000000000000000000000000008000000000000000000000000000000000000000000000000050FD0000000000000000020000000000000000000000000000000000400002000000000000000000000000000000000000000000005E
:804D8000000000000000000000000000000000400000000000000000DAFB00040000000080000000000000000400000000000000000000000000200000000000000000000000000000000000000000000000000000000020000000000000000000000000000000000058F9A0012440000000000000080000000000000000001A000000005E
:804E0000000000000000000000000000000000000000000000000000000000000000000000000000000000000201000000000000000020FC800110000000000000000000000000000000000018000000000000000000000000000000000000000000000000000000000000000000000000000000000000000000040000000000000000D88E
:804E8000FAE0012020000000000000000000000000000000001C000000000000000000000000000000000000000000000000000000000000000000000000000000000000000006000000000000000000F8FDA0013002000000000000602000000000000000001A000000000000000000000000000000000000000000000000000000000013
:804F00000000000000000000000000000000001804000000000000000018FF000020020000000000000040000000000000000000000000000000000000000000000000000000000000000000000000000000000000000000000000000000000014000000000000000000F8FA60403C10000000000000780000000000000000000604000028
:804F8000000000000000000000000000000000000000000000000000000000000000000000000000000000000010000000000000000000B0FA0000300800000000000060000000000000000000000000000000000000000000000000000000000000000000000000000000000000000000000000000000000000100000000000000000004F
:80500000F0FB200038020000000000006012000000000000000002000000000000000000000000000000000000000000000000000000000000000000000000000000000000000008000000000000000000F8F90000042100000000000000000D000000000000001A0000000000000000000000000000000000000000000000000000000032
:80508000000000000000000000000000000000004200000000000000000030FE0000100000000000000000000C0000000000000018000000000000000000000000000000000C00000000000000060000000000000000000000000000000000000000040000000000000000F8FD0000100800000000000000000F000000000000001E0000BC
:8051000000000000000000000000000000000800000000000000040000000000000000000000000000000000000006000000000000000000A0FC0000B00000000000000000000D000000000000001A00000000000000000000000000000000000000000000000000000000000000000000000000000000000000005A04000000000000004C
:80518000003BFA00003040000000000000000080000000000000000001000000000000000000000000000000000000000000000000000000000000000000000000000000000000001400000000000000000019FD00003C00000000000000000003020000000000000604000000000000000000000000000000000000000000000000000014
:8052000000000000000000000000000000000000001000000000000000000048F8000030080000000000000000000000000000000000000000000000000000000000000000000000000000000000000000000000000000000000000000000000000010000000000000000000A3FE00003000000000000000000001000000000000000000C4
:80528000000000000000000000000000000000000000000000000000000000000000000000000000000000000000000800000000000000000008FD0000000000000000000000000D00000000000000122000000000000000000000000000000000000000000000000000000000000000000000000000000000000000020000000000000060
:805300000000E0FB0000000000000000000000000C000000000000000800000000000000000000000000000000000000000000000000000000000000000000000000000000000000000000000000000000000050FB0000000000000000000000000C02000000000000101000000000000000000000000000000000000000000000000000C5
:805380000000000000000000000000000000000000001E00000000000000000020F90C000000000000000000000040000000000000001801000000000000000000000000000000000000000000000000000000000000000000000000000000000000001A000000000000000000A0FA0400000000000000000000000C00000000000000103D
:80540000010000000000000000000000000000000000000000000000000000000000000000000000000000000000000014000000000000000000C0FE1800000000000000000000000D000000000000001E08000000000000000000000000000000000000000000000000000000000000000000000000000000000000000800000000000006
:80548000000000B0FB08000000000000000000000000000000000000001808000000000000000000000000000000000000000000000000000000000000000000000000000000000000000800000000000000000098FE0000000000000000000000000C000000000000009C0000000000000000000000000000000000000000000000000093
:80550000000000000000000000000000000000000000001000000000000000000098FB00000000000000000000000001000000000000009210000000000000000000000000000000000000000000000000000000000000000000000000000000800000001200000000000000000018FE00000000000000000000000000000000000000003D
:805580000000000000000000000000000000000000000000000000000000000000000000000000000000000000000600000800000000000000000078FF0000000000000000000000000A0000000000000018000000000000000000000000000000000000000000000000000000000000000000000000000000008007000014000000000069
:805600000000000008FD0C000000000000000000000005000000000000001004000000000000000000000000000000000000000000000000000000000000000000000000000000000000000800000000000000000062F9040000000000000000000000860200000000000018200000000000000000000000000000000000000000000000D9
:8056800000000000000000000000000000000000000300000C00000000000000000068FE18000000000000000000000009000000000000001E00000000000000000000000000000000000000000000000000000000000000000000000000000000000400001400000000000000000078FE0800000000000000000000000802000000000056
:805700000018000000000000000000000000000000000000000000000000000000000000000000000000000000000004000008000000000000000000C9FD000000000000000000000000040000000000000098020000000000000000000000000000000000000000000000000000000000000000000000000000000002000010000000008F
:805780000000000000D0F9000034000000000000000000010000340000000012200000000D000000000000000000000000000000000000000000000000000000000000000000000080100100000000000000000000006CF9000030000000000000000000000000300000000008000000000C000000000000000000000000000000000000CE
:8058000000000000000000000000000000000000000000000000000000000000000000A0F80000380000000000000000000A0000380000000010100000000F0000000000000000000000000000000000000000000000000000000000000000000000800101000000000000000000000098F90C00340000000000000000000500003400005B
:80588000000018010000000D00000000000000000000000000000000000000000000000000000000000000000000000016000000000000000000000000FBFE0400000900000000000000008602000009000000101000000040020000000000000000000000000000000000000000000000000000000000000000000000050000000000006E
:8059000000000000000099FB18000C0000000000000000000900000C000000001E000000000300000000000000000000000000000000000000000000000000000000000000000000000004000000000000000000000000D6FE0800000000000000000000000802000000000000180000000000000000000000000000000000000000000037
:8059800000000000000000000000000000000000000000040000000000000000000000007AFE00000400000000000000000004000004000000009C080000000100000000000000000000000000000000000000000000000000000000000000000000000002000000000000000000000000B8FF000034000000000000000000090000040080
:805A00000000009210000000000000000000000000000000000000000000000000000000001000000000000000000000804001000000000000000000000020FC000030000000000000000000040000000000000000000000000000000000000000000000000000000000000000000000000000000000000000000000000000000000000063
:805A800000000000000000D8F80000300800000000000000000A000000100000001800000000000000000000000000000000000000000000000000000000000000000000000000000000800101000000000000000000000020FF0C000001000000000000000005000030010000005010000000000000000000000000000000000000000028
:805B0000000000000000000000000000000000000000008006000000000000000000000000D8FB040030060000000000000000860200001200000018200000000000000000000000000000000000000000000000000000000000100000000000000000000005000000000000000000000000A8F818000C0000000000000000000B00003CA0
:805B8000000000001E000000000000000000000000000000000000000000000000000000000030000000000000000000000004000000000000000000000000A0FA0800000000000000000000000402003008000000180800000000000000000000000000000000000000000000000000000000C0200000000000000000000004000000006F
:805C0000000000000000000008FC000080200000000000000000080000B000000000180100000000000000000000000000000000000000000000000000000000C0040000000000000000000002000000000000000000000000F0FFA00134800600001A400068000D0000048006D00012200000000D00003400000000000000000000000003
:805C8000000000000000340000D000000000000000000000800001000000000000000000000004FB8001300006000018000060000C0000000006C00008000000000C000030000000000000000000000000000000000000300000C0000000000000000000000000000000000000000000000000B8F8E00138800700001E000078000C0000F9
:805D0000009007F00010100000000F000038000000000000000000000000000000000000380000F0000000000000000000008001010000000000000000000000E8FFAC0134800600001A000B69000C0000308106D00018010000000D000034000000000000000000000000000000000000340000D000000000000000000000802600000018
:805D800000000000000000000083F80450000A400100000500021400020000214001281000000000800200000A0000000000000000000000000000000000000A00C000000000000000000000000500000000000000000000000011FB78000C8001000006C00318000300003C800130001E040000000300000C000000000000000000000064
:805E0000000000000000000C0000E0000000000000000000000004000000000000000000000000A6FB0800000000000000008300000000003008000000180000000000000000000000000000000000000000000000000000000000C0000000000000000000000004000000000000000000000000F2FB000000000000000000030000000002
:805E80000030000000009C1000000000000004000000000000000000000000000000000000040000C000000000000000000000000200000000000000000000000028FD000004800600001A40006800010000348006D000921000000000000034000000000000000000000000000000000000340000D00000000000000D0000008000000099
:805F000000000000000000000000E0F8000000000600001800006000000000300006C000000000000000000030000000000000000000000000000000000000300000C00000000000000C000000000002000000000000000000000020FC000000100700001C000070000002003C0007E00018100000000000003C000000000000000000005F
:805F800000000000000000003C0000E00000000000000F000000800100000000000000000000000088F80C0030810600001A000B6900200000348006D000100000000000000034000000000000000010000000000000000800340000D00000000000000C000000802602000000000000000000000000F90400800000010000040001104C87
:8060000000000008000120182000000000000000080200000000000000010000000000000000000800C00000000000000C000000000500000000000000000000000038FF18003C9001000006C00318000302000C800130001E000000000000000C0004000000000000100200000000000008000C0000E00000000000000E000000000400D6
:806080000000000000000000000000D0F80800300800000000008300000002000000000000180000000000000000800400000000000050020000000000000800000000D00000000000000C000000000400000000000000000000000098FC00003081000000020013080080000000800010005820000000000000000004000000000000004F
:80610000020000000000000000000000D00000000000000C000000000200000000000000000000000018FC000000000000000000000000000000000000000000000000000000000000040000000000000002000000000000000000000000280000000000000000000000000000000000000000000000D0FB000000000010000040000000E2
:80618000002000000000000000400008000020000000000000000000000000000000000000200000800010000240000800012000048000100002400008000120000400D8FD004000080000000000000000000000000000020000000000000000000010000000000000000000000000000000000000000000000000000000000000000000CA
:80620000000000000000000000000000F0F82C000480A01000425000080A21220084904010488250000800812800040100000000000000000000000000000020000491000040024000080001200004800010000240000800012000040013FC0400000000000000000000000000000000000000000000000000000000000000000000000045
:80628000000000000000000000000000004022000000000000040000000202000808000000000000000041FA1800000000100000400000000020000000000000004000080001200000000000000000000000000000000000002000008000100002400008000020000400001000004000080001200004009EFB0800000800010000040000AF
:80630000100004000008000120000000000000040000080000000000000000000000000000000000000800000000000000000000000000000000000000000000000000009AFB20888480201000824000080281200004822010048244000800812000040000000000000000000000000000000020000480001000024000080000240004801B
:8063800000100002400008000120000400C8F800004000000000000000000000000000000000000000000000000000000000000000000000000000000000000000000000000000000000000000000000000000000000000000000000000098FB0000000000000000000000000000000000000000000000000000000000000000000000008B
:8064000000000000000000000000000000000000000000000000000000000000000000000000000000000098FF00000000000000000000000000000000000000000000000000000000000000000000000000000000000000000000000000000000000000000000000000000000000000000000000000000098FF00020000000000000000EC
:80648000000000000000000000004000000000000000000000000000000000000000000000000000000000000000000000000000000000000000000000000000000000000098F900000000000000000000000000000000000000000000000000000000000000000000000000000000000000000000000000000000000000000000000000CB
:80650000000000000000000000000000000098FF04000000000000000000000000000000000000000000000000000000000000000000000000000000000000000000000000000000000000000000000000000800000000000000000000000058FB08000000000000000000000000000000000000000000000000010000000000000000001C
:806580000000000000000000000000000000000000000000000000000000000000000000000000000000000090FE004000000000000000000000040000000000008002000000000000000000000000000000000000000000000000000000000000000000000000000000000001000000000000000000000000A0FF000001050000000000A1
:8066000000001001000000000000800200000000020000000000000000000000000000000000000000000000000000000000C000000000008000400000000000000000000000E0FC020000000000000000000000000200000000000000042025000002000000000000000000000000000000000000000000000000000000000000000000DA
:80668000000000000200A8260500000000000034F900000000000000000000000000020000000000000004000800000400000000000000000000000000000000000000000000000000000000000000000000000000000000000000000000000018F90A0000000000000000000000000000000000000000000000000000000000000000006B
:806700000000000000000000000000000000000000000000000000000000000000000000000100000000000000B0FC00000800000000000000000000000008000000000000000000000000000000000000000000000000000000000000000000000000000000000000000000000000000000000000000000000010FF00000000000000004D
:8067800000020000000000000000000000000000000000000000000000000000000000000000000000000000000000000000000000000000000000000000000000000000000000B8FD0000000000000000000000000000000000000000000000000000000000000000000000000000000000000000000000000000000000000000000000E2
:806800000000000000000000000000000000000098FF100000000000000000000000000000000000000000000000000000000000000000000000000000000000000000000000000000000000000000000000000000000000000000000000000000CCFB12000000000000000000000000000000000000000000000000000000000000000098
:8068800000000000000000000000000000000000000000000000000000000000000000000000000000000000008064F900000000000000000000000000000000000000000000000000000000000000000000000000000000000000000000000000000000000000000000000000000000000000000000000000000098FF0000000000000024
:806900000000000000000000000000000000000000000000000000000000000000000000000000000000000000000000000000000000000000000001000004000000000000000000C8FF000000000000000000000000000000000000000000000000000000000000000000000000000000000000000000000000000000000000000000004B
:80698000000000000000000000000000000000008010FF00000000000000000000000000000000000000000000000000000000000000000000000000000000000000000000000000000000000000000000000000000000000000000000000000000098FF000000000000000000000000000000200000000000000000000000000000000051
:806A000000000000000000000000000000000000000000000000000000000000000000000000000000000000000000B8FF00000000000000000000000000000000000000000000000000000000000000000000000000000000000000000000000000000000000000000000000000000000000000000000000000000098FF000000000000C8
:806A800000000000000000000000000000000008000000000000000000000000000000000000000000000000000000000000000000000000000000000000000000000000000000000090FF000000000000000000000000000000000000000000000000000000000000000000000000000000000000000000000000000000000000000000FF
:806B000000000000000000000000000000000000000098FF00000000000000000000000000000000000000000000000000000000000000000000000000000000000000000000000000000000000000000000000000000000000000000000000000000098FF00000000000000000000000000000000000000000000000000000000000000E7
:806B8000000000000000000000000000000000000000000000000000000000000000000000000000000000000000000098FF00000000000000000000000000000000000000000000000000000000000000000000000000000000000000000000000000000000000000000000000000000000000000000000000000000098FF000004000063
:806C000000000000000000000000000000000000000000000000000000000000000000000000000000000000000000000000000000000000000000000000000000000000000000000000D8FF00000000000000000000000000000000000000000000000000000000000000000000000000000000000000000000000000000000000000003D
:806C80000000000000000000000000000000000000000098FF00000000000000000000000000000000000000002000000000000000000000000000000000000000000000000000000000000001000000000010000000000000000000000000000000000098FC00000000000000000000000000000000000000000000000000000000000038
:806D000000000000000000000000000000000000000000000000000000000000000000000000000000000000000000000098FF000000000000000000000000000000000000000000000000000002000000000000000000000000000000000000000000000000000000000000000000000000000000000000000000000000B8FF00000008BB
:806D8000000000000000080004000000000000000000000000040000000000000000000000000000000000000000000000001000000000000000000000000000000000000000000000000058FE00000000000000000000000000000000000000000020000000000000000000000000000000000000000000000000000000000000000000FD
:806E00000000000000000000000000000000000000000000B8FF08000000000000000000000000000000000000000000000000000000000000000000000000000000000000000000000000000000000000000000000000000000000000000000000000000090FF0E0000000020000000000000000000100000000000000040000000000145
:806E80000000000000000000000000000000000000000000020000000000000000000000000000000000000000000000008068FC1C000000020000080000200000000000000040000000000000000000000000000000000000000000000000000000000000000000000002000000000000000000000000000008000000000000F9003300F0
:806F0000860C2018020301080080010068000010008002001010280080000000000000000000000000000000000000000000150000004000000000000060001400000000000040000000000068FD80500106020100088000200000000010080000180000A00502000001300800000000000000000000000000000020020000104000000084
:806F800002000004000000800424010000000000000000000088FB40400000810000040000100000000010080000000000000200000000100400000000000000000000000000000000000000002000000000000004000000000000000000000000000000000028F80000000800000000000000000000000000000020000000000000400070
:80700000100000000000000000000000000000000000000000000000008000000000000000000400000000000000000000000068F810000000000000000000000000000000000000004400000000000000080000000000000000000000000000000000000000000000000000000000000000000000000000000000000000000004FF0000BD
:807080000000000000000400000000000000000000002004000000000000000000000000000000000000000000000000004000000000000000000000000000000000000000000000000000000098FD0000002000000000800800010000000000000000001000000000000000000000000000000000000000000000000000000000000000DA
:807100000000000000000000000000000000000000000000000038FF00000000000000000000000000000008040000000000000000000000000000000000000000000000000000000000000000000000000000000000000000000000000000000000000000000090FB1E000000000000000000000000000000000000000000000000000023
:80718000000000000000000000000000000000000000000000000000000000000000000000000000000000000000000000000000C2FB00000000000000000000000000000000000200000800000000000000000000000000000000000000000000000000000000000000000000000000000000000000000000000000000000000038FF0091
:80720000000000000000000000000000000000000080000000000000000000000000000000000000000000000000000000000000000000000000000000000000000000000000000000000000008090FF020000000000000000000000000000000000000000000000000000000000000000000000000000000000000000000000000000007D
:807280000000000000000000000000000000000000000000000000B8FD000000000000000000000000000000000000000000000000000000000000000000000000000000000000000000000000000000000000000000020000000000000000000000000000000000B8FD00002084000000000000000000000000000000000202000000007A
:807300000000000000000000000000000000000000000000000000000000000000000000000000000000000000000000000000000058FB140000000000000000008000000000000000000000000000000000000000000000000000000000000000000000000000000000000000000000000000000000000000000000000000000000C0FB6B
:8073800000000000000000000000000000000000000000000000000000000000000000000000000000000000000000000000000000000000000000000000000000000000000000000000000000000098FF000000000010005250000000000000000000902802400068000020040400000000000000000000000000000000A0010000001009
:8074000000004008090001200034800000000240000000000000000058F8000000000000000800030000000000000000C00000100060000000000100000000000000000000000000000000800100000000000000000000000000300000000018000000000000000000C0FB00000000000000101000020000000000000000001004006000FE
:8074800000008100000000000000000000000000000000008001000000C000000002000003600030000001000000800000000000000008FC0000000000000018000B00000000000000004042100183600000000100000000000000000000000000000000008001000000002800000A01000120003000260000182013000000000000006040
:80750000FF0000000000C00810090B01000000000000008008080100011400804030020000000000000000000000000000000004000000C02200001100112C801102014002009804000100000000000010F90000000000F0201EC003000000000000000030200ED003180000E0003C200000000000000000000000000000006040000000C1
:80758000F00000C00119000FE4010C880700001EC00300000000000000B0FE0000000000C00018000301000000000000008020000803000000000030000000000000000000000000000000000000000000C02000000060000C800100000600001800030000000000000058FE0000000000C0005CA020000000000000000000040001930034
:807600000000001032000000000000000000000000000000000000000000C00800001062240C800100002601008408930000000000000000F900000000001000125100000000201101000010001A400000000120042502000000000000000200000000000000210000804011820040080A22002000000000000012000000000020002406DD
:80768000A8FC0000000000C000000000000000800000000000001800000000000000101000000000000000000000000000000000000000000000000000000000000000000000000008000000000000100090FB000000000000801800000100000001000000300018000000000300012820000000000000000000000000000000000000009D
