:020000040000FA
:80000000FFFF62FF3900FFFFFFFFFFFFFFFFFFFFFFFFFFFFFFFFFFFFFFFFFFFFFFFFFFFFFFFFFFFFFFFFFFFFFFFFFFFFFFFFFFFFFFFFFFFFFFFFFFFFFFFFFFFFFFFFFFFFFFFFFFFFFFFFFFFFFFFFFFFFFF800C9001324006C840110051200A4481A80255048A4011280245804C9001000000000000000000000000000000000C90013200C8
:8000800026C80419280245A00814A82250044014882A0245C0089001A0FB0017E0025C800B70012A800A50012A4005B4800A50012A4005A8003FE0020000000000000000000000000000000012E0025C001DF0032E4005A80015A00554800AA002544005A80015E00298FF000000000000000000000000000000000000000000000000005B
:80010000000000000000000000000000000000000000000000000000000000000000000000000000000000000000000000000000000098FF0000000000000000000000000000000000000000000000000000000000000000000000000000000000000000000000000000000000000000000000000000000000000000000000000000009850
:80018000FF000120000480001000000000000000000000000000000000000000212000000000000000000000000000000000000020000400101002020000000000000000000000000000000000002800B8FD1684C0001100126000000000000000000000000000000000000000068110000000000000000000400000000000000080101091
:8002000042000208480000000000000000000000000000000000008080B5F9200000000000000200004804010000040000100002400008002100000000000000000000000000000000000000A001048000101802050008008102000000001000000000000081A001000000FC0000000000000000000020200C0000000000000018000300DA
:8002800000080800000000000000000000000000000000000080010000000000000000000000000000000000000000000000008201000040F900000000000000000000400000040000080000001E000059000400000000000000000000000000000000000000800100000080401004001800080200000000002000000000000380010000CF
:8003000010FC0000000000000000000060210C0000300100C02800000820000C080000000000000000000000000000000000008001B0101682021001000800880000000000C00400000000000C8201000008FD8005000000000018090040200C100000120000480C000330000000000000000000000000000000000000000000004480003C
:800380002040228808006022040400000000004200000000000A0010000020FBE00101000000001E000078000F00003C0000F0001040034200010000000000000000000000000000000000000060003CA00772000E00007800070000000000F0000000000000086040000080F98001000000000018000060200C0000300000C00010000326
:8004000040000000000000000000000000000000000000000000000030000600000004006000000000000000C0000000000000080000000030FA800100000000001800007000220400300900C02408000020000000000000000000000000000000000000000000000030092601024100006000800200000000C024000000000004000000CF
:800480000060FC00000000000000000000480101000004000010000240100800210000000000000000000000020000000000000001000000009002431000080021000000000000000000000800212000000074FE000000000000000000000020000000000000000000000202000804000000000000000000000000000000000000000000CB
:800500000000C0000000000000000400000000000000000000000002000000D8FF000000000000000000006020000000000800000016000158000400000000000000000000000000000000000000000000000000201004000000080200000000000000000000000300400000A8FA0000000000000000000040042C0400300100C02808002B
:800580000B21008C04000000000000000000000000000000000000000000000040021001006042880000000000000000000000002D0204000063F80000000000000000000060048C040000100000020C000030000000000000000000000000000000000000000000000000000080428808000001040400000000000000000060840A800920
:800600000000D1FB0000000000000000000078200F00003C0000F08010400040000100000000000000000000000000000000000000000000000030000E0000784007000000000000000000007800086040000090FD0000000000000000000060400C0400300000C00010000040000000000000000000000000000000000000000000000030
:800680000000008000000000600000000000000000000000006000080040000053FB0000000000000000000060012C0000300800C0200800002000000000000000000000000000000000000000000000000000000010401000601000040000000000000000006000040010000078F91000000000100000000048040000000400001000021C
:800700004000080021040000000000000000000000000000000000000000040000100052040008008900000000001002004000000001A001000058FA0000000000000000000020200000000000000000000002010008000000000000000000000000000000000000000000000000000018000000000C040000000000400000000000008098
:8007800001000028F90000000000000000000040000000000008000000160001590004040000000000000000000000000000000000000000000000C0400008000000000400000000000000000000000F80010000B8FC0C0000000000000000006021000000300100C02808001320004C00000000000000000000000000000000000000009A
:800800000000000000040801006042440000000000004400002302000D00400000B0FA0400000000C040000000400400000080000000040C0000300000000000000000000000000000000000000000000000301100C0089004000002480200000000808400000801000A80010000E0FE0000000000F00000000078400000003C2000F0408A
:80088000104000400001000000000000000000000010000000000000000A003C0000F0400600007820030000000000300000C003000004A0010000D0FE0C00000000C0000000006000000000300000C000100000400000000000000000000000000000000000000000000000300000C080100400600008000000000000000000030000047B
:8009000000000000F8FB0000000000C0000000007008000000B00800C022080000200000000000000000000000000002000000000000000100300000C0080000006011200400000000000001008B00000880010000F8FB00000400001000000000480101200004000010000240100C004108000000000000000000000800000000000000B1
:80098000040000000010001A4000080001200000000000000040000000092000000074FF00000000000000000000002000000000000000000000020000080000000000000000000000000000000000000000000000000000180000000000000000000000000000030000040000000088F90000000000000000000060000000000008000052
:800A0000001600015A000400000000000000000000000A000000000000000500000000C00018C0006010006000000000000000C00300000A40010000A8FB000000000000000000004084008011310100000008001320004C100000000000000000000002000000000000000000000000002418400000014C280000000000000000000000C8
:800A800004A000000083FB0000302200C04000000060042C042000020000440C0000300000000000000000000000000010000000000000000900000000C00880040362148084010100000000008001000006C0000000D9FA00003C0000F00000000078200FE0013C1000300010400040000100000000000000000000000400000000000089
:800B0000000500000000F02006C00378000FE001000000000000000200000A2041000050FC0000300000C00000000060000C8001300000C000100000400000000000000000000000000008000000000000000000000000C04000000360000C8001000000000000000200000400010000B3FE0000300000C000000000600A0C8051300A0038
:800B8000C014080000200000000000000000000000000000000000000000000000000000C00000000360088C8201000000000000000100000880480000A8FC1000040000100000000048040000000400001000024040080081A8010000000000000000001000000000000000040000000010000200006800010000000000100000408800AB
:800C00000000200000009CFF0000000000C0000000002020000000000000000000000200000880010000000000000000000C00000000000000010000000000000000006000000000000000000000000000000000000000D8FB0000000000004000000040000000000008000000160001580004800100000000000000000000000000000072
:800C80000000080000000000000600006000030000000000002000C08000000040010000C8FF0C00000000C0000000006021000000300100C02808004320000C84010080020000000000005001000000000000080000000000000200006000010000000000C00400000B000000A000000083FC0400302200C02800000040400000000004CB
:800D00000000820C0000300000004400000000000000000000000000000000000100000000000058000000008C01000000000048008002000000C000000021FD00003C0000F00000000078000000003C0000F00010400040000160000000020000000000002201000000000000040000000030201E080018100F0000000000F0000000025A
:800D800000000020410000C8FE0C00300000C0000000006000000000300800C020100000400000000000800000000000000040000000000000000100000000C00018000000000C0000000000C0200000020000000001000023FB000030000020000100007041000000300200C00808000020000000000080080000000000008A000000002C
:800E00000000000400000000C04818000000000C0000000000C00800000100000080480000D8FA20000000001000000000480100000004000010000240000C00413000040000000000000000000100000000000021000000001000020000080149000000000010000040A0000000200104001CFE00000000000000000000002000000000BA
:800E800000000000000002000008000000800400000000000062020000000000000900000000000000000000100C020000000000000000000000008000000040F900000000000000000000600000000000080000001600015A000460000C00000000000000000000000000000000600000000030000000004000000400000000000000C043
:800F00008000000040010000C0FC0800000000C0000100004082000000300100C02808000320004C210004000000000000000000000000000000002000000000100018100040444400000000000000004003000000A0000000B3FD8005000000C048000000600400000000010000400C0000300000800130840400000000000062020000F6
:800F8000000000008311010000C00800090020004802000000000044008002000000C0003006D9FFE001010000F00000000078200000003C1000F000104000400001E0813C00000000000000002200000000000000E201000000F0801E00003810030000000000300000000200000060413C0040FD8401000000C0400000006000000000AA
:80100000300800C020100000400000800130000100000000000080000000000000008201000000C0001804000000080200000000C020000002000000800030008BF88001000000C0040000006080000000B00000C002080000200000800130000500000000000082020000000000008001000000C0005800000010000000000000C00000F6
:8010800000010000000049300060FF30000080009008004003480400200004800010000240200C0001000000000000000000000020000000000000000500000000D00002000048040100000000001002004080000000A00100000CF880010000004040000003202000000000000000000000020000080800000005000000000000A2020063
:8011000000000000000600000000C000000000601000000000000000400000000000008001000048FE0080000000800000C00340000000000008000400160001580004000000000000000000000000000000000000000000000000C0000000000000000000000000000000C080000000E001000010FA8C01000000C04200400360210080F2
:8011800011310106C02808000B22000C010000800000000000000002000000000000000200000000C00018100020124C0800000000000001401300000080010000ABFA843100001680000000A0402100001080108000420C000030000000000000040000000000006001000000000000100000000000224008004002200400000000800061
:801200000080020000000010000039FAE001008007F24000C000780000E0813C8007F00010400040000100000000000000000000001400000000000000000000000030001E000018400F0000000000304000000200000060800000B8F88C01000006C0000000006000008041300806C1201000004000000000000000000000000000000084
:801280000000000000001100000000000018040040000C020000000000800000020000000000000063FF4084000006E0800000007042008001300006C000080000200000000000000000000000000000000000000000000000000000000018000000110C0000000000000800000100000020000000C8FD20000000009002000000480100F6
:80130000000004800010000240104A0081040034000000000000000000000000000000002000000000100052400308000DA0010080001000004000090000A0010000C0FA0000000000004000000000200000000000000000000002200008000030000000000000000000000000000000000000000000000018100300000C80010000000063
:80138000000000000000008001000000F80000000000C08000000060400000000000000000160001580000080030000000000000000000000000000000000000000000C02000080300000C8001000000000000C000010000E0010000A0FB808500000080040000004000000000000006C428080003210048000030000000000000000010C9
:80140000000000000000008811010000000808010300000C80010000000000004013000000800100003AFD8091000000C008000000600400000000118000080C0000300000000080080200000000000010010000000000000890000000C00490041000114002080000C600440080026084000004000030FEE001000000F0400000007820D3
:801480000000000C8007F04010400050000300000C00050000000000009002000000000000E801000000F02006C080180003604000800730000000027800006000010020FD8001000000C0000000006000000000302006C120100000200000000000000600000000000014030000000000008A41000000C000101000600000000000000604
:80150000C0000000026000000000000091FD8005010000C0020100006022000000300126C004080000400000000000000400000000000008020000000000008409000000C0224000006040000000000006C0220000016000002000000078FE1000000000000000000000000000000000000000000000000000000000000000000000000041
:801580000000000000000000000000000000000000000000000000000000000000000000000000000000CCFB20000480001000024000080001200004800010000240000800012000040000000000000000020000000000000021000480001000024000080001200004800010000240000800012000040088FC000000000000000000000059
:801600000000000000000000000000000000000000000000000000000000000000000000000000000000000000000000000000000000000000000000000000000080000018FF2C0004800010000240000800012000048000100002400008000120000400000000000000000000000000000000200004800010000240000800012000048002
:8016800000100002400008000120100400F3F804000000000000000000000000000000000000000011000044008000100000000000000000000000000000000080000000004000080001200004800000000000000000110000440000000071FD2000048000100002000008000120000480001000004000000001200004000000000000007F
:8017000000000000000000000020000480001000024000080001200004800010000200000900000400040028F80C000000000000000000020000000000000000000000000000000000000000000000000000000000000000000000000000000000000000000000000000000000000000000000000080000063FA20000480001000024000A2
:8017800008000120000480001000824200080A012000040000000000000000000000000000000020000480001000024000080001200004800010000240000800012010040008FF000000000000000000000040000000000000000000000000000000000000004000000000000000200020000000000000000000010008000000000000002F
:80180000000000000000000000000000000068FC000000000000000000000000000000000000000000000000000000000000000000400000000000000000000000000000000000000000000000000000000000000000000000000000000000D8FF0000000000000000000000000000000000000000000000000000000000000010000000DD
:8018800000000000080000000000000000000000000002000000000000000000000000000000000000000000A0FE024000000000000000000000000000000000000000400002000000020000000000000000000000000000000000000000000000000000000000080000000000000000000000000000000000B0FB00000000000000000007
:8019000000000000000000000000000000000000000000000000000000000002000000000000000000000000000000000000000001000000000000000000000000000000008020FC00000000000000000000001000000000000000000000000000200100000000000000000000000000002000000000000000000000000000000000000077
:8019800000000000000000000000008000000020FE00000000000000000000000000000000000040200000000000010880000000000000000000000000000000000000001000000040000000000000000000000000000000010008000200000090FC000000200000000004000010000000100800000008048020100002000000000000006F
:801A0000000000000000000000000000400000000000000000000004000000000000000000000000040000000098FC00280020140000001000404140010004200020400210000A40020C80000000000000000000000000000000000000000905A00040500400200A010200000002010000800000206905050000C1F900000400108000001B
:801A800000400000040201100484C0201804004000480240000000000000000000000000000000000000002000000010104203200120280020083040000044820008001501000000FA000000000000000000000000040800100000402010040000000008800000000000000000000000000000000000000000000000000040004000000045
:801B000000002000800000100002000000000000B0FE02000000004000000040000000800000880084000800002000010000000000000000000000000000000000000000000800000040080401000000000008000000000000010010002200008098FC000000000000000000000000000000800000000000000000000000000000000000AA
:801B800000200000000000000000000000000000000000000000000000000000000000000000000000000000000038FD00000000000000000000000000000000000000000000000000000000000010000000000000000800000000000000000000000000000000000000000000000000000000000040000000000048FF00000000002001D0
:801C0000000000800000000000000000000000000200000000000000000000000040000000000000800000000000000000000000000000000400000000000080000000000000000028FC10008000000000000000000000000000000000000000000000000000040000000000000000000000000000000000000000000000000000000000E6
:801C8000000000000000000000000000000000000044FF00000000000000000000000000000000000000000000000000080800000000000000000000000000000000000000000000000000000008002002000000000000000000000000000002000098FD0000000000000000000000000000000000000000000000000000040000000000CC
:801D000000000020000000000000000010000000000000000000000000000000000000000000000000000000000000D8FC00000000000000000000000000000000000000000080000000000400000000000000000000000000000000000000000000001000000000000000000000000000000000000000000000000058FE00000000000075
:801D800000000000008000000000000000000000000000000000000000000000000000000000000000000000000000002000000000000000000000000000000000000000000000000010FD000000000000000000000000000000000000000000000000000000000000000000000000000000000000000000000000000000400000000000F6
:801E00000000000000000000000000000000000000009CFB000000000000000000000000000000000010000000000200000000000000000000000000000000000000000000000400000000001000002000000400000000000000000000000000000000A8FF00000000000000000000002000000000000000000000090000020000000000AF
:801E8000000000000000000000000000000000000000000000000000000000000000000000000000000000000000000010FE00000000000000000000180000000000000000000000000000000000000000000000000000000000001000000000000000000000000000000000000000000000000000000000000000000000FF20000000008D
:801F000000000100000000000000000000000000000000000000000000000000000000000000000000000000000000000000000000000000000000000000000000000000000000000000B8FE00000000008000000000600000000000000000000000000000000000000000000000000000000000000000008000000000000000000000004A
:801F800000000000000000000000000000000000000000F8F908000000000000000000000000000000000000000000000000000000000000000000000000000000000000000000000000000000000000000000000000000000000000000000000000000090FF00000000000000000000000000000000000000000000400100000200000016
:80200000000000000000000000000000000000000020000400100000000000000000000000000000000000000000000000F8FD00000000000000000000000000000020000080000000000000000000000000002000000000000000100000000000000000040000000000400000000000000000000000000000000000000068FC00000000BF
:80208000000000000000000000000000000010000000000000000000000000000000000000000000000000180000001000000000000000000000000000000000000000000000000000000010FF000000000000000000000000000000100000420000000000000000000000000000080000000000000000000800000000000000000800002F
:802100000010040000000000400000000100000000000000E0F9400000000020000000000000020000100800402000000000000000000000000000000000000000000000000000000000080000000000000010000000000000C01100000000000000000000D8FC08000000000000000000000000000000000000100000000000140000006E
:802180000000200000000000000010000000000000000000000000000000000010000000000000000000000000000000000092FB000000000000000000000000000000040000000000000C0000080000000000000000000000000000000000000000000000000000080400000000000000000000000000000000000000000010FF000000DF
:8022000000000000000000000000000000000000000000000000000000000000001001100000000080080000000000000000000000000000000000000000800000000000000000000000040098FA0000000000000000000000000000000000000000000000000002000000000000000000000000000000000020000000000000000000007D
:8022800000000000000000000000000000000000000000008030FF000000000000000000002000000000000802402008408020000008000000000000080040000000000001020010000000100000000000010000000000000000800000040100000020000000C0FC0800000800000000000000000080001000000000008400022001004061
:802300000000000000000040000000000000080010000008000040000000000010000000000000000000000000000080000080CCFE00000020000014080000100A002000041001204004D000134001040001000000001000C00000000000080300180000041000102080820000404001000000142020008C0A0000006000A00060FB0020AC
:80238000005284808850000020000480402004C2401008021360081C0341212000000018068030000000000C0260008041210400218000000B7000081401000014C040BD004022000000008020D0FE000000000000000000001000024020000002400008400020000408200000000000080400200000000004022000804000000002000017
:802400004000200000000000000040000800002000000000000080F800400000812000040000000000000010080001100050001010024100100000000002048020000000000400200000012010000000000001080004800000000210000400800000000000000058F8100000000000020000001800000000000000000000000000000000B3
:80248000000000000000000080000000000000004000000000000000000100000000000000000000000000000000000000000000BCFD00010000000080000000802108000008000020000000000000000000000000000000000000000000000000000040000000000000040000000002000000000020800000000000000000000068FA00C8
:80250000000000000000000000000004000248000020010000000000200000000000000000000000000000000000000000000000002000000000080000000000000000000000000000000000000038FA0000000004000004000000000000000000000000020000080000000000008000000000002000400000000000200000000000000060
:80258000000000000000000000000000000000000000000000000098F900000000000000000000000000000000000000000000000000000000000000000000000000000200000000000000000000004000000000000000000000000000000000020000080000000030F90000000000000000000000000000000000000000000000000000D5
:802600001000000000010000000000000000000000000000000000000000000000000000000000000000000000000000000000000098FF0000000000000000000000000000400000000000004000000000000000000000000000000000000000000100000040000000800000000000000000000000000000000080000000000000004CFAAB
:8026800000000000000000000008000000000000000000004000000001000000000000000000000000000000000000000000000000000000000000002000000000000000000000000000000000000080F800000000000000000000000000080000000000000000840000010000000000000020000000000000000408000000000000000040
:8027000000000000000000000000000000000000000000000000000070FA00000000000000000000000000200000800000000000800000000000000000000000008010000000000000400000000000000000000000000000000000000000000000000000000000000060F9020000000000400000002009000000000000000000000000003B
:80278000000000000000000000000000000000000000100000000000000000000000000000000000000000000000000000000000000058FE0000000000000100000000400000000000000000000000040001000000000000000000000000000000000000000000000000000000000000000000000000000000000000000000004000008865
:80280000FB2000040000000000400308000120000080001004024000000000208004000000000000000000000000000000002010360000D0004240000821010800008000100000400308220120000000C8FD0000000000000000000300000000000000000080000000000000000000000000000000000000000000000000000000300000D3
:80288000C0000010000000000000000000000000000000000080010000B0FB0040000000000000000001000000000000008400000000000000000100000000000000000000000000000000000001310000C0001000004010080200008001000000C0800020000000010038FE8009B02000000000000300002C08000000068042180500002D
:802900000000004100000000000000000000000000000000000009300000C0005004834002480000008000C0800000200000008011000028FE0090000200000000000B622140885100004042200009A000000080200000000000000000000000000000000000800800080000244810202104040000000016008400000B00014084850000BD
:80298000E0FBE0013C1000000000C00078000FE00100800770001EC000000000E0000C20000000000000000000000000000000E0400C000030000EC0033820070800008007F200008000192003E0010000E0F98001301000000000000362000C8001000006008018000300000000803000000000000000000000000000000000000001003E
:802A00000000000000030000000400000006C00000008300000C8081000048FE8049300100000000800060008C8401000026010098040B0100000010B008000000000000000000000000000000000000000000000009930021400000000006C02400000840220C4110000010F920000400001000024000482201A00100800010001A40030B
:802A800000000120000000000000000000000200000000000000210004800610081A40004801210400008000100000400068000020000000D4FE0000300000000000000320000C8001000000000000000300000C000000000000000000000000000000000000000000001006004018000060200000000000000000000000600000000000C1
:802B000000F8FB004000100000000000004200000080000000040018000300000064000000000000000000000000000000000000000020080680201800000000080800000000300000000060400000800000C8FE80093000000000580400600A2C8401000006000018040300000C2000000000000000000000000000000000000000002020
:802B80000106800818000020200800000000001000000000600400801100005BFA0004300000C00880082341414C8001000020000200009000000C88050000000000000000000000000000000000000010062040424000004010840100000020C00400000061040080090100F9F8E0010D2000F0401EC00378000F6280008007342006C889
:802C00000000000FE081000000000000000000000000000000000060401C8001710006C4001A00070000008001F18000C000782000E001000040FF8001301000C00018000361000C8081000006C00000000000000C84010000000000000000000000000000000000800100000000800000034120000000000006C000000003014000808110
:802C80000000CBF98041380200C0001804137081424410000006C12400080000008280010000000000000000000000000000000000802900200000020000230001400100000016C1000000036000008001000008FA30002411000000024000480809200000800010080240600000492410041100000000000000000000000000000020119F
:802D00002501001000020000080001A00104800018001A40000800010000241150F900000000000000000000000000840100000000400000000000000080000000000000000000000000000000000080013008000000000000000000000000000000001800000000000000100058FD0040300000000000000060000C02800080018000001A
:802D8000008200000C000100000000000000000000000000000000000000000000C02006000000000080010C000400001E00000010000000200018FA8C09200900000000000B42080800100080008000190522000008040182400000000000000000000000000000008050100400000202000000000080050600A4C08018000060044C0212
:802E000000300548FA0480301200000080206060222C8091000026401880000100008C843000210000000000000000000000000000000001210800C020180900000080009030210200041800600001400000202258FFE0013C0000000006C00378000FE40100800772001EC80101000FE0000C00000000000000000A000000000000006575
:802E8000000C0000F0001E000018100362003C8003F1401CC00078400F04003C0090FE8C01300000000018000360000C8081000006004018000000000C000000000000000000000000000000000000000001200800C00018000060000C8001300000C00018000362000C00003000A8FF8045300A00000058081362200C880500000600004A
:802F000058042001002C041092100000000000000002000000000000000200820000C04218000060244C0244300000C42218000B60112C02003840B8FD2000048024140002400008000DA00104800494880240120000002000040000000000000000080000000000000024000480009082924000080009240000800012000240030800009F
:802F800020002404C8FE8001000006C00000000000000C8001000006C000000003010000000000000000000000000000000000000000000000000000C00018080000000C0000000000000000000000000000000000A8FA00000100040240000000000000C40100000000200000000000000000000000000000000000040000000000000067
:80300000620000800100400010000000000000000004000000C08000100000003020B8FE8C11B02002C00058040B02000CA00130058240040000110100000000300900000000000000080000000000000024003085004002480083000044080000000402000000006004000000200130FB8409801016C20480002064422C840100111480B3
:8030800002802092000000000400120000000000000000000000000000008081001216802450000001010882110100C200249800230002000000301108FAE0813C8003F0801EC803780003C0013C8001314006C00000000060403C00000000000000001200000000000000E1013C8007340006C403181003E00100800330001E9000794082
:803100000060003C0088FE8C81300006C24018000361000C8401300004800018000200000080013000000000000000000000000000000000840130000680001000036000080840000000C2001800836000000000300020FA401030224720081805236000828001300A0004881802400000008049300A000000000000001000000000000070
:80318000008801300A0600404010A36022400000000010C0001900106014000000B01050FF20003480241200024000000001200000804010001A4000000000A001340000000000000000020000000000000021008408001000024000080001A001249144100200400008000100000000E4FF0000300000000000000300000C000000000008
:803200000100000000000000800100000000000000000014000000000000000A000000000000000000000000800110000604200000000000000000000058FA008000100601400000000000004400000004C00004C000000000800130080000000000000000000000000000008001200800300000000060000CC0012000008040000000005F
:80328000000000000000A0F98C11300004C00858040B010080200000001401228244000000008001308202000000000000020400000000000002202001001000000083001200A201300522810000002304004C02000000FBFF8409310626C44800200300008C84090000C2C0229810230200000010000000000000000000200000000000B7
:8033000000009009100600C01800001064042C8201201284400800001001000004000000C9FDE0010C8007F0001EC08300000FC041008003F00004C00300000060400C10020000000000000801000000000000E0811C0000F00006C40378100FC0013C8001702000C00318400F0000000030FB8801301006C10018040300000C8801000078
:8033800000C0001A0803000000000000200000000000000002000000000000008981000000C00018088360000C8001300004000000008360000C02000000A3FD9011090226C00019811001004C8001000020C128000103000000000000010100000000000084040000000000008011000A00C000580023600A8CA2013821200824000023CF
:8034000060128C0000000048FA000004000000000040020000012000008004904802400068000120000409020000000000002000000000000000250004000010000240000800092100248406100000400008000100000000F0FE000030000000000000000100000000000006C1000000006000000000000004000000000000480000000009
:803480000000000100000000000000000000000C2000000006000000000000000000000000B8FD000000100000000000830000006000000000000000008360000080013C20000000000000000004000000000000880100000000001804006000006000302006C02000000000100000000000E0FB0C00000200000000000200002C08000063
:803500000082401098200060000000440001000000000000008400000000000000094030050000000001830011042100200106000800000060044C0200000062FE0400301200000000000B0000808049000014800881008300142080411008040000000000001002000000000000805100010000081804106012888849301100C0200000D0
:803580002002204008000000A0FF00003C0000000000C00301000FC40100800131001EC803180003E8012800000000000000008000000000000000E4013C200030201EC0037A0003C0013C8001F10000C00078000F0000000070FB0800300000000000000300000C8001000004800018040301000C84413088080000000000001001000069
:80360000000000008041300800C0401808836040088401300000C04000000360100C0200000001F81000300500000000001304008C8801000000014058001300004C800130800000000000000044000000000000008011B00000C00098000B6001208001301100C00800008360012C0000000060FB2000048000000002400000008924004C
:80368000048040D000424400080001208904000400000000000008010000000000002900240200100002000068000D2000008014D200004000080000000034007CFF000030000000000000030000048001000000C400000000000000800100000500000000000082020000000000001100302000000000000060000C0000000006C0000081
:8037000000000000000000300008FA004000000000000000000100080400000004C000181000180000020000000000000000000010000000000000008001000000000000000060000C0080000000C0000000000000000000000090FC8C09B01016020058040300008C8085000014C10040000008002C80283009000000000000004800002C
:8037800000000000000048100400000000000060000C8005000082C0000000136140000000000053FD0408320910000000080302000881113000C200200821086021400011008102000000000000020200000000000091052008000022800400001000028000004400080000100101000000001121FFE0013C800704001EC00000000FE0A2
:80380000413C9003300016C08078000F68403C10000000000000000000000000000000E0410C00003000060000180003E001008001322000C00378400000000C00C0FC8841300006020018040302000C8401300000040008080361000C028130080000000000000020000000000000009001210000C000180000000000804100000402002F
:80388000000083601000000000004BFC9001081126000018800300004E4004320020000058002360000C000830000000000000000000000000000000008011001100C014181000000000800100002000000000036000000000000538F820002480001000004022020049240502800610000241000000012009360000000000000000000064
:80390000000000000000A0010400001000024000080001A0013480009000004000080001A0010000A0F8000000100000000000000000000000000006000000040000000080010000000000000000000000000000000000800100000000000000000000008001300000C02000000000000080010000E0F80000300000000000000300000C9B
:80398000800100000630001E00030000000200080000000000000000000000000000000080010C0000C0001800001800038041300006000000000000100080010000D8FA0000200816020000008A0000480229000006100000088800002C8020040A000000000000001000000000000000880104000000208004830800018001300040414F
:803A00002000000060044C8209010070FD0000B00000C80800002301008C8405000010C0848804130000401011B2200200000000000010010000000000000808B00000C00498002060444C904580004681480000400082009011000098FB60003D9007F04000C00300000FE081008001F10014C08300000F60000800050000000000009099
:803A80000200000000000068403C1000F0201EC4037A000FE0010C8807300000C00078000FE0810000C8FB8001302006C00000000300000C8201010000C00018000302000C020134000600000000000014030000000000000A00300000C00018008360000C0000010006810000000360100C0200010090FD8081300186C0000000A3000021
:803B00002C8001000000C00058041300004C008000420400000000000008020000000000000400300000C08298021360000C8001000046002200008B60024C8001000088F900000000000000000000000000000000000000000001000000000000000200000000000000000000000000000000000000000000000000000000000000000097
:803B8000000000000000000000000000ECFA20000480001000024000080001200004800010000250000800012000042000000000000000020000000000000021000480001000024000080001008004800010000240000800012000040030FC00000000000000000000000000000000000000000000000000000000000000000000000000DC
:803C0000000000000000000000000000000000000000000000000000000000000000000000000000000098FF2C0004800010000240000800012000048000100000400008000120000000000000000000000000000000000000200004800010000240000800012050048000100002400008000120000400C3F9040000000000000000000053
:803C80000000800800000240000800012000008000100000000000000000000000000000000080001000024000080000200004000410000240004010210000000000000051FE200004800010000240000800012080048000100002480008000120000410000000000000000000000000000000200004800010000240000800012040048090
:803D00000010000240000A00012000040038FA080000000000000000000000000000000000000000000000000000000000000000000000000000000000000000000000000000000000000000000000000000000000000000000000000000A3FC300004800010000240000800012000048000100002400008000120000400000000000000B7
:803D8000000000000000000000200004800010000240000800012050048000100042080008000120000400C0FE000000000000200000000000000000000000000000000000000200000004004400000000000102004000100000000000000000000000000000000000000000004000000000200000000000A8FC00000000000000000000CA
:803E0000000000000000000000000000000000000000000000000000000000000000000000008020000000000000000000C00000000000000000000000000000000000000078FB00010000000000000008000000000000000000000002002000000000000000000000004000000000000000200000000000000000000000000000000000E4
:803E8000000000000000000000000000000090F800000010000000000000000000000040000020000010000000008001000000000000000000000000000000000000000000000000000400000000000000000400000000000000000000000060FE00000000020000000000020000040000000000000000000000000000800000000000004B
:803F000080000000000000000000200000000000000002000000000000000008002000400000000000000000F8F9040000000000000000000000000000000000000000000000000000000000000000000000000000000000000000000000000000000000000000200000000000008000400000000000000000B0FB0000080000000000406F
:803F8000000000000200000002024004444000000000010500000000000000000000000000000000000000000000000400800020000000000000010000000000200400010000E8F90000010004000000808000100020800000008000000000000000008000080000000000000000000000000000008000000800414008020040000401002D
:8040000010000400000840802010020400100000FC0800A98000000000C0000240282440010003124004880001000040800920000000000000000000000000000000200000200014800E1000092001080014800003000240000A6A0348000480B8FF0040D00A0280201002B222086082200484C4000090024120000C09E1120400000000A9
:8040800000000000000000000000000025208424011000444040000881012000028150090003604204A200600000FE004010080200200000801000002200000000000000000240000800402000000000000000000000000000000000000000000001000004000000000001000004010008800040000881000000A8F80000000000400008B5
:8041000010020040000000012004010008088000000188800020000000000000000000000000000000804008080200400000802000084400200000402000000120000000001000ACFD00000408000000000000000010800000800400000000000000000000000000000000000000000000000000000000000000004000000800000000004E
:804180000000000000000000000000000000000000FB00000000000080100000000001000000000000000000000000000000000000010000000000000200000000000000000000000000000000000000000000000000000000040000000000000038FA000000000000000000000000000000000000000000100000000000020000000000E8
:80420000000000000000000000000000000000100000000000008000000000000000000000000000000000000000B0FD1000000000000000000001000020000000100000280000000000000042000000004000000000000000200000000000000000000000000000000014000000000000000000000000000000007CFA000000000000006C
:804280000000000000000000000000000020080000000000000010000000000000020000000000000001400000000000000000000000000000000000040000004001000000000000F0FE0000000000000000000000000000000000000000000008000000000000000000000000000000000000000000000000000000000000000000000008
:80430000000000100000000000000000004000000000FA00004000000000000000000002000000000000000000000000000000000000000000000000000000000000000000000000000000080000400001000000800000000002000000000000000048FE180000000000000000000000000000000000000000000200000000000000000086
:804380000000000000000000000000000000000400000000040000000000000000000040000000000000000000000080F902000000000000000040000000000000000000010800000000000000000000000004000000000000000002000000000000000000000000000002000000000000000000000000000000000038F800000000000079
:8044000000000000000000000000000000120000000000000000000000000000000000010000000000000000000000000000000000080000000000040000000080000000000000000080F90000000000000000000000000000000000000000000000000000000000000000000000000000000000000800000000000000100000000000000C
:8044800000000000000100000000000000000000000080FE000000000000000000000000000100000000000000000000000000000000000000000000000000000000000000000020000000200000010000000002000000200000000004000000000020E8FF00000000000000000000000000000000000000000000000000000000000000CE
:80450000000000000000000000000000000000000000000000000000200000000002000000000000000000000000000098FF0000000000000000000028000000000000008000000000000000000000000000000000000000000000000000000000000000000000000000000000001C0000000000000000000000001400F8FC000080000036
:80458000000000000000000000000000000000000000000000000000000000000000000000000020000000000000000000000000000000000080000000000000000000000000000000007CF9000000000000000020000008000000000000000000200000000002000000000200000000000000000000000000002000000001000000000039
:804600000100000000000000000000000000000000000038FD00000000000000108000000000000000000000001040000000000000200000000000000000000000000000000000000000000000000000000000000000000080000000000000080000000068FDC0001000024000000008000004800000000100000000000000043000100034
:8046800000000000000000000000000000000000000800000000008000000000000000000000000000002080008000000018F800000000000000004000000000000002000001000000000000000200004000000000000000000000000000000000000008000000000080000000000000000000000000000010000000000010FC00A06A00CF
:8047000080210000800600001A40010000000000000000000002000020140000000800002000000000000000000000000000000000000001000000000000000000000000D02004002000006AFA020000000104010000000000000000000000000002000A0000100000000000000000000000000000000000000000000000000001100000AB
:804780000000000000000000000000000000000080000000D8FE00000008040000000080020000020404000000000000000000000000000000000000000000000000000000000000000000000000000000000000000000800000000000080000000000000090FF000010800000000010000000000200000000000000000000000000000012
:8048000000000001000000000000040000000000000000000000000400000000000000000000000000000000000008000000C8FD10400000000000000000000000000200000000000000040000000000004000000200000000000000400000002000000000000000020000000000000000000000000000000010000000000098FF8200112E
:8048800020008040000000082000010000040000000208002000040800000000000000040000000000000000000000001000000010000000000000800000080000000082002010040400000080FC00000000010000040000000000000020100041200042800000000040200800000000000000000000000400001000400810004020000403
:8049000080200004020000000200000000000000028200008040FF40800890002040020080102000840004300014805458803200020400052000000000022000000000000400001000000D200010C00010000A000148000090008002008800102003AC00000018FD000000088C80000000A640000C00A502000691880A0783E0080C8961AB
:8049800000250000000C0440300000000002096008402830040041108045702808052140200490003218004020026422040008A0FA00000004000000000080000008000000800001001044002200012080000000000008044020000000000000200000002000008200000400400004004000000000101000001000040200001038FE000005
:804A000000008220000000011000024020000002400000900010100248800010000000000000200000000000022010004010100000400000800010000100101000012004000001000000000000C0FB100000000000000000000880000000000000000000000000000000000000000000000000000000000000000000000000000000000039
:804A800080000100000000800000000000000400000000000000C4FE000000000000000000000000000000000000000004000000000000000800000000000010000000000010020800000000000000000000000000004000000000000010000100000000008000B0F9000000000000000000002000080000000010020000000000000040C5
:804B0000000000000000000000000000000000000000000000000000000000000000240000000000020000800080000000020000F8FE000004000100000000000000000000000000000000020000000800000000800000000020000040000000001000000000000000000000000000000000000000000000000200000000000000E0F9023B
:804B80000000000000000000000000040000000000100000800000000020000000040000000400000000000000000000000000000000000000000008000000000000000000000000000000000000A8FB0000000000000008000000000000001000000000000000000000000000000000000000000000800000000000000000000000800036
:804C0000000000000001000400000000100000000001000104000000FA40400000000000040000000820000000000000000000000000000000000000000000000000000000000000000000050000000000000000000000400000000200000004001000030000000018F8000000000000000000000000000000000000000000000000000005
:804C80000000000000200000100000000010000008000080000000001000000000040000000000000000000000000000000000000030F9000208000000000000000000000001000000002000000000002000000000000000000200000000000000004000000000000000100000000000000000000000000000000000000000000080D0FBC7
:804D000008000000000000000001000000000000000000800000000000000000010000000000008000000000000800000000004100000000000000000000000000000000000000000008000080000018FB000000000000000000008000000000000000000000000000000000000000000000000000000000000002000008000004000000B7
:804D800000000000000000000000000000000000000000000000800078FF000000000000000000000000000000000000000000000100000000000000000000000000400000000000000000000400000020000000000000000000400000000000000000000000002000B8FAA00134000000000000000000000000000000000012200000003E
:804E00000D00000000000000000000000000000000000000000000000000000000000000000000000000000000000000000000000000F0F9800130000000000000000000000000000000000008000000000C000000000000000000000000000000000000000000000000000000000000000000000000000000000000000000000000001067
:804E8000F9E00130080000000000000000000000000000000010100000000F00000000000000000000000000000000000000000000000000000000000000000000000000000000000000000000000000E8FBA00180000000000000000000000000000000000018010000000D00000000000000000000000000000000000000000000000047
:804F000000000000000000000000000000000000000000000000000000A8FB000030060000000000000000000000000000000010050000000000000000000000000000000000000000000000000000000000000000000000000000000000000000000000000000000000A8FE60400C00000000000000000000000000000000001E000000D3
:804F8000000302000000000000000000000000000000000000000000000000000000000000000000000000000000000000000000000000B8F9000000000000000000000000000000000000000018000000000000000000000000000000000000000000000000000000000000000000000000000000000000000000000000000000000000E3
:8050000018FE20008010000000000000000000000000000000009C08000000010000000000000000000000000000000000000000000000000000000000000000000000000000000000000000000000000060FF00000000000000000000000000000000000000009210000000000000000000000000000000000000000000000000000000C4
:80508000000000000000000000000000000000000000000000000000000020FE000000000000000000000000000000000000000000000000000000000000000000000000000C0000000000000006000000000000000000000000000000000000000000000000000000000070FD0000000000000000000000000000000000000000180000FB
:8051000000000000000000000000000000000800000000000000040000000000000000000000000000000000000000000000000000000000D0FA000000000000000000000000000000000000000010090000000000000000000000000000000000000000000000000000000000000000000000000000000000000000000000000000000040
:8051800000B3FC00000000000000000000000000000000000000001820000000000000000000000000000000000000000000000000000000000000000000000000000000000000000000000000000000000029FF00000000000000000000000000000000000000001E00000000000000000000000000000000000000000000000000000082
:8052000000000000000000000000000000000000000000000000000000000078FE0000000000000000000000000000000000000000180000000000000000000000000000000000000000000000000000000000000000000000000000000000000000000000000000000000002BFD0000000000000000000000000000000000000000180858
:80528000000000000000000000000000000000000000000000000000000000000000000000000000000000000000000000000000000000000010FE000000000000000040000000000000A4080000000000000000000000000000000000000000000000000000000000000000000000000000000000000000000000000000000000000000B4
:805300000000F0FF00000000000000000000000000000010000000000000000000000000000000000000000000000000000000000000000000000000000000000000000000000000000000000000000000000088FF00000000000000000000000000000020080000000000000000000000000000000000000000000000000000000000007F
:805380000000000000000000000000000000000000000000000000000000000030FF0C0000000000000000000000000000300000000000000000000000000000000000000000000000000000000000000000000000000000000000000000000000000000000000000000000000E0FB0400000000000000002302000000002011000000000D
:80540000000000000000000000000000000000000000000000000000000000000000000000000000000000000000000000000000000000000000F8FA0000000000000000C00300000000003C00000000000000000000000000000000000000000000000000000000000000000000000000000000000000000000000000000000000000003B
:8054800000000058FC08000000000000000003000000000030000000000000000000000000000000000000000000000000000000000000000000000000000000000000000000000000000000000000000000000090FC1000000000000000000300000000003811000000000000000000000000000000000000000000000000000000000035
:80550000000000000000000000000000000000000000000000000000000000000090FC000034000000000040006800000000240A00000000402200000000000000000000000000000000000000000000000000000000000000000000000000000000000000000000000000000000B8F80000300000000000000060000000000000000000F3
:8055800000000101000000000000000000000000000000000000000000000000000000000000000000000000000000000000000000000000000000E8FB0000380000000000000078000000003000000000000002020000000000000000000000000000000000000000000000000000000000000000000000000000000000000000000000E2
:8056000000000000F0F90C0034000000000000236100000000A0200000000000230000000000000000000000000000000000000000000000000000000000000000000000000000000000000000000000000000000062FD040000010000000000086200000000B00800000000004200000000000000000000000000000000000000000000D2
:80568000000000000000000000000000000000000000000000000000000000000000D8F800000C0800000000C00370000000003C0000000000C0030000000000000000000000000000000000000000000000000000000000000000000000000000000000000000000000000000000020F808000000000000000003600000000030000000E1
:805700000000000301000000000000000000000000000000000000000000000000000000000000000000000000000000000000000000000000000000F1F8100004000000000000A36000000000300400000000800300000000000000000000000000000000000000000000000000000000000000000000000000000000000000000000006E
:80578000000000000088FD000034000000000000000000000000340000000000401202000D0000000000000000000000000000000000000000000000000000000000000000000000000000000000000000000000000014FA000030000000000000000000000000300000000000000000000C000000000000000000000000000000000000E1
:805800000000000000000000000000000000000000000000000000000000000000000020F8000038000000000000000000000000380000000000000301000F00000000000000000000000000000000000000000000000000000000000000000000000000000000000000000000000000B8F80C003400000000000000000000000034000069
:80588000000000002200000D000000000000000000000000000000000000000000000000000000000000000000000000000000000000000000000000007BFA04000009000000000000000000000000090000000000230000400200000000000000000000000000000000000000000000000000000000000000000000000000000000000089
:8059000000000000000019FF00000C0000000000000000000000000C0000000000C00301000300000000000000000000000000000000000000000000000000000000000000000000000000000000000000000000000000C0FB080000000000000000000000000000000000000000000300000000000000000000000000000000000000006A
:805980000000000000000000000000000000000000000000000000000000000000000000B2FE100000000000000000000000000000040000000000000B0400000000000000000000000000000000000000000000000000000000000000000000000000000000000000000000000000000044FC00000400000000000000000000000004008C
:805A00000000000000000000000000000000000000000000000000000000000000000080000000000000000000000000000000000000000000000000000018FB000000000000000000000000000000000000000000000000000000000000000000000000000000000000000000000000000000000000000000000000000000000000000093
:805A80000000000000000098FF00000000000000000000000000000000000000000000000000000000000000000000000000000000000000000000000000000000000000000000000000000000000000000000000000000098FF0C0030120000000000000000000000301200000000000000000000000000000000000000000000000000E8
:805B0000000000000000000000000000000000000000000000000000000000000000000000C0F904000002000000000000000000000080000000000000000000000000000000000000000000000000000000000000000000100000000000000000000000000000000000000000000000000068F800003C1000000000000000000000003CEE
:805B8000100000000000000000000000000000000000000000000000000000000000000080010200000000000000000000000000000000000000000000000080F8080030080000000000000000000000300800000000000000000000000000000000000000000000000000000000000000000601000000000000000000000000000000001B
:805C0000000000000000000030FA1000B0000000000000000000000000B0000000000000000000000000000000000000000000000000000000000000000000260000000000000000000000000000000000000000000000000090F8A00124C00600001A400068000D0000048006D0001A0000000000000034000000000000000000000000DA
:805C8000000000000000348006000000000000000000000000000000000000000000000000007CFD8001100006000018000060000C0000000006C00018000000000000003000000000000000000000000000000000000030000600000000000000000000000000000000000000000000000000B8FDE00120200700001C000078000F000092
:805D0000000007F0001C00000000000000380000000000000000000000000000000000003C800700000000000000000000000000000000000000000000000000F8F8AC0130820600001A002369000D0000309206D0001A0000000000000034000000000000000000000000000000000000348006000000000000000000000000000000006D
:805D800000000000000000000013FC04502000400100000500021480020000214001280005000000000000000A0000000000000000000000000000000000000A060000000000000000000000000000000000000000000000000019FD60003C9001000006C00318000300003C8001300006000000000000000C000000000000000000000073
:805E0000000000000000000C000700000000000000000000000000000000000000000000000000C0F9080030000000000000830000000000300800000000000000000000000000000000000000000000000000000000000000000600000000000000000000000000000000000000000000000000BAFB1000388A00000002000308000000C9
:805E80000030800000000200000000000000040000000000000000000000000000000000000000060000000000000000000000000000000000000000000000000044F9000004A10600001A00006800000000348006D0001A0000000000000034000000000000000000000000000000000000348006000000000000000000000000000000EA
:805F00000000000000000000000080FA000010000600001800006000000000300006C0001800000000000000300000000000000000000000000000000000003000060000000000000000000000000000000000000000000000000040F8000010800700001E000070000000003C8007E0001E000000000000003C000000000000000000004B
:805F8000000000000000000038000700000000000000000000000000000000000000000000000000C8FF0C0030890600001A00006800000000348006D0001A000000000000003400000000000000001000000000000000080034800600000000000000000000000000000000000000000000000000B8FC0400304000010000040000100067
:80600000000000080001200004000000000000000802000000000000000100000000000000000008060000000000000000000000000000000000000000000000000088FA00003C8001000006000018000000000C8001300006000000000000000C0004000000000000100200000000000008000C000700000000000000000000000000007D
:80608000000000000000000000000070F8080030080000000000000000000000000000000000000000000000000080040000000000005002000000000000080000800600000000000000000000000000000000000000000000000000A8FB10003002000000000000000000000000000010000000000000000000000004000000000000009B
:806100000200000000000000000480060000000000000000000000000000000000000000000000000018FC000000000000000000000000000000000000000000000000000000000000040000000000000002000000000000000000004001000000000000000000000000000000000000000000000000A8FF00000000001000004000000041
:80618000012000000000000000400008000020000000000000000000000000000000000000200000800010000240000800012000048000100002400008000120000400C8FC004000080000000000000010000000000000000000000000000000000010000000000000000000000000000000000000000000000000000000000000000000CC
:80620000000000000000000000000000D0FB2C000482A01000425000080201200004A18010148248000800412100040000000000000000000000000000000020000411001200024000080001200004800010000240000800012000040043FE0400000000000000000000200000000000000000000000000000000000000000000000000099
:806280000000000000000000000000001201000000000000000000000000000000000000000000000000C9FB000000000010000040000000002000000000000000400008000120000000000000000000000000000000000000200000800010000240000800012000048000100002400008000120000400D8FC0800000000010000040000EF
:8063000000000000000800012000040000000004000008000000000000000000000000000000000000080000000000000000000000000000000000000000000000000000D2FA30900489001000024000000A412400048200100402400008004120000400000000000000000000000000000000200004810010000240000800012000048015
:8063800000100002400008000120000400F4FC00000000000000000000000000000000000000000000000000000000000000000000000000000000000000000000000000000000000000000000000000000000000000000000000000000098FF00000000000000000000000000000000000000000000000000000000000000000000000097
:8064000000000000000000000000000000000000000000000000000000000000000000000000000000000098FF00000000000000000000000000000000000000000000000000020000000000000000000000000000000000000000000000000000000000000000000000000000000000000000000000000098FD00000000000000000000EE
:80648000000000000000000000000000000000000000000000000000000000000000000000000000000000000000000000000000000000000000000000000000000000000098FF0000000000000000000000000000000000000000000000000000000000000000000000000000000000000000000000000000000000000000000000000005
:80650000000000000000000000000000000098FF00000000000000000000000000000000000000000000000000000000000000000000000000000000000000000000000000000000000000000000000000000000000000000000000000000098FF0000000800000000000000000000000000000000000000000000000000000000000000E5
:806580000000000000000000000000000000000000000000000000000000000000000000000000000000000090FF08400000000000000000000800000000000000000000000000000000000000000000000000000000000000000000000000000000020000000000000000000000000000000000004000000050FD00000115000000000017
:806600000A0040000000A00000000080020000000002000000000000000000000000000000000000000000000000000200000000000000000000000000000000000020000000C8FE00000000000000220000400000000000000000000040000000000000000000000000000000000000000000000000000000000000000002000000000020
:8066800000000000100000000000000000000088F800000000000000000000000000000000000000000000000000000000000000000000000000000000000000000000000000000000000000000000000000000000000000000000000000000098FF080000000000000000002000000000000000000000000000000000000000000000004B
:80670000000000000000000000000000000000000000008000000000000000000000800000000000000000000074F900000000000000000000000000000000000000000000000000000000000000000000000000000000000000000000000000000000000000000000000000000000000000000000000000000098FF000000000000000015
:806780000000000000000000000000000000000000000000000000000000000000000000000000000000000000000000000000000000000000000000000000000000000000000098FF000000000000000000000000000000000000000000000000000000000000000000000000000000000000000000000000000000000000000000000002
:806800000000000000000000000000000000000098FF100000000000000000000000000000000000000000000000000000000000000000000000000000000000000000000000000000000000000000000000000000000000000000000000000000CCFB020000000000000000000000000000000000000000000000000000000000000000A8
:8068800000000000000000000000000000000000000000000000000000000000000000000000000000000000008030FD040040000000000000000000100000000000000000000000000000000000000000000000000000000000000000000000000000000000000000000000000000000000000000000000000000D9FE00000000000000C0
:80690000000000000000000000000000000000000000000000000000000000000000000000000000000000000000000000000000000000000000000000000000000000000000000098FF000000000000000000000000000000000000000000000000000000000000000000000000000000000000000000000000000400000000000000007C
:80698000000000000000000000000000000000000098FB00000000000000000000000000000000000000000000000000000000000000000000000000000000000000000000000000000000000000000000000000000000000000000000000000000098FF00000000000000000000000000000000000000000000000000000000000000006D
:806A00000000000000000000000000000000000000000000000000000000000000000000000000000000000000000098FF00000000000000000000000000000000000000000000000000000000000000000000000000000000000000000000000000000000000000000000000000000000000000000000000000000098FF020000000000E6
:806A8000000000000000000000000000000020000000000000000000000000000000000000000000000000000000000000000000000000000000000000000000000000000000000000B8FF000000000000000000000000000000000000000000000000000000000000000000000000000000000000000000000000000000000000000000BF
:806B000000000000000000000000000000000000000098FF00000000000000000000000000000000000000000000000000000000000000000000000000000000000000000000000000000000000000000000000000000000000000000000000000000098FF04000000000000000000000000000000000000000000000000000000000000E3
:806B800000000000000000000000000000000000000000000000000000000000000000000000000000000000000000009CFF00000000000000000000000000000000000000000000000000000000000000000000000000000000000000000000000000000000000000000000000000000000000000000000000000000098FF00000400005F
:806C000000000000000000000000000000000000000000000000000000000000000000000000000000000000000000000000000000000000000000000000000000000000000000000000D8FF02000000000000000000000000000000000000000000000000000000000000000000000000000000000000000000000000000000000000003B
:806C800000000000000000000000000000000000000000B8FD00000000000000000000000000000000000000000000000000000000000000000000000000000000000000000000000000080000000000000000000000000000000000000000000000000010FF1800000000000000000000000000000010001000000001000000000000008F
:806D000000000000000000000000000000000000000000000000000000000000000000000000000000000000000000000080FF00000000000000000000000000000000000000000000000000000000000000000000000000000000000000000000000000000000000000000000000000000000000000000000000000000098FF00002000DD
:806D8000000000000008080000000000000000000040000000000000000000000000000000000000000000000000000000000000000000000000000000000000000000000000000000000058FD00010000000000000000000000000000000000003000000000000000000000000000000000000000000000000000000000000000000000BD
:806E0000000000000000000000000000000000000000008010FD00000000000000000000000000000000000000000000000000000000000000000000000000000000000000000000000000000000000000000000000000000000000000000000000000000098FF0E0000000040100000010000000000100000000000000008000000000077
:806E800000000000000000000000000000000000000000000000000000000000000000000000000000000000000000000080E8FC160000000000000000002000040000000000400000000000000000000000000000000000000000000000000000000000000200001000000000000400000000000000000000000000000000D8F80030A0FE
:806F0000060CA059508300C800010000680000100030000010100000000000000000000000000000000000000000800000801400000200000000000800000000000000006000000000000000A0FC80000006024102480008200000000010080440001000000002000040300800000000000000000000000000000000040000000000000063
:806F800002000004000000000000100000000000000001000080F940000000812000040000100000000010080010000000000000000020101000000000000000000000000000000000000000000000000000000001000000000000000000000000000000000068F80000000800000000000000000000000000020000080000000000000031
:807000001000000000000000000000000000000000000000000000000080000000000000000000001000000000000020000000B8FD100000000000000000001000000000000000000000000000000000000000000000000000000000000000000000000000000000000000000000000000000000000000000000000000000000DCFA0000A5
:807080000000000000000400000000000040080000000000000000000000000000000000000000000000000000000000004000000000000000000000000000000000000000000000000000000010FB0000002000000000004800000000000480000000001004000000000000000000000000000000000000000000000000000000000000F9
:8071000000000000000000000000000000000000000000000000A8FF000000000000000000000000000000200400000000800000000100000800000000000000000000000000000000000000000000000000000000000000000000000000000000000000000000B0FA1E0000000000000000000000000000000000000000000000000000F3
:807180000000000000000000000000000000000000000000000000000000000000000000000000000000000000000000000000804AFB00000000000000000000000000000010000000000000000000000000000000000000000000000000000000000000000000000000000000000000000000000000000000000000000000000088FF0033
:80720000002000000000000002000000000020000000000000000000000000000000000000000000000000000000000000000000000000000000000000000000000000000000000000000000000098FF0000000000000000000000000000000000000000000000000000000000000000000000000000000000000000000000000000000035
:80728000000000000000000000000000000000000000000000000098FF000040000000000000000000000000000000000000000004000000000000000000000000000000000000000000000000000000000000000000000000000000000000000000000000000000D8FB00000084000000000000000000000000000000000002400000001A
:807300000000000000000000000000000000000000000000000000000000000000000000000000000000000000000000000000000038FD040000000000000000000000000000000000000000000000000000000000000000000000000000000000000000000000000000000000000000000000000000000000000000000000000000D8FB01
:8073800000000000000000000000000000000000000000000000000000000000000000000000000000000000000000000000000000000000000000000000000000000000000000000000000000000098FF000000000010000000000000000000008004140002000048400020000000000000000000000000000000000000200004800610EA
:80740000080040030000012000000000100002000000000020050400E8FC000000000000000000000000000000000002000018000020000080010000000000000000000000000000000000000000000600200000030000000000000000000018000000000080403000C8FA0000000000000000000000000000000000040000000800400087
:8074800000E001000000000000000000000000000000000060000C000730000000000000020000000000300018000000000080013C0058FD000000000000000000000000000000000016C214980000602100000000000000000000000000000000000000000000008006C0200000000000010000000000000040200000000080500000F020
:80750000F80000000000C02800000000000000000000C40002580000404400C00000000000000000000000000000000000008041B00000A80000002004004C8805000000C02200000000000080491800E8F80000000000F0000000000000000000008007F0801E040078000000010000000000000000000000000000000000C0013808018C
:80758000800000400000000EE081000000E0001A0800000000E001200008F80000000000C0000000000000000000000006C400180000600000000100000000000000000000000000000000008001300000800000000300000C8001000000C0001800000000008001280078FE0000000000C0000000000000000000000047C010040800704B
:807600002000800000000000000000000000000000000000008001340000400000000300000D8001000000C000000000000000C081100028FD0000000000D000000000000000000000801410001201004801002001040000000000000000000000000000000020000480061022004003000001000000000010000211000000002050040002
:8076800058FD0000000000C0000000000000000000000000C20000080000200080000000000000000000000C00000000000000060000000600000000000000000000000000000010000000000000000000B8FC0000000000008000000000000000000000060040180400602000600100000000000000000008000000000000004400080018
