:020000040000FA
:80000000FFFF62FF3900FFFFFFFFFFFFFFFFFFFFFFFFFFFFFFFFFFFFFFFFFFFFFFFFFFFFFFFFFFFFFFFFFFFFFFFFFFFFFFFFFFFFFFFFFFFFFFFFFFFFFFFFFFFFFFFFFFFFFFFFFFFFFFFFFFFFFFFFFFFFFF800C9001324006C840110051200A4481B80265048A4011280245804C9001000000000000000000000000000000000C90013200A8
:8000800026C80419280246A00814A8225004400C882A0245A0089001A8FF0017E0025C800B70012A800A50012A4005B4800A50012A4005A8003FE0020000000000000000000000000000000012E0025C001DF0032E4005A80015A00554800AA002544005A80015E00298FF0000000000000000000000000000000000000000000000000076
:80010000000000000000000000000000000000000000000000000000000000000000000000000000000000000000000000000000000098FF0000000000000000000000000000000000000000000000000000000000000000000000000000000000000000000000000000000000000000000000000000000000000000000000000000009850
:80018000FF00012800048000100800000000000000000000000000000000000021200000000000000000000000000000000000002800040030100202000000000000000000000000000000000000200090FD0E8400001002034000000000000000000000000000000000000000544000000000000000000000400000000000000080001092
:800200000200601040000000000000000000000000000000000000A080A3FC20000400001000004000000000000004800000000200000000000000000000000000000000000000000000000000000080000000004020000000000000000010000000000000000000000020FA00000000000000000000000000000000000600000000000003
:8002800000000000000000000000000000000000000000000000000000000000000080000000000000000000000000000000000000000078FF0000001000000000800301000000000088070000160000000000000000000000000000000000000000000000000000000000000000C00000000000000000000000000000000000000000000E
:8003000028F80000B000000000004000000000000030010000000800000000000000000000000000000000000000000000000000000000160200000083000000000000000000000000000000000000000020FD8021000100C040000023020000000080100300000C0000000000000000000000000000000000000000000000000000000016
:80038000200000008002000000000000000000040000000000000000000018FDE0013C1000F00000C00300000000003C000400001000000000000000000000000000000000000000000000000000000080070200000002000000000000000030200000000000000000000030FF8001300000C000000003010000000030000400001000004F
:8004000000000000000000000000000000000000000000000000000000000600000000020000000000000000C0200000000000000000000010FC8001300900C0000000130000000000300902000008000000000000000000000000000000000000000000000000000000002601000000010000000000000000C000000000000000000000D0
:800480000050FF000004000000000040000000000000048000000002000000000000000000000000000000000000000000000000000000000000000040080000000000000000000000000000000000000000FCFF000000000000000000030000000000000000000000000000000000000000000000000000000C000000000000000600008B
:80050000000000000000800000000000000000000000000000000000000000C0FE0000001000000000008300000000000088050000160000000000000000000000000000000008000000000000000400000000000000C0000000000000000000000000000000000000000000C8FD0000B00000000000000300000000003001020000080088
:8005800000000000000000000000000000000000000000000000000000000000000000408B00000000000000000000000000000000000000003BFA00008000000000000080000000000000010300000C0000000000000000000000000000000000000000000000000000000000000000800200000000000000000000000000000000000069
:800600000000D9FD00003C2000000000400000000000003C100400001000000000000000000000000000000000000000000000000000000000000000000002000000000000000000000000000000000000000070FE0000300000000000000000000000003000040000100000000000000000000000000000000000000000000000000000C4
:8006800000000000000000020000000000000000000000000000000000000000FBFC00003008000000000000000000000030080200000800000000000000000000000000000000000000000000000000000000000000000001000000000000000000000000000000000000000098FD10000400000000004001000000000004800000000216
:80070000400804000000000000000000000000000000000000000000000000000000000040000000000000000000108800000000000000000000A8FA00000000000000000082000000000030000000000000000000000000000000000000000000000000000000000000000000000000000000000000000000000000000000000000000001
:8007800000000008FD0000001000000000008300000000000080050000160000020000000000000000000000000000000000000000000000000000000000C003000000000000000000000000000000000000000098FA0C00B00000000000000A0000000000000402000008001100000000000000000000000000000000000000000000008A
:800800000000000000000040030000000000000000004400000000000000000000B0F9040000100000000000000000000000300A0300000C00620000000000000000000000000000000000000000000000000000000000008002000000000000000080480000000000000000000000FB00003C000000000040000000000000340004000090
:8008800010C0010000000000000000000000000000000000000000000000000000000000000001000000000000000030000000000000000000000088FD0C00300000000000000000000000003000040000100003000000000000000000000000000000000000000000000000000000000000000100000000000000000040000000000000AD
:8009000000000000F0FF0000B008000000000000000000000000000200000800010100000000000000000000000000000000000000000000000000000000000002000000000000000000080000000000000000000000FF00000400001000004011040000000004820010000240080100000000000000000000000000000000000000000071
:800980000000000000100000400200000000000000001002000000000000000000000CF80000000000000000000200000000002008000000000000000000000000000000000000000000000000000000000000000000C000000001000000000000000080400000000000000000000048FC00000010000000000003000000000010800500F8
:800A000020160000020000000000000000000000000000000000000000000000000000F0000080020000000000000000008000000000000000000000B8FA0000B00000000000000A0200000000301002C0020800090000000000000000000000000000000000000000000000000000000000000001000000000000000000020000000000C6
:800A80000000000000D3FE0000001100C040000000000000000000000300840C001200000000000000000000000000000000000000000000000000000060000080010000000000000000000800000000000000000000B9FB00003C0000F0000040000000000000040004F00010C0010100000000000000000000000000000000000000009C
:800B000000000000000080000080020000000000000000304000000000000000000000A0FD0000300000C0000000000000000000000004C000100003020000000000000000000000000000000000000000000000000000800000000100000000000000000000000000000000000000001BF80000300A00C00000000000000000000000020D
:800B8000C02808000100000000000000000000000000000000000000000000000000000040000000020000000000000000008200000000000000000000D8FD10008400000000004023000000000004A000100002402100000120000000000000000000000000000000000000000000000010220000000000000000000000100000000000FA
:800C00000000000000003CF9000000100000000000000100000000200000000000000101000000000000000000000000000000000000000000000000000000000000000000000000000000000000000000000000000000B8FF00000010000000008083000000000010800500201600000200000080000000000000000000000000000000F5
:800C8000000000000000003020000000000000000000000000200000000000000000000018FE0C0010000000000040200000000000B01002C00208001000004C810500000000000000000000000000000000000000000000C0020000000000000000000000C004000000000000000000007BF8040020010000000000010000000000000065
:800D00000300080C0008040040080800000000000000000000000000000000000000000000A000000000000000000000000000420000000000000000000079F800001C0800000000C0020000000000040004F04010C00000000FE0810000000000000000000000000000000000000000000080000000000000000000000000F000000000DF
:800D80000000000000000060F90C0030000000000000010000000000000004C02010000200000C82410000000000000000000000000000000000000000000080000000000000000000000000C020000000000000000000004BFC000090080000000000020000000000000002C00808004200008C8011000000000000000000000000000026
:800E0000000000000000000040000000000000000000000000C00800000000000000000000D0FB00009400000000004000000000000004800010000240210200012000000000000000000000000000000000000000000000001028000000000000000000000010000000000000000000000014FB0000100800000000000000000000002022
:800E8000080000000000010000000000000000000000000000000000000000000000000000000000000000000000000000000000000000000000000000000038FF0000001000000000800000000000000090050000160000020000008000000000000000000000000000000000000000000000302000000000000000000000000020000085
:800F0000000000000000000088FE080000000000000040000000000000200202000008000800004C810500000000000000000000000000000000000000000000D0000000000000000000000000C00400000000000000000000E3FE00008000000000000000010000000000000300180C0008010080000001000000000000000000000000F6
:800F8000000000000000000000A000000000000000000000000000800000000000000000000079FD00000C1000000000C00000000000000C0004300010C00000000FE4010000000000000000000000000000000000000000000080000000000000000000000000F0000000000000000000000010FE040020000000000000030000000000D6
:80100000000004C00010000200000C82410000000000000000000000000000000000000000000080000000000000000000000000C0200000000000000000000043FD0000200A0000000000430000000000000002C00009002201002C80050000000000000000000000000000000000000000000040000000000000000000000000C002001D
:8010800000000000000000000030F91000842000000002400000000000000480001010024000000001A0480000000000000000000000000000000000000004000010200000000000000000000000104400000000000000000000FCFA0000000000000000000000000000000000000000000000000000800000000000000000000000000004
:80110000000000000000000000000000000000000000000000000000000000000000000000000010FF000000200000000080000000000000008805008016C0000000000000000000000000000000000000000000000000000000003020000000000000000000000000400000000000000000000028F90C00100200000018510000000000A5
:8011800000300102400408000000004C012800000000000000000000000000000000000000B01000D00400000000000000000000000000000000000000000000003BF804002002000000400040000000000080000380240C0088000040040800000000000000000000000000000000000000800000A00000000000000000000000008000E7
:801200000000000000000000000031FE00001C080000001ED00000000000003C2004700010C00000000F6000010000000000000000000000000000000000003C20008000000000000000000000000030400000000000000000000078FC0C0030000000001804030000000000300804C00010008300000C0241000000000000000000000024
:801280000000000000000000300800800000000000000000000000000080000000000000000000004BFD0000100900000018000B0400000000300002402808002300000C00050000000000000000000000000000000000000030000040000000000000000000000000000000000000000000000000A0FC00001400000000024000000000F6
:801300000000048000500412400000000120080000000000000000000000000000000000000000000010000000000000000000000000100000000000000000000000B8FB0000100800000000000000000000000000004020080000000000000001000000000000000000000000000000000000000000008000000000000000000000000046
:801380000000000000000000000000F0FD000000200000000080030000000000008005008016C00300000000000000000000000000000000000000000000000000000030000000000000000000000000000000000000000000000000F0FD000000020000009842500000000000000002000408008800004C8128000000000000000000109B
:80140000000000000000000800000000D084000000000000000000000000000000000000000000000072FE00008020000000001003000000000000120300100C0013000000044500000200000000000000010000000000000000000000A000000000000000000000000000040000000000000000000008FC00000C000000001EC0030100C7
:801480000000000C0004300014C08300000FE000000004000000000000100200000000000008000000008000000000000000000000000030200000000000000000000028FE000020000000001804030000000000300004802008008300000C8241008004000000000000500200000000000008000000008000000000000000000000000087
:80150000C00000000000000000000000B1FB0000200800000098000B0100000000302002800810000B00004C80100000040000000000000002000000000000000000000040000000000000000000000000C0220000000000000000000058FE10000000000000000000000000000000000000000000000000000000000004000000000000D0
:801580000002000000000000000000000000000000000000000000000000000000000000000000000000ACFF20000480001000024000080001200004800010000240000800012000040000000000000000000000000000000020000480001000024000080001200004800010000240000800012000040098FF000000000000000000000063
:801600000000000000000000000000000000000000000000000000000000000000000000000000000000000000000000000000000000000000000000000000000000000098FF2C0004800010000240000800012000048000100002400008000120000400000000000000000000000000000000200004800010000240000800012000048002
:8016800000100002400008000120000400E3F8040000000000000000000000000000000040040000110000000000000000000000000000000000000000000000000000000000400000000100000000000000000000000000000000000000C9FA20000480001000020000080001200004000010000000000800012000040000000000000013
:80170000000000000000000000200004800040000200010800012000048000100002400008000120000400E0FB0C0000000000000000000000000000000000000000000000000000000000000000000000000000000000000000000000000000000000000000000000000000000000000000000000000000E3F8200004800010000240009E
:801780000C0001200004800012000248000C000120000400000000000000000000000000000000200004800010000240000800012000048000100002400008000120000400F0F9000000000000000000000000000000000000000000000004000000000000000000000000000000000000000000000000000000000000000000000000009C
:801800000000000000000000000000000000D8FF00000000000000000000000000000000000000000000000000000000000000000000000000000000000000000000000000000000000000000000000000000000000000000000000000000098FF0000000000000000000000000000000000000000000000000000000000000000000000FA
:801880000000000000000000000000000000000000000000000000000000000000000000000000000000000098FF080000000000000000000200000000000000000000000002000000000000000000000000000000000000000000000000000000000000000000000000000000000000000000000000000000B0FD00000000000000000098
:8019000004000000000000000010000000000000000000000000000000000000000000000000000000000000000000000000000000000000000000000000000000000000008040FB0200000000000000000000000000000800000000000000000000000000000000000000000000000000000000000000000000000000000000000000008E
:80198000000000000000000000000000000000B0FD000000100000000000000000000000000000000000000010200000200000000000000000000000000000000000000000000000000004001000000000000000000000000000000000000000D8FF00000000000000000800000000000010000201000404000000000000000000000000CC
:801A0000000000000000000000000000000000000000000000000000000000000000800000000000000000000030FA00280010A00000001000000000000004800004000210001020000080000000000000000000000000000000000000000000A00000000C0A100000000000000200940000000000000000000078FB00000000208000001B
:801A80000081420000020000008400001002600000000000000000000000000000000000000000000000000000001000800000020000000000801890000000000000000000000078FF0000000000000000808000000004000000000000000000000000000000000000000000000000000000000000000000000000000000000000000000F6
:801B00000000000000000000000000000000000090FB08000000004000000000080000000000000201000804800000000000000000000000000000000000000000000000000000000000000000000000000000000040000000000000000000008028FE00000000000000000000000000000000000000000000000000000000000000000015
:801B800000000000000000000000000000000000000000000000000000000000000000000000000000000000000098FF00002000000000000000000000000000000000000000000000000000000000000000000000000000000000000000000000000000000000000000000000000000000000000000000000000098FD0000000000000099
:801C0000000000000000000000000800002000000000000000000000000000000000000000000000000000000000000000000000000000000000000000000000000000000000000018FD10000000000000000000000000000000001000004000000000000000000000000000000000000000000000000000000000000000000000000000C7
:801C80000000000000000000000000000000000000CCFE02000000000000000000000000000000000000020000000000000000000000000000000000000000000000000000000000000000000000000000000000000000000000000000000000008030FF100000000000000000000000000000000000000000000000000000000000000057
:801D000000000000000000000000000000000000000000000000000000000000000000000000000000000000000000CCFB00000000000000000000000000000000000000000000400000000000000000000000000000000000000000000000000000002000008000000000000000000000000000000000000000000050F90000080000006B
:801D800000000000000000000000000000800000000000000000000000000000000000000000000000000000000000000000000000000000000000000080000000000000000000000090FF00000000002000000000000000000000000000000000000000000000000000000000000000000000000000000000000000000000000000000034
:801E0000000000000000000000000000000000000000DCF9200000000000000000000000000000000000000000000000000000000000000000000000000000000000000000000000000000400000000000000000000000000000000000000000000000E9FE000000000000000000000000000000000000000000000900000000000000003D
:801E8000000000000000000000000000000000000000000000000000000000000000000000000000000000000000000010FE00000000000000000000000000000000000010000000000000000000000000000000000000000000000000000000000000000000000000000000000000000000000000000000000000000088FF00000000003D
:801F00000000000000000000000000000000000000000000000000000000000000000000000000000000000000000000000000000000000000000000000000000000000000000000000098FF0000000000000000000000000000000000000000000000000000000000000000000000000000000000000000000000000000000000000000CA
:801F80000000000000000000000000000000000000000098FF00001000000000000000000000000000000000000000000000008000000000000000000000000000000000000000000000000000000000000000000000000000000000000000000000000010FE000000000000000000000000000000000000000000000000000000000000AC
:8020000000000000000000000000000000000000002000040000000000000000000000000000000000000000000000000098F900002000000000008000000000000020000000000000000000000000000000000000000000000000000000000000000000040000000000000000000000000000100000000000000000000020F800000000BF
:802080000000000040000000000000000000000000000000000000000000000000000000000000000000000000000000000000000000000000000000000000400000000000000000000000D8FB0000000000000000040000000000001010000000000000000000000100000000000000000000000000000000000000000000000000000068
:802100000000000000000000400100000000000000000000CCFA000000080000000004000000000000100800000000000000000020000000000000000000000000000000000000000000080000000000000000000000000000200100000000000000000080E8FC000000000000000000000000000000000000000000000600000000000081
:802180000000000000000000000000000000000000000000000000000000000000000000000000000000000000000000000098F9000000000000000000000000000000000000000000000000000000000000000000000000000000000000000000000000000000000000000000000000000000002000000000000000000000B8FD00000079
:8022000000000000000000040000000000000000000000000000000000000000000000000000000000000000000000000000000000000000000000000000000000000000000000000000000098FB000000000000000000080000000000000000000000000000000000000000000000000000000000000000000000000000000000000000BF
:80228000000000000000000000000000000000000000000000B2FD000000000000000000000000024000000000000000000100000402000000000000000000000000000000000000000000000000000000000000000000000000000000000000000000000000D8FC0800100880000000000000000000000020024100080480000000400043
:80230000100000000000000000000000000000000000000000000000000000000000000000000000000000000000000000008090FC00000420000400000000000002400000A0001400029000020002240004000000000000000000000000000000000000A000008016000000000000000000001401000000000000000000000050FF0001CA
:8023800020040480001800206208080040100084802010001340100C0200A006000000000000000000000000000000800000000010800000000000000000200030404001000000000000010000B8F900000000000000080000100000002010000000200000010020040200000000000000000000000000000000000040000000000000008E
:802400000000000000000000000040000000000000000000000030FB200010080120000400004040020000000002410008800010000200000808000000000000000000000000000000000000000000000000000000000000080000000000000000000040000000A0FD10000000000000000000000000000000000000000000000000000030
:80248000000000000000000000000000000000000000000000000000000000000000000000000000000000000000000000000000CCFB000000000000000000040000000000000000000000000000000000000000000000000000000000000000000000000000000000000000000000000000000000000000000000000000000000D8FB003E
:802500000008000000000000000000000000800000000100400000001200000000000000000000000000000000000000000000000000000000000000000000000000000000000000000000000000C8FD000010000000000000800400000000000000000000000800000400000000000000000000000000000000000000000000000000001B
:80258000000000000000000000000000000000000000000000000090FE00000000000000004000000000000040000000000000000000000040000000000000000000000000000000000000000000000000000000000000000000000000000000000000000000000098FB00000000000000008000000000000000000000000000000000007A
:802600000000000000000000000000000000000000000000000000000000000000000000000000000000000000000000000000000010FF000000000000000000000000000000040000000000000000000000000000000000000000000000000000000000000000000000000000000000000000000000000000000000000000000000D8FB74
:8026800002000000000000000002000000000000000000000000000000000000000000000000000000000000000000000000000000000000000000000000000000000000020000000000000000000098FD0000000000000000000000000000000000000000000000000000000000000000000000000000000000000000000000000000003F
:8027000000000000000000000000000000000000000000000000000098FF00000000000000020000000000000000000000100000000000010100000000000000000000000000000000000000000000000000000000000000000000000000000000000000000000000098FD08000004000000400000000000000000000000000000000000CD
:802780000000040000000000000000000000000000000000000000000000000000000000000000000000000200000000000000000000D0F9000000040000000000000000000000200000000000000000000000000000000000000000000000000000000000000000000000000000000000000000000000000000000000000000000000F8EE
:80280000FB2005048024110000400068000120003480001000024000680000200004000000000000000000000000000000002080048000120002000000000D000004900090020000000000012000000040FA808000000600000000006000000000300000000000000060000000000000000000000000000000000000000000000000000068
:80288000000000000000000C0000000000C02000000000000000000000E8FF0001000000C04000000000000300003000003000000000600000000001000000000000000000000000000000000001300804320006000000000C000020100000000000000000000240000050F88011322012080800000000000100003000A610001805136188
:802900000000800100000000000000000000000000000000000021000044100002000000000C0000200016441400000000002C8005000008FA0091001004C40201002000044C8849001100C248800010000400000800120000000000000000000000000000008004B00812C042980800000040000010040084480000000000000484000004
:80298000F8FDE0013C8001F00000C00019200FE0010C8007F0001ED003191000E0810C00000000000000000000000000000000E0403C8003F1001E000000000302001C8007300000000000000FE001000090F98001300004C14000008300400C8001000006C00018000300000080013000000000000000000000000000000000000030005A
:802A000000C0001800000000000000001006802000000000000C8001000078FEC005310910C00000000B10020C8001080026C1009804930000008049300A0000000000000000000000000000000088300480C0001800000000000000800026010400000000004C8249000028F9200906800001000200000800012000248200100002400061
:802A8000080000200084080000000000000002000000000000002100048020140000000000000D2000A490000000000000000001000000003CF80000000000000000000000000080010010000000000000000000000000000000000000000000000000000000000000000000000000000000000C00003000000000000000000000000000E4
:802B000000E8FA80010000040400000400000000000031A001000000000018000000003D000000000000000000000000000000000000000004020000000000000C000000000000000000000000000200000070FE0029302024000058000060214C8409208200C014000013090000800100400000000000000000000000000000000000306B
:802B80001204000000000000000C8001120516040000000000002C0000000003FE80058010120800802000604000881130114600800011106002000008100800000000000000000000000000000000080120420004000000000040028020121002000000000000200400000019FAE0813C800300001E000078000F60003D8007F20006C0D5
:802C0000037A2000E001290000000000000000000000000000000060003C80033220000000000003E0010C8007000000000000000F0000000048FD8001300000010018000060000C8001300006C000181003600000800130080000000000000000000000000000008001300000C0000000000000008001201006000000000000000C00004C
:802C8000000073F880893008000000180400600A0CC285B00806C020580083600000804130000000000000000000000000000000008049300820C8220000000000008041000106010000000000000C0200000020FA3005048044110002000048400120000480001000024000080000201000000000000000000000000000000000002000A2
:802D00000480001008004000000001000004804010000040000800812000000000FB808000000600000000002000000000300000000000000000000000400000000000000000000000000000000000000000000000800000000000000000000000010000000000000002000000F0FA00010020000000000400400000800100A001C000185C
:802D800010001800000081000000000000000000000000000000000060000080018000000000000003000000000400000000000000080840000088FB8C1132021208005800006021008001308100001000005308000000090000000000000000000000000000000000200030920080240000000000000000000004C20801000060842880A4
:802E000005000070FD040102100404444008004000008101310A16C004580810600C00804000000000000000000000000000000000008005801016400000002001002C0000000602080400001000018408080000C8FEE0013C800130001E0000782003E0013C8007F2401EC0037A0000E0000000000000000000002000000000000000E5EE
:802E8000013D8007724000C00000000F04000C8003F04000C000794007E081000010FC8C01300004C18018000060000C8281300006C020180003600000000000000000000000000000000000000000008001300006000000000301000C0000302000C00000000360000080010000E8FAC091B00820C00058040070442C8011881006C0040D
:802F000018028B600000004800000000000000000004000000000000008201B00806004000002300000C0000300220C12200004360114082450000A0FF3009A6801001000240000800012000048000100002400008000020018400000000000000002000000000000000240084800010180000000000010000048000D0000040000800094D
:802F80000000040080FC000030080000000000000000000000000000000000000000000080410010000000000000000400000000000000000000080000000000000000000000000000C00000000000000C0200000028FC8001010004040018040002000000000000000000000000180000004000000000000000000010000000000000003A
:80300000840120000680800000000000030000000000C0000000000200000800000858FB0C09101024000000002360214C0400B010A6C01400005308000080080010000000000000000800000000000000084020100081040000000000010000000000C00000001360840400003002D0FF8405202212080018041060402084113020100279
:8030800042000010602400008100000000000000000000000000000000008141104006410200000000000C0400800020014800000801222808000001D8FCE0810C800300001EC00379000FE0013D8007F00006C80379000060000C20000000000000000200000000000000E1011C8007704000000000000F00000C9001300000C0037800E3
:803100000300003C20B8F88C01210800010018000360000C8001300006C000181003600000000100000000000000000008000000000000008441000006014000000000000C000030000600000000036000080000300028F8800500004000001802A3600A8C8201301246C1289800A360000000401041000000000000000000000000000056
:80318000008401000816000000000000000C000030091601000000A36014000200300AA8FC2005248000000002400008000DA001048004D0001A400008000020000400000000000000001200000000000000A101248206900800408008000100000480101400004000080001000004006CFB8080300800000000000000000C800100000652
:80320000C100000000000000000000000000000000000008000000000000008A01300806C040000000000000000000000000000000000000000000000018FB0001000000000000000002000C8001000000C00018C40018000080010000000000000000000000000000000000800100000600000000021A0003000030000402000000000008
:80328000000C00000000C0FE8C111210A6000000002300000C8001000012C100184100000000008430090400000000000004020000000000008401104106404400000A0800010000000424C0820000006081200200000033FC040120221000000005106014000000320144000000020362800080910001000000000000001000000000008D
:8033000000000004200210800000002162428C01003022C2000400002000224C0000000031FCF8010D8007040006C0037A000362003C9001312006C003780000E0013C2000000000000000140000000000000060400C9001312000C00178000F00003C8003F08000C00079000F02000C1090FD8801200006010018008360000000003000B6
:80338000040000000003600000800130880800000000000040040000000000000900200000800000008060000C0000300000C02000000360100C00003000E3FFC00102084600005810236000004000300040010000090360000080513082080000000000000C000000000000000100800800008000000060000C0000301220C20800008BCF
:8034000060044C0100301068FD2009068A000000024090080041201104802010008244026800012000340000000000000000400200000000000028010480C410000040A26800010000048004100000400308000120000400A0FF00000000000000000000000000028000000001000000836000000000000003000000000000900100000009
:80348000000000828100000600000000036000000000000006010000000000000000000000B8FA80012020000000000002000008800100000400001E0000600000000030080000000000000000000000000000000400300000C0000000006200030000300000000000C00000000000000008F0FE0C812000A6000000005200004802410032
:80350000000401000009416000000000B000000000000000000000000000000000824400401201280000016000010000801022C8820000A060810000003002FAFA840510022002000000096008048001320012001808049200010000040004010000000000008A000000000000001031302124C22000000A02128C1000300044000400009B
:803580000300018004908010F0FAF8811C9007000006C801790007E8013C8803310014C00018100364800C0002000000000000100100000000000064003C8001F00000C00018000F00003C9001F2400080007A400360003C0070FE888100000601001808006000008041300000C02018040200000C8001000000000000000000020000008F
:80360000000000000181300804C22000008200000C0000300004C02000008360100C8001300821FC800980081600009800A06000008201300020C10018008000008C844500C00200000000000044020000000000000008300220C00800001000000C0000300800C10200002060010C8421B000F0FA20050480000000424012680001200020
:803680002480061004024020680000A00104000000000000000008000000000000002900048000D0001A400000000D200004800410200240030802012000040034FC8080000000000000048360000080011010060020000080600000800100000100000000000090000000000000001100000000C00018000000000C000000000602000098
:8037000000000010000000000048FC0001002000000010100000000C00002100068000000082600000800100000800000000000002040000000000008001000000C00018000000000C0000300000804000C08040200000400008E8FC8C11320226020090000901004081093004068088180522600000800130090000000000000014000063
:8037800000000000000A90000000C00018008B00000C8085000A828000000010400200800530027BFE0409801010000008094260008C8005A14040400080086100020000400041020000000000000001000000000000808500424000000000000100200280B008044210001123210C200080001081FEF8013D800704000EC00078100FE41A
:80380000013C800171201EC00118100060003C00000000000000000000000000000000E9010C8001312006C403000003E0013C80017000068000380003E2013C00E8FE8801300806010000008260000C82013000000000180400000000000030080000000000000020000000000000008001310006000000008300000080413008040400D1
:8038800018000300000C804130082BFDC001310006000000042070824C40843820000020180090000000000030000000000000000000000000000000008005300A2601000000030000008001300210002218091004118C8801300020F920090682000000124100480489200024860690081A400308000020003400000000000000000000A6
:8039000000000000000020003480049848004000000001000004800010000240004801012000040098FC0000000800000018040000200C0200000006C020000003000000000000000000000000000000000000000000000000300006C000000000000000000000000000000000006010000000000018FC8001202000000000080360200075
:803980000000300006000004000318000060000808000000000000000000000000000000800131000000000000000000030000000006010000000000000C02400008C8FB0021200026020008000041044488852005064024820403000000200004020000000000000010000000000000000810300002424200008B0000000000000040C07F
:803A00000801001321080080053002E8FF8005100220020010100B61800880013100108004580090600C00800931000200000000000010010000000000008811000244828000000801002C0000000146010400030841204C02080001A0FDE0811C9007000006C003780003E2013C9001318004C400780000E00108100500000000000094E2
:803A800002000000000000EA810C9001300000C00300000F04000C8807F08006C00318000FE0013D10D0FC80810000060100100083600008808130100080001A0000600000800134100600000000000010030000000000008841000004840000008300000C0000300006C12018048340000C80413008C0FB80110009260000400403601197
:803B00008082093001000028000400600000800100020400000000000008020000000000008405000040001000001300000C0000B00816C00418001300144C8409300178FE000000000000000000000000000000000000000000010000000000000002000000000000000000000000000000000000000000000000000000000000000000A0
:803B8000000000000000000000000000ECFA20000480001000024000080001200004800010000250000800012000042000000000000000020000000000000021000480001000024000080001200004800010000240000800012000040098FE00000000000000000000000000000000000000000000000000000000000000000000000000D2
:803C0000000000000000000000000000000000000000000000000000000000000000000000000000000098FF2C0004800010000240000800012000048000100000400008000120000000000000000000000000000000000000200004800010000240000800012000048000100002400008000120000400C3FC0400000000000000000000A0
:803C80000000000000000000000002000000000000000400000000000000000000000000000000000000000000000000000000000000000000000000200000000000000089FA38000480001000024000080005200004800250000A4001280001A0001400000000000000000000000000000000A00004800250000A40002800052000048051
:803D00000010000240010A000120000400F0F8080000000000000000000000000000000000000000000000000000000000000000000000000000000000000000000000000000000000000000000000000000000000000000000000000000A3FC20000480001000024000080001200004800010000240000800012000040000000000000010
:803D8000000000000000000000200004800010000240000800012000048000100002000008000120000400D8FF0000000000000000000100000000000000080000004A000000000000001000000000000000000000000000000040000000000000000000000000000000000000001000000100000000000030FC000000000000000000002A
:803E0000000000000000000000000000000000000000000000000000000000000000000000000000000000000000000000000000000000000000000000000000000000000098FF0000000000000000000000000000800000000000020000000000000000001000000000008000080000000020000020000000000000000000000000000051
:803E80000000000000000000800000000000A0FF000000000000000400000000000000000000000000000000000000000000000001000000000000800000000080000000000400000000000000000000010000012000000000000000000000A0FD00010000000000000000000000000000000000000000000000004000000000000000009A
:803F000000000000000000000000800000000000400000000000000000000000000000000000000000000080D0FA00400000000000004000000000000000040020000000000000000000000000000000000000000000000000000000020000000000000000000000080000000000000000000000000000000070F900000000800020000080
:803F800000000000000000200081000000001020002000000000000000000000000000000000000000810000024100000201000000002000000000400000000000008040000080FF0000000002410000008020000042000010004000000041200000420000080000000000000000000000000000000040040000000000840000000800007A
:804000000000040100001000000000000000001CFE804000800016400000000A0080294060300032000040003A2A00680000200000000000000000000000000000004080050001220000D800000045018000800004400010000000004080000040FD0000200084800010004200090021610004A2012818040268B04000401050000000005D
:8040800000000000000000000000000069000620401200008040000C8200210826C0200002002000048000200090FB020000000000000000000000000020000004042002080040200000000900000000000000000000000000000000004000000020000000000100010201002002404000000040000800010000C0FB080010000211000816
:8041000000020240004800011000010008000120000000000000000000000000000000000000000000800001080000200000004000040000200001800000080000000000001080E8FE000000000000000400000000100000000000100000000800000000000000000000000000200000000000000000000000000000000000000000000020
:804180000000000000000000000000000000000030FB000000000000020000000000000000040000000000000000000000000000000000000000000000000000001000000000000000000000000000000000000000000000000401000000000000F8FC00000000000000000000000000000004000000000000004040000000000000000001
:8042000004000000000000000000000000000080000000000000000000000000000000000000000000000000000058FB10000200000000000000200000040000000000000200000000000000040000200000000000000010002004000000000000820001000000000000000000000000000000000000000000000084FE00000000000000D2
:80428000400000000000000000000000000000000000000000000000000000000000000000000000000000000020000000000000000002000000800004000000000800100000000000FC000000000000000000008000010000000000000000000000000000000000000000000000000000000000000000000000000000000000080000003B
:804300000000000000000000000000002000000000A8FC00000000000800000000000000002008000000200000000000000000000000000000000000000000000000000000000000000000000000000000000000000000000000000000002000000030FD280000000040000000000000000000000004000000000000000000000800000068
:8043800000000000000000000000000000000000000000000080000000000000000000000000000000000240000000F0FD000000000000000000000000004000200000000040000000000000000000020000000000000040000000001000000000000040000000000000000000000000000000000400000000000000C8F800000000000018
:8044000000000000080000000000000000000000001000000020000000000008000040000000000000000000000000000000080000000800000000000000000000000000000000000070FE0E800000000000000000000000000000000080000000000000000000000000000000000000000000000000000000000000000000000000000030
:80448000010000000001000000000810000000000000F0F9400000000000000000000000000100000000000000000000000000000000000000000000000000000000000000000000000000000000010000080000000000000000000000001100000000D0FF0000000000000000000000000000000040000000080000000000000000000047
:80450000000000000000000000000000000000000000000000000000000000000000000000000000000000000000000058FB80030000000000000000000000000000000000000000000000000000000000000000000000000000000000000000000000000000000000000000000000000000000000000000000000000018FC000000000051
:804580000000000000000000000000000000000000000800000000000000000000000000000000000000000000000000000000000000000000000014000000000000000000000000000048FB000000040000000000400000000000400000000000000000000000000000000000000200000000000000000000004000000000000000000096
:804600000000000100000000000000000000000000000088FD000000000000000000000000000000000000000000000000000000000000000000000000000000000000000000000204000000000000000000000000000000000000000000000000000000D8FD000000000000000000000000000000000000000000000000000000000000D9
:80468000000000400000000000000000000000000000000000000000000000000000080000200000000000000000000000F0FF000000000000000000800000040000000000400000008000000000400000000000000000000000000000000000000010000000010000000000000000000002002000000102000000400008A0F81A000000AF
:80470000000100000002000000000000000000000000000000000000500000000000000000000000000000000000000004000000000000000000000080000000000000000010000000000010FE0000001000000002000080000000024000000000000000000000000040000008804000000000800040080000000000200000000000000080
:804780000000000000080000000000400000000000004000A0FB00000000000000000000000000800000000000000000000000000005000000100000200000000008000000000000000000000000000000000000000000000000000100000080000000000068F90000400000000000000200000000000000000000000002000000000100B2
:8048000000000000000800000000000000000000000000000000000000000000000000000000800002000000000000012000B0F9000000000200000000000000000000000000000008000000000000000040000000000000000000000010000000000000000000000000000000000000040400100040800020000000000000C8FE80000844
:8048800000000000000000000004000000000000000000410000004000000000000000000020000000000102201000400000022140000000001001080000000220200000002010008000000098FF1A000008802000000400000002400001000200200004000010008040000800000008004080000000000102000040001000000010080061
:80490000800000000200100000000000000100000400001080E0FF402B08200C1400001000000003220001880000800090800150406100012000000008004030000000000C034008208004000122C00200004221020C0004000120400040001020014000040030F98032000004000010040240A01100B10200818111800093280CC428015A
:80498000000100000010068030000000000C00201080002804D2403800004100090C030020261440201006404010088240200450FD80000000000000000400000000000000008000000080801000020000000000000000040020000000000400201000010000042020004000000001080000000020200008000010008280000090FB0040A9
:804A00000000010000040001100000402000000041200000010010008000000000000008044080000000000400000000000410000140000080001004020010200200000810802000040000100860F85064100000000008000400000000000000020000100000000000000000000000000000000000000000000000000000000000000000D3
:804A8000000100000000000000000000000000000004800010008CF900808000002000000000000000000000000000000000000000000000002000000000000000000000000000000000000000000000000000000000000000000000000000000000000000000018FF000000000000000100000001000004800000000000000000000000BF
:804B000000000000000000000000000000000001000100000000010000000000000000000000000000000000000000000000000048FE04000000000000000400400000000120000000000000000000000000201002000030102000000100000800000000000000000000000000000000000000000000000000000000000000000049FC1291
:804B80000200000000000000000000000000000000000000000000000800000000000000000080000000000000020000000000000010000000400000000000000000000000000000000001000000D8FC000000000000002000000000000000000000000020000000001000000000000000010000000000008000000008000000000020000B
:804C0000000000000000000020000000000000000000000000400050F900000800100000000000000000000000000100000000000000000000000000000000000000000000000010000020010000000000008000000000400000000000000000020000024000080068FF0000000000000000200000000000000000000000000000000000AE
:804C80004000000000000000000000000000000400000000000000000000000000000000000040000000000000000000000000000098F9000000000000000000000050000000010000000000000000000000000020000000000000000000000000008000000000000804020000000000000000000080000000000000000002000000C0FB63
:804D00000000000008000000000000001000001000000000000004000000000000000000000000000000000000000000100000002001800000000000000000000000080000000000000000000000001AF92000010000000000000000002000000010000002000400000000000000080000000000000000000000000000000000C00000001C
:804D800000000000000000000020001800000000000000000000000070FD000001800000000000000000000000008000100040400000000000000000000000000000000000000000000000002000000000000000000000000000000000000000000000000000000080F8F9A001040000000000000000000D00000000000000120300000025
:804E00000901000000000000000000000000000000000000A0010000000000000000000000000000000000000000000000000000000008F98001000000000000000000000C0000000000000008000000000400000000000000000000000000000000000000800100000000000000000000000000000000000000000000000000000000501C
:804E8000FFE001000000000000000000000F000000000000001000000000080400000000000000000000000000000000000080010000000000000000000000000000000000000000000000000000000048F9A001000000000000000000000D0000000000000058100000000C00000000000000000000000000000000000000800100000042
:804F000000000000000000000000000000000000000000000000000000F8FB0000B000000000000000000000000000000000009004000000480400000000000000000000000000000000000000100000000000000000000000000000000000000000000000000000000040FC60403C10000000000000000003020000000000001E00000053
:804F8000000F0000000000000000000000000000000000000060400000000000000000000000000000000000000000000000000000000010FB000000080000000000000000000000000000000018000000000C02000000000000000000000000000000000000000000000000000000000000000000000000000000000000000000000000C9
:80500000B8FA20000001000000000000000001000000000000009C080000000E0000000000000000000000000000000000000000000000000000000000000000000000000000000000000000000000000070F80000000000000000000000000000000000000000520000000089040000000000000000000000000000000000002000000043
:8050800000000000000000000000000000000000000000000000000000001CFF000000000000000000000000000000000000000000100000000000000000000000000000000C0000000000000006000000000000000000000000000000000000000000000000000000000060FD0000000000000000000000000000000000000000180800F6
:8051000000000C0000000000000000000000080000000000000064000000000000000000000000000000000000000000000000000000000030FE0000000000000000000000000000000000000000500000000028040000000000000000000000000000000000002000000000000000000000000000000000000000000000000000000000ED
:805180000063FB000000000000000000000000000000000000000018030000000C0100000000000000000000000000000000000080110200000000000000000000000000000000000000000000000000000011F800000000000000000000000000000000000000001E000000000F00000000000000000000000000000000000000E001007F
:8052000000000000000000000000000000000000000000000000000000000010F8000000000000000000000000000000000000000018100000000C0200000000000000000000000000000000000080010000000000000000000000000000000000000000000000000000000013F8000000000000000000000000000000000000000018004C
:805280000000004C0000000000000000000000000000000000000080010000000000000000000000000000000000000000000000000000000050FF0000000000000000000000000D0000040000000012030000000000000000000000000000000000000000000000000000000000000000000000000000000000000000000000000000006C
:80530000000090FC0000000000000000000000000C000000000000000800000000000000000000000000000000000000000000000000000000000000000000000000000000000000000000000000000000000050FB0000000000000000000000000C0000000000000010000000000000000000000000000000000000000000000000000026
:8053800000000000000000000000000000000000000000000000000000000000D0FA0C00000000000000000000000C000030100000005810000000000000000000000000000000000000000000000000000000000000000000000000000000000000000000000000000000000028FB0400000000000000000000004000008000000000102C
:8054000001000000000000000000000000000000000000000000000000000000000000000000000000000000000000000000000000000000000008FB1800000000000000000000000302003C100000001E08000000000000000000000000000000000000000000000000000000000000000000000000000000000000000000000000000099
:8054800000000030FA08000000000000000000000000000030000000001808000000000000000000000000000000000000000000000000000000000000000000000000000000000000000000000000000000000028FE000000000000000000000000000000B0080000001C0000000000000000000000000000000000000000000000000030
:80550000000000000000000000000000000000000000000000000000000000000060FE000034000000000000000000010000040000000052000000000000000000000000000000000000000000000000000000000000000000000000000000000000000000000000000000000000A8FC00003000000000000000000000000000000000006E
:805580000010000000000000000000000000000000000000000000000000000000000000000000000000000000000000000000000000000000000088FC00003C0000000000000000000002000000000000180400000000000000000000000000000000000000000000000000000000000000000000000000000000000000000000000000BD
:805600000000000098FB0C00340000000000000000004000003010000000900000000000000000000000000000000000000000000000000000000000000000000000000000000000000000000000000000000000005AFA0400000100000000000000002C0200000100000018030000000000000000000000000000000000000000000000A4
:8056800000000000000000000000000000000000000000000000000000000000000010FF18000C0800000000000000000300003C100000001E000000000000000000000000000000000000000000000000000000000000000000000000000000000000000000000000000000000000F0F808000000000000000000000000020030000000E0
:80570000001800000000000000000000000000000000000000000000000000000000000000000000000000000000000000000000000000000000000031FD000000000000000000000000000000300A000000582000000000000000000000000000000000000000000000000000000000000000000000000000000000000000000000000031
:80578000000000000080F80000340000000000400000000D000000000000001A00000000000000000000000000000000000000000000000000003400000000000000000000000000000000000000000000000000000024FB0000300000000000000000000C00000000000000180000000000000000000000000000000000000000000000EF
:805800000000003000000000000000000000000000000000000000000000000000000050FA00003C0000000000000000000C000000000000001C00000000000000000000000000000000000000000000000000003C00000000000000000000000000000000000000000000000000000010FA0C00340000000000000301008002000000003E
:8058800000001A000000000000000000000000000000000000000000000000000034000000000000000000000000000000000000000000000000000000D1FB0400000900000000000002000C0000000000000080040000000000000000000000000000000000000000000000000000090000000000000000000000000000000000000000E6
:8059000000000000000049F818000C0000000000C00300000D000000000000000600000000000000000000000000000000000000000000000000000C00000000000000000000000000000000000000000000000000000000FD0800000000000000008300000000000000000000000000000000000000000000000000000000000000000058
:80598000000000000000000000000000000000000000000000000000000000000000000013FF0000040000000000002300000C000000000000000000000000000000000000000000000000000000000000000000000000000000000000000000000000000000000000000000000000000080F8000000000000000000006800010000000081
:805A000000000012030000000000000000000000000000000000000000000000000000800000000000000000000000000000000000000000000000000000F0FA00000000000000000000600000000000000000000800000000000000000000000000000000000000000000000000000000000000000000000000000000000000000000003F
:805A80000000000000000078F90000000000000000000070000A0000000000000010000000000000000000000000000000000000000000000000000000000000000000000000000000000000000000000000000000000000C0FB0C00000000000000000068000500000000000000581000000000000000000000000000000000000000000F
:805B0000000000000000000000000000000000000000000000000000000000000000000000F8FD04000000000000000000001126000000000000005010000000000000000000000000000000000000000000000000000000100000000000000000000000000000000000000000000000000088F818000000000000000000180009020000CA
:805B8000000000001E00000000000000000000000000000000000000000000000000000080010400000000000000000000000000000000000000000000000020FD08000000000000000000000008000000000000001800000000000000000000000000000000000000000000000000000000060100000000000000000000000000000000B6
:805C0000000000000000000008F800000000000000000000000024020000000000005C08000000000000000000000000000000000000000000000000000000260000000000000000000000000000000000000000000000000010F8000000800600001A40006800010000348006D00052000000000D00003400000000000000000000000006
:805C800000000000000000800600000000000000000000040000000000000000000000000000ACFC000000000600001800006000000000300006C00000100000000C0000300000000000000000000000000000000000000000060000000000000000000000000000000000000000000000000058FF000000000700001C000078000A0000B0
:805D0000380007E00018000000000E0000380000000000000000000000000000000000000080070000000000000000000000000000000000000000000000000048FB0C0000800600001A00036100050000348006D00010090000000D000034000000000000000000000000000000000000008006000000000000000000000000000000005D
:805D800000000000000000000031FE040000004001000005106000260000000A4001281803000000800200000A000000000000000000000000000000000000000600000000000000000000300600000000000000000000000000C1F91800008001000006C00372000902000C800130001E000000000300000C0000000000000000000000BB
:805E000000000000000000000007000000000000000000003C0000000000000000000000000000A0F8080000000000000000836000080000000000000018080000000000000000000000000000000000000000000000000000000600000000000000000000300000000000000000000000000000C3FE000000800000000200036000240232
:805E800000048000100018010000000100000400000000000000000000000000000000000000000600000000000000000000300000000000000000000000000000D0F9A00104800600001A00006800090000348006D0001A000000000D0000340000000000000000000000000000000020003480060000000000000000000000000000007C
:805F000000000000000000000000A0FE800100000600001800006000040000300006C00018000000000C0000300000000000000000000000000000000000003000060000000000000000000000000000000000000000000000000008F8E00100800700001E000078000A00003C8007F0001E000000000E00003C00000000000000000000DD
:805F800000000000000060003800070000000000000000000000000000000000000000000000000070FBAC0130C00600001A00006800050000348006D0001A000000000D0000340000000000000000100000000000000008003480060000000000000000000000000000000000000000000000000098FC04400002000100000400001026A1
:80600000000000080001200004000000000200000802000000000000000100000000000080110208060000000000000000000000000000000000000000000000000078F978003C9001000006000018000B02000C8001300006000000000300000C00040000000000001002000000000000E8010C0007000000000000000000000000000080
:806080000000000000000000000000C0FB08003008000000000000000004000000000000000000000000000000008004000000000000500200000000000088010080060000000000000000000000000000000000000000000000000068FE0000300100000000000008002802000000000000020000000000000000000400000000000000ED
:806100000200000000000080010480060000000000000000000000000000000000000000000000000028FC000000000000000000000000000000000000000000000000000000000000040000000000000002000000000000000000004001000000000000000000000000000000000000000000000000A8FF000000000010000040000000B0
:80618000002000000000000000400008000020000000000000000000000000000000000000200000800010000240000800012000048000100002400008000120000400D8FD0040000000000000080000100002000010000000000400000000080000100000000000000000000000000000000000000000000000000000000000000000009E
:8062000000000000000000000000000088FC2C08048AA01000824000080181200004821014140241000800012000040000000000000000000000000000000020000405001200024000080001200004800010000240000800012000040043FE0400000000000000000000200000000000000000000000000000000000000000000000000080
:806280000000000000000000000000001001000000000000000000000000000000000000000000000000C9F9180004000010000040000000012000000000000000400008000020000000000000000000000000000000000000A0000080021000024000080001200004800010000240000800012000040076F808800000000100000400003B
:8063000000000400000800012000000000000000000008000000000000000000000000000000000000080000000000000000000000000000000000000000000000000000DAFA200404890010000240000020812000048000100082480008000124000400000000000000000000000000000000200004810010000240000800012000048015
:806380000010000240000800012000040058F900000000000000000000000000000000000000000000000000000000000000000000000000000000000000000000000000000000000000000000000000000000000000000000000000000098FF0000000000000000000000000000000000000000080000000000000000000000000000002E
:8064000000000000000000000000000000000000000000000000000000000000000000000000000000000018FF00000000000000000000000000000000000000000000000000000000000000000000000000000000000000000000000000000000000000000000000000000000000000000000000000000098FF000000000000000000006E
:80648000000000000000000000000000000000000000000000000000000000000000000000000000000000000000000000000000000000000000000000000000000000000098FF00000000000000000000000000000000000000001000000000000000000000000000000000000000000000000000000000000000000000000000000000F5
:80650000000000000000000000000000000098FE0000000000000000000000000400000000000000000000000000000000000000000000000000000000000000000000000000000000000000000000000000000000000000000000000000009CFF0000000000000000000000000000001000000000000000080000002000000000000000AE
:806580000000000000000000000000000020000000000000000000000000000000000000000000000000000008FF00400008000000000000000000020000000000000000000000000000000000000000000000000000000000000000000000000000000000000000000000000000400000000000000000000090FD00000128000000000034
:8066000000C0000008007800C00000D0026010004001800000000000000000000000000000000000004000100000000000000000000000000000008000000000008001000000C8FF020020000000000000800000000000140000000000000020100800400000000000000000000000000000000000000011000000000000000000000000C0
:80668000000000000000000000000000000000A0F80E0000000000000000000100000000100000000000000008400000800000000000000000000000000000000000000004000000000000000000000000000000000000000000000000000000E0F80200100000000000000000000000000000000000000000000008000000000000000025
:80670000000000000000000000000000000000000000000000000000000000000000000000000000000000000030FC00000000000000000000000000000000000000000000000000000000000000000000000000000000000000000000000000000000000000000000000000000000000000000000000000000098FF000000000000000056
:806780000000000000000000000000000000000000000000000000000000000000000000000000000000000100000000000000000000000000000000000000000000000000000088FF000000000000000000000000000000000000000000000000001000000000000000000000000000000000000000000000000000000000000000000001
:806800000000000000000000000000000000000088FE100000000000000000000000000000000000000000000000002000000000000000000000000000000000000000000000000000000000000000000000000000000000000000000000000000ECF90000000000000000000000000000000000000000000000000000000000000000007D
:8068800000000000000000000000000000000000000000000000000000000000000000000000000000000000000098FF00000000000000000000000000000000000000000000000000000000000000000000000000000000000000000000000000000000000000000000000000000000000000000000000000000098FF80000000000000EA
:80690000000004000000000040000000000800000000000000000000000000000000000000000000000000000000000000000000000000000000000000000000000000000000000098FB0200002000000000000000000000000000000000000000000000000000000000000000000000000000000000000000000000000000000000000016
:806980000000000000000000000000000000000000BAFF000000000000000000000000000000000000000002000000000000000000000000000000000000000000000000000000000000000000000000000000000000000000000000000000000000B8FF08000000000000000000000000000000000000000000000000000000000000001D
:806A00000000000000000000000000000000000000000000000000000000000000000000000000000000000000008018FF00000000000000000000000000000000000000000000000000000000000000000000000000000000000000000000000000000000000000000000000000000000000000000000000000000098FF000000000000E8
:806A800000000000000000000000000000002000000000000000000000000000000000000000000000000000000000000000000000000000000000000000000000000000000000000098FD040000000000000000000000000000000000000000000000000000000000000000000000000000000000000000000000000000000000000000DD
:806B0000000000000000000000000000000000000000D8FB00000000000000000000000000000000000000000000000000080000000000000000000000000000000000000000000000000000000000000000000000000000000000000000000000000010FF000000000000000000000000000000000000000000000000000000000000002B
:806B8000000000000000000000000000000000000000000000000000000000000000000000000000000000000000000098FF000000000000000000000000000000000000000000040000000000000000000000000000000000000000000000000000000000000000000000000000000000000000000000000000000000D8FB000000000027
:806C00000000000000000000000000000000000000000000000000000000000000000000000000000000000000000000000000000000000000000000000000000000000000000000000098FF000000000000000000000000000000000000000000000000000000000000000000000000000000000000000000000004000000000000000079
:806C800000000000000000000000000000000000000000FAFD080000000000000000808000000000000000000020000000000000000000000000000000000000000000000000000000000800000000000000000000040000000000000000000000000000D0F90000000000000000000000000000001000001100000000000000000000007F
:806D000000000000000000000000000000000000000000000000000000000000000000000000000000000000000000000088FE00000000000000000000000000000000000000000000000000000000000000000000000000000000000000000000000000000000000000000000000000000000000000000000000000008010FF00002000DE
:806D8000000000000000000000000000000000000000000000030000000000000000000000000000000000000000000000000000000000000000000000000000000000000000000000000098FE04000000000000000000000000000000000000000000000000000000000000000000000000000000000000000000000000000000000000F6
:806E00000000000000000000000000000000000000000000D8FB00000000000000000000000000000000000000004000000000000000000000000000000000000000000000000000000000000000000000000000000000000000000000000000000000000098FB000000008040000000000800000000000000000000000000400000000064
:806E80000400000000000000000000000000000000000000000000000000000000000000000000000000000000000000008090FB0C001008000000000000200000020000000000000000000000000000000000000000000000000000000000000040000000020000000000000000000000000000000000000000000000008012FA0030043B
:806F0000260C22000000511800000800600000000000000000200000000010000000000000000000000000000000200000851400000000000000000005000000000030000000000000000000A0FE800180000240021A00006800000000100004A000101000000000000130000000000000000000000000000000008000000C0000000000D8
:806F800000000000000400000000000000000000000000000088F840000000012000040000200000000010000000000000000000000000200000000000000000000000000000000080000020000000000000000000000000000000000000000000000000000068F820000000000000080000100000000000000240000800000000002000B6
:807000001000000000000000000000000000000000000000100000000000000000000000000000000000000000000000000000C0FD100000000000000000001000000000000000000000000000000000000000000000000000000000000000000000000000000000000000000000000000000000000000000000000000000000DCFA00003D
:807080000000000000000000000000000000000000000000000000000000000000000000000000000000000000000000000000000100000000000000000000000000000000000000000000000088FF0000000000000004000800000000000000000000000000000000000000000000000000000000000000000000000000000000000000FC
:807100000000000000000000000000000000000000000000000090FB00000000000000000000000000000020000000000400000000000000080000000000000000000000000000000000000000000000000000000000000000000000000000000000000000000070FF1C0000000000000000000000000000000000000000020000000000CB
:8071800000000000000000000000000000000000000000000000000000000000000000000000000000000000000000000000008068F900000000000000000000000000000000000000000000000000000000000000000000000000000000000000000000000000000000000000000000000000000000000000000000000000000098FF0017
:80720000000000000000000000000000000000000000000000000000000000000000000000000000000000000000000000000000000000000000000000000000000000000000000000000000000098FF0200000000000000000000000000000000000000100000000000000000000000000000000000000000000000000000000000000065
:807280000000000000000000000000000000000000000000000000B8FC00004000000000000000000000000020000000000020000000000000000000000000000000000000000000000000000000000000000000000000000000000000000000000000000000000098FB100000800000000000000000000000000000000000000000000433
:807300000000000000000000000000000000000000000000000000000000000000000000000000000000000000000000000000000008FB00000000000000000000000000000000000000000000000000000000000000000000000000000000000000000000000000000000000000000000000000000000000000000000000000000098FF73
:8073800000000000000000000000000000000000000000000000000000000000000000000000000000000000000000000000000000000000000000000000000000000000000000000000000000000098FF0000008000901802400008000100000480000000024020040C01003004000000000000000000000000000000000000340000D054
:80740000001A0000000000000000000000000040000000000000000030FB0000000000400000000300000000000000000000000000080000200000000000000000000000000000000000000000300000C000180000000000000000000000000000000000000000000038FC00000000008040000000001000000000000000000010005900A7
:807480000060010C000000000000000000000000000000000000300000C0001E00000000000000000000000000C0000000000000000098F80000000000C0080000436002000000000026040058002020002C900000000000000000000000000000000000000000300000C0001A000000000000000000000000000000000000000000009834
:80750000FE0000000016800018020B02222C0200B0104000000001205200004001B000000000000000000000000000000000000080080000240000000000000000000000000000000304000000000000F0FE0000008007F2801EC00378000F00003C800702001EC80040000F08013C0800000000000000000000000000000000000C000047
:8075800030000604000000000000000000000000C00300000000000000F8FB0000000006C08018000361000C0000300006000018000050000C40813000000000000000000000000000000000000000000000000000000000000000000000000000000300000000000000E8F90000000006E00018802060120C00003000060800980409242B
:80760000444C82103000000000000000000000000000000000000000000000000000000000000000000000000000000300000000000000B0FF0000348006100200400008000120000480000000020000000C0100303400000000000000000200000000000000010000000000000000000000000000000000000012020000000000000000C3
:80768000F0F8000030000600400000000000000000300000000000000008000020003000000000000000000000000000000000000000000000000000000000000000000000000008000000000000000000D8FB0000380000C0000000000110000000000000000000100058000060013C0000000000000000000000000000000000000000BB
