:020000040000FA
:80000000FFFF62FF3900FFFFFFFFFFFFFFFFFFFFFFFFFFFFFFFFFFFFFFFFFFFFFFFFFFFFFFFFFFFFFFFFFFFFFFFFFFFFFFFFFFFFFFFFFFFFFFFFFFFFFFFFFFFFFFFFFFFFFFFFFFFFFFFFFFFFFFFFFFFFFF800C9001324006C840110051200A4481A8025504880011200244804C9001000000000000000000000000000000000C9001320013
:8000800026C80419280245A00814A8225004400C8820024480089001F8FF0017E0025C800B70012A800A50012A4005B4800A50012A4005A8003FE0020000000000000000000000000000000012E0025C001DF0032E4005A80015A00554800AA002544005A80015E00298FF0000000000000000000000000000000000000000000000000052
:80010000000000000000000000000000000000000000000000000000000000000000000000000000000000000000000000000000000098FF0000000000000000000000000000000000000000000000000000000000000000000000000000000000000000000000000000000000000000000000000000000000000000000000000000009850
:80018000FF000120000480001000000000000000000000000000000000000040212000000000000000000000000000000000000028000500101002020000000000000000000000000000000000002000B0F80E80000218000A4008000000000000000000000000000000000000048110000000000000000000400000000000000080001052
:800200001000428200000000000000000000000000000000000000809063FC00000000000000000000000000000000000000000200000800000000000000000000000000000000000000000000000000000000004000000000000000000010020000000000000000000028F9000000000000000000000000000000000000000018000000A6
:8002800000000000000000000000000000000000000000000000000000000000000000000000000000000000400000000000000000000058FA00000000000000000000000000000000000000001E00005800000000000000000000000000000000000000000000000000000000008000000000000000000000400000000000000000000036
:8003000030FF00000000000000000000000000000000000000000000002000000000000000000000000000000000000000000000000000000000004000000000000000000000080000000000000000000010F900000000000000000000000000000000000000000C00003000000000000000000000000000000000000000000000000000A1
:800380000000000000430000000000000000800000000000000000000000A8FF00000000000000000000000000000000000000001000004000000000000000000000000000000000000000000000000000000000008003000000000000000030400000000000000000000050FD0000000000000000000000000000000000000000100000F3
:8004000040000000000000000000000000000000000000000000000000000000000000030000000000000000008000000000000000000000A0F90000000000000000000000000000000000000000080000200000000000000000000000000000000000000000000000000000000000000300000000000000000008000000000000000000ED
:8004800000A0FE200004800000000000000000000000040000000002000008000100000000000000000000000000000000000000000000000000000040000000000000000000100000000000000000000000CCFA000000000000000000000000000000000000000000000000000000000000000000000000000C0000000000000006000083
:8005000000000000000000000000000000000000000000000000000000000070FD000000A0010000000000000000000000080000001600005800000000000000000000000000080000000000000004000000000000008000000000000000000000000000000000000000000010FE000030020000000000000000000000B000000000080073
:800580000020008C100000000000000000000000000000000000000000000000000000400000000000000000000000000000000000000000003BFE00108200060100000000000000000080000000000C00003000200800000000000000000000000000000000000000000000000000000003000000000000000000800000000000000000C6
:800600000000F9FB60003C2007000000000000000000003C2000000010000040000F00000000000000000000000000000000000000000000000000000080830000000000000000300000000000000000000000C0FC800130000600000000000000000000300000000010000040000C000000000000000000000000000000000000000000D6
:8006800000000000000000030000000000000000C0000000000000000000000063FA808530080600000000000000000000300800000008000020000C02000000000000000000000000000000000000000000000000000000030000000000000000C0220000000000000000000058FA3000040000000000000000000000001409000000029F
:8007000000000800010000000000000000000000000000000000000000000000000000004000000000000000000010020000000000000000000080FD00000000000000000000000000000010000000000000000000000000000000000000000000000000000000000000000000000000000000000000000000000000400000000000000051
:80078000000000C8FB600000200000000000000000000000002000000016000058000000000000000000000000000000000000000000000000000000000080000000000000000000004000000000000000000000D0FD2C0030020000000000000000000000800000000008000020008C1000000000000000000000000000000000000000F9
:800800000000000000000040000000000000000000000800000000000000000000D8F984450001000000000000000000000000060000000C00003000400000000000000000000000000000000000000000000000000000000023000000000000000080840000000000000000000010FDC0013C1000000000000000000000000C00000000C6
:8008800010000040000F08000000000000000000000000000000000000000000000000000080830000000000000000300000000000000000000000C0F88C0130000000000000000000000000200800000010000040000C00000000000000000000000000000000000000000000000000000000030000000000000000000000000000000062
:800900000000000040FB8001B0080000000000000000000000200100000008000020002C02000000000000000000000000000000000000000000000000000000030000000000000000004400000000000000000000C0FB200004800000000000000000000000040000000002000008000100000000000000000000000000000000000000D7
:80098000000000000000000040000000000000000000000000000000000000000000DCFA00000000000000000000000000000000000000000000000000000000000000000000000000000000000000000000000000000000000000000000000000000000000000000000000000000098FF0000002000000000000000000000000008000022
:800A0000001600005800000000000000000000000000000000000000000000000000000000008000000000000000000000000000000000000000000058FB804130020000000000000000000000B00000000008000020008C10000000000000000000000000000000000000000000000000000040000000000000000000000000000000008E
:800A80000000000000FBFB00840004460000000000000000000000010000000C0000300080000000000000000000000000000000000000000000000000000000000B000000000000000000000000000000000000000071FDE0013C8007020000000000000000003C1000000010000040000F040000000000000000000000000000000000A7
:800B00000000000000000000008083000000000000000000000000000000000000000080FE800130000600000000000000000000300000000010000040000C00000000000000000000000000000000000000000000000000000000030000000000000000000000000000000000000000A3FA8051300A0600000000000000000000300A00C6
:800B8000000008000020008C02000000000000000000000000000000000000000000000000000000030000000000000000000000000000000000000000C8FB3000040000000000000008440000000400001000020000080001000000000000000000000000000000000000000000000000000000400000000000000000001000000000008A
:800C000000000000000084FE00000000000000000000000000000000000000000000000000000000000000000000000000000000000000000000000000000000000000000000000000000000000000000000000000000098FF00000020000000000000000000000000080000201600005800000000000000000000000000000000000000A5
:800C8000000000000000000000008000000000000000000000000000000000000000000078F98C4130020000000000002084000000B00000C00008000020008C10000000000000000000000000000000000000000000000000000040000000000000000000C020000000000000000000007BFF0490000100000000000000410000000012AA
:800D00000000080C000030000001000000000000000000000000000000000000000000000000000000130000000000000000004200000000000000000000F9FBE0013C2000000000000038000000003C0000F04010000040000F00000000000000000000000000000000000000000000000000000080830000000000000000F000000000B2
:800D800000000000000000A8FF8C4130080000000000004000000000300800C02010000040000C02000000000000000000000000000000000000000000000000000000030000000000000000C020000000000000000000004BF8801130020000000000002024000000300200C00808000020008C00000000000000000000000000000000B6
:800E0000000000000000000000000000030000000000000000C0080000000000000000000048F920001482000000000000680000000004000010000200000800213000000000000000000000000000000000000000000000100000004000000000000000000010000000000000000000000024FF00001008000000000000600000000000DE
:800E80000000000000000000000000000000000000000000000000000000000000000000000002000000000000000000000000000000000000000000000000D0F840000000010000000000000000000000000000201600005800000800010000000000000000000000000000000000000000010000008000000000000000000000000000CF
:800F0000000000000000000010F8280000840000000000000000000000000000C000080000200000801100000000000000000000000000000000000000008000000000400000000000000000000000000000000000000000000BFF80210002060400000000601200000000000000100C00003000000290000000000000000000000000007D
:800F800000000000000000002600000000930000000000000000008000000000000000000000E1FBC0010C2007000000000078000000000C1000F000100000400003E001000000000000000000000000000000000000000080070200008003000000000000000030000000000000000000000058FE84012000060000000000602000000073
:80100000300000C02010000040000082410000000000000000000000000000000000000000000600000000030000000000000000C00000000000000000000000D3FAA001A0880600000000007000000000302000C00208000020000880050000000000000000000000000000000000000000000600000000030000000000000000C02400C4
:8010800000000000000000000098F93000148100000000000048440100001402001000020000080085A04400000000000000000000000000000000000000048000000000400000000D000000800610000000000000000000000024FE80011008000000000000000000000010080000000000000000048200000000000000000000000000B4
:8011000000000000000000000000000000000000000C000000000600000000000000000000000008FF0040001001000000000060000300000000000000160000580000040000000000000000000000000000000000000000002000040000800000000F0000000007000000000000000000000000D8FC8C1100810000000000004021000023
:80118000000010000000080000200040008400000000000000000000000000000000000000B00016000000400000000C0000008006C02000000000000000000000FBFA8481002016010000000060240C020000040000000C0000300000108800000000000000000000000000000000000000800020000000008B00000C000000000600485B
:8012000000000000000000000000B1F960000C0007000000000078000F00000C000030401000004000036000000000000000000000000000000000000000003CA007020000800300000E0000000007F0000000000000000000000090F98C01200806000000000060000C0000200000C0001000004000080041000000000000000000000005
:801280000000000000000000300806010000000300000C0000000006C020000000000000000000009BFBC051200206000000000060220C0000200A00C084080000200028020900000000000000000000000000000000000000300006000000000300000C0000000006C0000000000000000000000088F820008488000000000000080001D4
:80130000000004000050240200004800452000000000000000000000000000000000000000000080060000004000000000000000800000000000000000000000000038F90000000000000000000000000000000000004000000000200004020000000000000000000000000000000000000000000006000000000000000000000000000063
:801380000000000000000000000000F8FF8001002001000000000000000000000008000040160000580000000001000000000000000000000000000000000000000006000000C000000000000000800100000000000000000000000080FC005000800000000000000000000000B00000000208000020000088110000000000000000001087
:80140000000000000000000800000006000000000000000000000000000000000000000000000000004AFE80490002460100000000600140000080100000180C000030008004840000020000000000000001000000000000000000008600000000A3000000000000004601000000000000000000000008F9E0010C10070000000000782067
:801480000308003C00003000100000500003E001000004000000000000100200000000000008000080070000008003000000000000000700000000000000000000000008FA8001000806000000000060000C040030080080201000002000088241008004000000000000500200000000000008000000000100000003000000000000000646
:80150000000000000000000000000000B1FD8045200006000000000060004C000030010080020800004000888009000004000000000000000200000000000000000000100000000003000000000000000600000000000000000000000030F810000000000000000000000000000000000000000000000000000000000004000000000000BF
:801580000002000000000000000000000000000000000000000000000000000000000000000000000000ACFF80000480001000024000080001200004800010000240000800012000040000000000000000000000000000000020000480001000024000080001200004800010000240000800012000040038FF000000000000000000000063
:801600000000000000000000000000000000000000000000000000000000000000000000000000000000000000000000000000000000000000000000000000000000000098FF2C00048040180002400008000120000480001000024000080001200004000000000000000000000000000000002000048000100002400008000120000480BA
:801680000010000240000800012000040023FC04000100100400000000000000000000000000008008000022000000000000000000000000000000000000000000000000000000000008040000080000001008000000000000000000000081FCA00004000210000240000800012000048000100000400000000120000400000000000000C6
:8017000000000000000000000020000480001000024001080000200004800210000240000800012000040018FD0C00000000000000000000000004000000000000000000000000000000000000000000000000000000000000000000000000020000000000000008000000000000000000000000000000004BFC00000480001000024000F9
:801780000800212000048000100002420008080120000400000000000000000000000000000000200004801010000240000800002000048000100002400008000120000400B0FD4000000000000000000000000000000000000000000000000000000000000000000000000000000000000000000000000000000000000004000000000071
:801800000000080000000000000000000000D0FB00000000000000000000000000000000000000000000000000000000000000000000000000000000000000000000000000000000000000000000000000000000000000000000000000000098FF00000000800000000000000000000000000010000000000000000000000000000000006E
:801880000000000000000000000000000000000000000000000000000000000000000000000000000000000080FF08000000000000000000000000000000000000000000000000000000000000000000000000000000000000000000000000000000000000000000000000000000000000000000000000000090FF000000000000000000D2
:8019000000400000000000000000000000000000000000000000000000000000000000000000000000000004800000000000000000000000000000020000000000000000000090FD020000000000000000000000000000400000000100000000002000000000000000000000000000000000000000000000000000000000000000000000B1
:80198000000000000000000000000000000000D8FE00000000000000000000000000000000000000000080800000000000000000000000000000000000000000000000000000000000021000000000000000000000000000000000000000000010FC00000000000000000000000000000010000000000804002010000000000000000000A7
:801A0000000000000000000000000000000000000000000000000000000000000004000040000100000000000048FD000000000000000000000000000000040000000002900009400000000000000000000000000000000000000000000000000000000408000000000000000000842200400002000000000000B8FB000000D2000A00007A
:801A800000010000000200000000000010045040080000000000000000000000000000000000000000000000000000000800000000000000000080001008020200000000000080F8FB00000000000000008000000000040000000000000010000000000000000000000000000000000000000000000000000000000000020000000000008A
:801B00000000000000001000000000000000000000F8080000000000000000000000000000000000000008000021100000000000000000000000000000000000000000000000000000000000000000000000000000022000420000000000000080BCFB00000000000000000000000000000000000000000000000000000000000000000081
:801B800000000000000000000000000000000000000000000000000000000000000000000000000000000000000098FF00000000000000000000000000000000000000000000000000000000000000000000000000000000000000000000000000000000000000000000000000000000000000000000000000000098FF00000000000000B7
:801C0000000000000000000000000000000000000000000000000000000000000000000000000000000000000000000000000000000000000000000000000000000000000000000098FF100000000000000000000000000000000000000000000000000000000000000000000000000000000000000000000000800000000000000000003D
:801C800000000000000000000000000000000000004CFB02000000180000000000000000000000000000000000000000000800000000000000000000000000000000000000000000000000000000000000000000000000000000000000000000008028FC0000000000000000000000000000000000000000000000000000000000000000D7
:801D00000000000000000000000000000000000000000000000000000000000000000000000000000000000000000098FF1000080000000000000000000000000000000000000000000000040000000000000000000000000000000000000000000000000000000000000000000000000000000000000000000000000CFB000000000008A1
:801D800000000000008000000000000000000000000000000000000000000000000000000000000000000000000000000000000000000000000000000000000000000000000000000090FF000000000000000000000000000000000000000000000000000000000000000000000000000000000000000000000000000000000000000000D4
:801E000000000000000000000000000000000000000098FF00010000000000000000000000000000000000000000000000000000000000000000000000000000000000000000000000000000000000000000000000000000000000000000000000000098FE0000800000000000000000000000000000004000000000000002000000000072
:801E8000000000000000000000000000000000000000000000000000000000000000000000000000000000000000000050FD200000000000000000000000000000000000000000000000000000000000000000000000000000000000000000000000000000000000000000000000000000000000000000000000000000B8FF0000000000BE
:801F00000000000000000000000000000000000000000000000000000000000000000000000000000000000000000000000000000000000000000000000000000000000000000000000089FE0000000000000000000000000000000000000000000000000002000000000000000000000000000000000000000000000000000000000000D8
:801F800000000000000000000000000000000000000000DCF900000000000000000000000000000000000000000000000000000000000000000000000000000000000000000000000000000000000000000000000000000000000000000000000000000098FF00000004000000000000000000000000000000000000000000000020000051
:80200000000000000000000000000000000000000000000400000000000000000000000000000000000000000000000000F8FF00006000000000000000000002000020000000000000000000000000000000000000000000000000000000000000000000040000000000000000000000000000000000000000000000000098FF0000000048
:802080000000000000000001000000000000000000000000000000000000000000000000000000000000000000000000000000000000000000000000000000400000000000000000000000C8FF80000008000000000000000000000010100000000000000000008200000000000000000000000000000000000000000000000000000000AE
:802100000000000000000000400000000000000000000000F8FE0000000800000000000010000000000008000000000000000000800000000000000000000000000000000000000000000800000000400000000000000000008011000000000000000000003AF800000010000000000000000000000000000000000000000000000100006D
:802180000000000000000000000000000000000000000000000000000000000000000000000000000000000000000000000098FF08000500000000000000000000000000000000400000000000000000000000000000000000000000000000000000000000000000000000000000000000000000000000000000000000000080FB00000080
:80220000000000000000000000000000040000000000000000000000000000000000000000000000000000000000000000000000000000000000000000000000000000000000000000000000D8FB00000000000000000000000000000000000000000000000000000000000000000000000000000000000000000000000000000000000087
:80228000000000000000000000000000000000000000000000DCFB000000000000000080000000040080000000400000008000200000000000000000000000000000000000000000000000000000000000000000000000000000000000000000000000000000B0FB8A000000000080004000000000800000000000000804402010048000AE
:802300000000000000020000000000000000000000000000000000000000000000000000000000200000800000000000000080A8FD2000000000008000C000000006208000000020000210000B6001200000000000000800000000000000000000000000A000140000000000200000000000000051000040000000000000000008F8000065
:8023800020008480001000016040048044000400800010001240082801010000000000000000000000000000020000000010800000002400002001000201200024008000004000000000000000C8F900000000000000004000200002402000000000000000000000000000000000000000000000000000000008000000002000000000009F
:802400000000080000040000000000000000000000000000000058FB00001000812000040000100000000000080040000880001010024200000000000000000000000000000000000000000000000000000000000000200008000200000000000100000000000060FD10040000000000000000000000000000040000000000000000001054
:80248000000000000000000000000000000000000000000000000000000000000000200000000000000000000000000000000000ECFA40000000000000000000C00000000008000000000000000000004000000000000000000000000000000000000000000000000000000000000020000000000020000000000000000000000098FF00B7
:80250000000000000000000000000000000000000000010200000800100000000000000000000000000000000000000000000000000000000000000000000000000000000000000000000000000028FF00000000000000000000000000000000000000000800002000000000000000000000000000000000000000000000000000000000F1
:80258000000000000000000000000000000000000000000000000018FD00000000000000000000000000000000000000000000000000000000000000000000000000000000000000000000000000020000000000000000000000000000000000000000000000000098FD00000000000000000000000000000000000000000000000000002F
:802600001000000000000000000000000000000000000000000000000000000000000000000000000000000000000000000000000098FE000004000000000000000000000200000000000000000000000000000000000000000000000000000000000000000000000000000000000000000000000000000000000000000000000000D8FDD9
:80268000020080000000000000000000000000000000000000000000000000000000000000000000000000000000000000000000000000000000000000000000000000000000000000000000000080B8FD0000000000000000000000000400000000000000000000000000000000000000000000000000000000000000000000000000001F
:80270000000000000000000000000000000000000000000000000000D8FB00000000000000000000000000000000000010000000000000010000000000000000000000000000000000000000000000000000000000000000000000000000000000000000000000000088FE00000000000000000000000800000040000000000000000000A7
:80278000000000000000000000000000000000000000000000000000000000000000000000000000000000000000000000000000000058FF000000000000000000000000000000040000000000000000000000010000000000000000000000000000000000000000000000000000000000000000000000000000000000000000000000C8B5
:80280000FA20000080000100000000080001209134000010001A4010680000A00134000000000000000000000000000000000000040000000002010000000D00000080001000004003480400A0010000B8FC00000000000000000000600000800130000000000000806000008001000000000000000000000000000000000000000000001E
:80288000000000040000000C0000000000000000000060100080010000C0FD0000000004000000000000400000010120000080180002600000800130000000000000000000000000000000000000002000000006000000000C0000000000004000C00000000080010000E8FC0000000024020000000060022C8804300100C00898040A6132
:802900000000800130090000000000000000000000000000000000B00000000018040000000C0000000006C20200008020200080010000C8FC808100008200000000006044808031301000000800116100110000100002000000000000000000000000000000000000120000001400000000200200000040020400000B420800004400009A
:80298000D8FFE001008003000000000018000FE8000C0000F08006C00118000060400C2000000000000000000000000000000000003C000000001000000000030000008007F0400080001800006000000088FB8001000000010000000060200C8001311000C000000000000000000000000000000000000000000000000000000000300025
:802A00000000001000000000000000000006C0000000034100000000000068FB8001000040000000000070044CC201080200C02440088000000000000010000000000000000000000000000000000030090000000800000000000000000026C12400002000110000000000F0FA000000800000000240004822012011058000100002400033
:802A80006800002000040000000000000000040000000000000002000400000000424000000001A0010080001000004000080001A001000074F9000000000000000000000000000000300000000000000060000000000000000000000000000000000000000000000000000000000004000000000000000000000000000000000080010020
:802B00000070F8000000000000000000006000008001001000048000040060000060000000000000000000000000000000000000000000200000000600800000038001000000004000000000200082010000A8F80000000016080018050040442C0891000246C00818010B6200002000B0080000000000000000000000000000000000B065
:802B8000000000005A04130000018011010006C20200000B62018C800100002BFA0000000010000080201361404080913020200804800810001200800901110000000000000000000000000000000000801000000014000001002C0090000010020401000801010004400000E9FD000000800704001EC00378000FE4013C8007F0401EC09C
:802C000003190000E0013C0000000000000000000000000000000000003C0000000010C00300000F6400008007F00000C00378400F60000000D0FC0000000006000018000360000C8001300006C000180003000000800130000000000000000000000000000000000000300000000010000300000C8001000006C00000000360000C000097
:802C80000000D3FE0000000006010018040360800C8205B22006C120180483000000800130080000000000000000000000000000000000300800000008008300000C0040000006C12000008360100C0200000000FE10000480200000020000680001200024A000100802402268000020000400000000000000000000000000000000000059
:802D0000048240040082400000000D20000080001028004000080001A0010000D8FB0000000000010000000060000000001000000020000083600000000000000000000000000000000000000000000000000800000000040000000C000000000000000000000000008001000048FB0000000004000000000000400C000020100084400091
:802D80000400600000600000000000000000000000000000000000000000200000040006008000000C008000000680000000000020008201000058FF0C00000024020018050060024001003002468000180141600000200000000000000000000000000000000000000600A0101200001A051300000C8005000010824400000362018C80C2
:802E0000010000C0FD04003021820000002000600C8C8149201210404240000A0014008091000000000000000000220000000000000000001006100200140008000080008000000640480000100422200048000040FF00003C800300001E000018000FE0013C800774001ED000190000E0010C1000000000000000000000000000000008AF
:802E8000001C8003000010C003020003E201008007720000C00378000F6800000090FC0C00300000000018000060200C8201300006000018000200000080013010000000000000001200000000000000000000000400001000030000008001000006010000000360000C00000000D0FE0000300000010058040010044C80013804160124FA
:802F00005804A0000000800130000000000000000000000000000000000900000942020008008B0000008045000026002800008B60112C02000000B0FC0000008000000002000008008120002491109000424400680001200004000000000000000020000000000000000000248000000002400800000D20000080401000004000080121CA
:802F80002000000010FF000000000000000000006000000200000000C120000000600000000000000000000000000000000000000000000000300806000000008000000C0000000000010000000000100002000000E8FE000000000000000000000020080400300004024018000060000060000000000000000000000A00000000000000B8
:80300000040000800700001E000200000C000000000400000000004000086000000070FC0C0000001608000000000004080000201124400250080B6200002000B008000000000000001000000000000000040010040000001A001202000C0000000084C040000003420A4828000000D8FD04000000200200400000604024843130204280AC
:8030800048580010001020803180000000000000000002000000000000000000A000030000140041000000821101001204040000202104048185000060F800000080070000061000780007E0013C800334001EC4031A0003E8013C2000000000000000220000000000000000000C1004000008C001000003E001008003F04000C00338207C
:8031000007E001000060FF0C0000000600001808006020008001300000800018000300000C88013000000000000000000000000000000000050020000400000800000000000000000000C00000000300000080010000A0FD00000000460100580000600040820130120001201804A300004C8001300A000000000000000800000000000040
:8031800000000000080200001000800000000044000020C1280000A300100082010000B8FC0000848000000002000008000120000480441000024000080000200084080000000000000000000000000000001000048010010012400000000DA001008004100800400008000120000000ECFE00000010000000000000600000800100000676
:803200000100000000000000000000000000000000000012000000000000000200000000000008000000000C800100000601200000000000000000000038FE00000000000400180400002000008000000000000000001A0000600030000200000000000000010000000000000400008001010014000000000CC001000000840000000000EF
:8032800000006000000038F80C00001046000040000060020080090000020400000023080000200020100000000000000008000000000000000100000016000008000000000CA0010000128044000003624200200000001BF8040000101000001804006001008151300A04020081201060220080853001020000000000000201000000008B
:803300000000100000400500000C001000008082010000C440480000080101008001010041F900000C800704001E0000781003E0013C8001300006C003790000E0013C8802000000000000000000000000000000000C0004000014C080000003C001008001700000C003784003E4010000D8FC1800002006010018100060000C82013000FA
:8033800004C00018108360000080013000000000000000004004000000000000000030000400000800030000008001000004000000008360100C8001000043FC0000100146000058000010200C4080300010C122980023600000800130080000000000000000000000000000000000B008020000100013040000A00100000001240000231A
:8034000060048C84010000C0FB20040080440000420000480409201104800010001A4092080000A001340004000000000000000200000000000000000480400100004000000001200000800090000040000810892000000018FD0080000006010000040000200C0280000000000000000300000080010000010000000000004000000000BF
:80348000000000000000000000000000000000002000000000C02000000000000C02000000A0FE00000100000000100800600000840100000600000400001800008001080008000000000000000400000000000000003080010100000003000003400000000000400000004000006000000008FC8C040000A200009000004012240049000E
:803500000040010082024108000080018410000000000000000000000000000000000000C10600000000A000000120000000004000000043400A442100000022F8049000000400000801006020888481301226010819000A600C0000043022010000000000008000000000000000000030040500000000A300000C8449000010800000008A
:80358000202104088031000030FAE00000800102000E1000780003E0013C8007300004C8007900006040088004000000000000140200000000000000003C0004000000C00300000FC001008001324000C003382003E801000090FE180100000400000000006000088081300006C0801A0882600000000034100000000000000000000000AD
:80360000000000000200300004000000000300000C8001000006810000008300100880010000D9FF802000004001000004006082008211300086C004000010600000000000810000000000000000010000000000000800300A02000000000B01000C8001000006002000000B0004208201000020FCA0010080240100020000080001A00180
:803680000480001000524080080000A00124010200000000000008000000000000000000048000D100004022000001A0010480001000004003481201A00100009CF8800100000600000000000000008001300000000008040000000080011008040000000000004A000000000000000100000000C00000008300000080010000000000009C
:80370000000060000080010000D8FF000000000000000000000000000080002006C10016000218000080012C00000000000000000002000000000000080030800101000000000000038001000000000000C08000000C8001000018FD0C000000A200000000000000008001B00020000409040A09000080011008030000000000000002006A
:8037800000000000000A0000912600000000510000018045302000C0400000102020808201000023FC844500000400004004006044808811300016C140500061602400000820020000000000000010000000000000000000300205C00000000200008C8145800010000401001340082C02080000F1F9E0010080010200060000780003600B
:80380000003D8807F0000CC8017800006040181000000000000000040000000000000000003C2004F04000C00002000FE0013CA001F4000080001A000F60400000F0FF9801010004010018000060000C8001310006C000180480600000000030080000000000000020000000000000000800300804C04000000200000C0000310806C020C8
:8038800000000340100C08000000D3FCC009000020000018020060008C4200081026C2284C0020600000000098000000000000000000000000000000000000B00002E00000008800000C8001300046C10000005000028C0000000048FE2000008000100012010008000120002482001000024100080000A00104020000000000000000003F
:8039000000000000000000000480101800004000000001A00100800090040040000800012000000090FE000000000000001804000000008001001000000000040000000080010008000000000000000000000000000000000000000000000000000000008001000000C02000000000000000000000E8F80000000000040000000000000C23
:80398000080031000000001004001A00008001200800000000000000000000000000000000000080010040000000000003800100000600400000000000006000000028FD8085000046C0880810000000000000A008000000400023080000800180000000000000000010000000000000000800008016C80800000000000180450000104450
:803A0000000000436042002000000020FA8001010020024810080060120C8891B020200002980010604400004830090200000000000000010000000000000000000005C04800000000008C904500002680000000080122408005000030FFE001008007F00006000078000FE0013C800131401EC4037A000060003C0005000000000000940F
:803A8000020000000000000A000C1004F00000C00001000FE001008007344000C003780003E2010100D0FB8081000006C12010000060000C8201302006C020180083600000000030000600000000000010030000000000000800300804C00000000300000C0000010006812000008360100C8401000098FB8009000026C0044004006000C7
:803B00002C8029300216C208980413600000000030090400000000000008020000000000000400300202C01000000B04000C8001000046000000001360028C8001000018FE000000000000000000000000000000000000000080100000000000000021000000000000000000000000000000000000000000000000000000000008010000CC
:803B8000000000000000000000000000C4F820000480001000024000080001200004800010000240000800012000040000000000000000040000000000000022000480001000024000080001000004800010000240000800012000040098FB000000000000000000000000000000000000000000000000000000000000000000000000004C
:803C0000000000000000000000000000000000000000000000000000000000000000000000000000000098FF2C0004800010000240000800012000048000100000400008000120000000000000000000000000000000000000200004800010000240000800012050048000100002400008000120000400C3F9040000000000000000000053
:803C80000000000000000000000011000000000000000200000000000000000000000000000000000000000200000800000000001000000000000000000200000000000069FA20000480001000024000080001200004800010000A4000280001A00014200000000000000000000000000000002000040002100008400008000520400480C9
:803D0000001000024001080001A000040040FF180000000000000000000000000000000000000000000000000000000000000000000000000000000000000000000000000000000000000000000000000000000000000000000000000000B3FC2000048000100002400008000120000480001000024000080001200004000000000000001B
:803D8000000000000000000000200004800010000240000800012050048000100002000008000120000400D8FA00000000000020000000000000000002000000000000000000000000000000000000000001000000010000000000000000010000040000000000000000100000000000000100000000000088F90000000000000000000004
:803E00000001000000000000000000000000000000000000002000000000000000000000000000000000000000000000000000000000000000000000008000000000000000A0FD00000000000800020200000000000100000000000000000000000000000000000000000000000000000000000000000000001000000000000000000000E7
:803E8000000000000000000000000004000068F800000000000000000000000000020000000000000000800000000000000000000000000000000000000000000000000000000000000000000000000000000000010000000000000000000090FC000000000000000800000000000000000000000000000000000020000000000001000026
:803F000000000000800000000000000000000400000000000000000000000000000000004000000000000000C0FD00000000000000000000000000000000000000000000000000000020400000000000000000000000000000000000000000000000000004000000080000000000000000000000100000000020FE0800100000000000000E
:803F8000010000000800000000000000008100000000000000000000000000000000000000000000000000000200000000000040000000000000400000000001000000000080D8F800000800000100000000200000000001000000000080000000008000100000000000000000000000000000000000000000000000080400000004020018
:8040000020000122001010800010020440000810FA06400C000004000080000800008400010000000000C000010068A128040000000000000000000000000000000000000000010000D21200002001080004800034000A10000340010800012030FE000000000000180000CA000900A1200008024100000400A000F2A8A00200000000004A
:80408000000000000000000000000000000080044000142A0020000C16011004848018720202400000010100079CFB02000000000000000080000000400000200484000010002000008000000000000000000000000000000000000000000000001000000000400008020020000000000000000000000000000028FA0A0000000000200015
:8041000000020240000800010000000000000000000000400000000000000000000000000000000000000000000200000804000000040001002004822004420020000084000088B4F80000000000000000080000000000800000000200000000000000000000000000000000008000001000000000000000000000000000000000000000A1
:804180000000000000000000000000000000000020FD00000000000000000000000020000000000000000000000000000000000000800000000000000000000101200000000000000000000000000000000000000000000000000000000000000090FC00000000000000000000000000000000000000000000000000000000000000000054
:8042000000000000000000000000000000000000000000000000020000000000000000000000000000000000000098FD100000000000000000000000000000000000000000000000000000000000000000000000000000000000000000000000000000010000000000000000000000000000000000000000000000DCFA00000000000000C0
:80428000000000000000200000000000000000000000000000400080000000000000000000000000000000000020000000000000000002000000000000000000000000000000000078FB00000000080000000000000000000008000000000000000000000000000000000044000000000000010000004000000000000000000000000000B4
:80430000000000000000000000000000000000000018FE40200000000000000000000000000000000000000000000000000000000000000008200000000000000804000000000000800800000000000000000000000000000000000000002000000098F90800000000000000000000400000000000000000200000000000400000000000B2
:8043800000002000000000000000000000000004000000000000000000000020000000000000000000000000000000F0FD00000000000000000000000004000000000040004000000000000000000000000000000000000000000000000000000000000000000000000000000000000000000000000000008000000010FF000000008000F9
:8044000000000000000000000000008000100000403001000000000000000000000000000000000000000000000000000000000000000000000000000000000000000000000000000058F800000000000000000000000000000000000000820000000000208000000000000000000010000000000000800000000000000000000000000039
:8044800001000000000000000000000000000000000030FE00000000000000000000000000000000000000000000000000000000000000100000000000000008000000000000000000000000000000000008000000000000000000000000000000000088FE20000000000000000000000000000000000000000000000000000000000000C7
:804500000000040000000000000000100000000000000000000000000400000000000000000000000000000000000000E8FF40000080000000000000000000000000000000000000000000000000000000000000000000000000000002000000000000000000000000000000000000000000000000000000000000000078FD000000000005
:804580000000000000000000000000000000000000000800000000000000000000000000000000000000000000000000000000000000000000800000000000000000000000000000000010FF0000000000000000040000000000000004000000002000000000020000000000000000000000000000000000000000000000000000000000FA
:804600000000000000000000000000000000000040000098FB00000000000000000000000001000020000000000000000000000000080000000000000000000000000000000000000000000000000000000000000000000000000000000000000000000020FE000000000000000000003000000004100000000000000000000000000000DC
:8046800000000000000000000000000000000000000000104000000000000000000000000020000040000000000000000088F900000000000000000000000008000000000080000000800000000000000000000000000000000000000000000000001000000000000000000000000000000200000000010000000000000038FF0000000037
:80470000000100000001000000400000000000000004020000000000000810000000000000000000100000000000004000002000000000000000000000080000000100000010000000000090FB0000400000000000000080000000024080000000000000000000000000100000000000000000000000000000000000000000000000000033
:80478000000000000000000800010000000000000000000078FB00000000000000000000000000000000000080804400000000000000000000000000000000000000000000000000000000000000000002000000000000000000000000000020000000000050F900000000000000001000000000000000000000000000020000000000007C
:804800000000000010000000000000000000000000000000000000000000000000004000800080000000000000000000000000F8000000000200000000000000002000000000010008000000000000009000000000000000000000000010000000000020000000000040800000000000000000000000000024000102000000F2F92000050E
:8048800000020000000002000000228000000000000000000100000040000000000000000000000000000000000000000000004000000000000000400000000000000000000010040000000060FB984000000020200040000000020000002002400000040120100400000800000000080400000000000004000000000010000201000000C2
:80490000802020000280000000012008000000000082400000D2FA60AB090001108000C00020000544A800A0C0100008500029500100C514000000000804100000000000040800000000048000A5020000002A4000C800A10000048002005000200228000100E0FE000800008E00041000664000200029005042840000008368A824C00062
:80498000010000000000000080000000000000081000002000104B7A010301000109B54000002E00345002400002C80121000098F9000000000200000000000000000000000002000000808010000240000000000000000000000000000000000010000000000011400000010000004080000002004000000000000000000000D8FB000027
:804A00000000810000040081100000402000000040000080001010000000000000000000000000000000000000000000001000000020000400000001020000000400201008800000048240000078F810000000000000000000004000040000000000400000000000000000000000000000000000000000000000000000000400000000001F
:804A800000000000000000000080000000000800000000000000CCFF00000000002000000000000000800000080C00000202000000000000000400000000000000000000000000000000000800000000000000010000400000000100000080000000000400000088FA000488000000000000001001004000840400000000000000000000F2
:804B000000000002000000000002000000400001000000000010000000000000000000000000000000000000000000000000000050FB000120000000000000000000000000400000000000000000000000000000000000001000000000000000001000000000000000000000000000000000000000000000000000000000000000D8FC122E
:804B80000000000000000000000000000000000000000000000000000000000000000000000800000000000000000000000000000200000000000000000000000000000000008000000800000000A0FF0000000000000000000000000000000000000000000000000000000000000800000000000000040000000000000000000000000078
:804C00000000000000000004000004000000000000000000000000D0FF000000000000000000000000200020000000000000000000000000000000000000000000000000000000000000000000000000000080000000004000000000010000400000000200000080A8FA0200000000000000200000000100000000000800000000000000CD
:804C800000000000000000000000000000000020000000000000000000000000000000000000000000010000000100000001000000A0FC000000000000000000000010000000000000200000000000000000000000000000000000000000008000000000000000040000000000000000000000000000400000000020000000000000B0F839
:804D0000000000040000000000000000020000000000200000000000000000002000000200010000000000010000000000000000000000000000000000000000000000000000000000000000000000F8F90000000000000004000008000000000800010000004000000000000000000000000004000000000000200000000000000000007F
:804D8000000000000000000000000000000000000080000000000000C0FD18000000000000000000000000000000000000001000000000000000080000000000000000000000000000000000000000000000000000000000000000000800000000000800040000000008FA00000400000000000000680001000000000000000000000000C3
:804E00000000000000000000000000000000000000000000000000000000000200002824412084008010D2000240000800002000040068FC000000000000000000006000000000000000000000000000000000000000000000000000000000000000000000000000000000000000002000000200000000C000000000000000000000001871
:804E8000F9000000000000000000007800020000000000000000000000000000000000000000000000000000000000000000000000000000000000001810046001008005C00000000001200000800020C0FA0000301200000000000068004D02000000000000000000000000000000000000000000000000000000000000000000000000F9
:804F000000001810000001208200000002C0001811036002008001300230F80000001000000000000000008000000000000000000000000000000000000000000000000000000000000000000000000000000000090000142C4201000005C04240001000010000880000B8FE00003C0000000000000018100F020000000000000000000014
:804F8000000000000000000000000000000000000000000000000000000000001E000010000F0001000004F0001ED003794000E0013C2028FF0000300000000000000000000C00000000000000000000000000000000000000000000000000000000000000000000000000000018000040400C4201000005002018000360000080013000FD
:8050000048FF0000300900000000000008008C02000000000000000000000000000000000000000000000000000000000000000000000000000098040040010C8000000002000898049360120080493009B8FB0000000000000000000000000D00003400000000000000000000000000000000000000000000000000000000000000000010
:805080000000001200002880002084008010021002400008000020000400F4FD0000000000000000000000000C0000300000000000000000000000000000000000000000000C00000000000000060000000000001804002000000000000000000000000000000000000000F0FA0000000000000000000000000E00003C0000000000000093
:8051000000000000000000000000000000000800000000000000040000000000001000001000006001000005200000080001200000800020F8FD0000000000000000000000000D0000340000000000000000000000000000000000000000000000000000000000000000000000005808000814008000008002100098000360020080013042
:805180000283FD000000000000000000000000000000000200000000000000000000000000000000000000000000000000000000000000000000005810000012004001000005C0080101100002000008020111FD0000000000000000000000000302000C08000000000000000000000000000000000000000000000000000000000000005D
:80520000000000000E00001000000001000004F0001ED0037A2000E0013C20C0FA000000000000000000000000000000000000000000000000000000000000000000000000000000000000000000000000000000000000004000004001000005C0001800036000008001300003FA000000000000000000000000000000000000000000002A
:805280000000000000000000000000000000000000000000000000000000000000000405004024008000000002C0001804836010008041300890FF0000000000000000000000000100000000000000000000000000200000000000000000000000000000000000000000000000000092040008000D2084008010D20002400008000020002C
:805300000400F0FD0000000000000000000000000000000000000000000000000000000000000000000000000000000000000000000000000000000018000000000C0000000000C0000000000000000000000088FA000000000000000000000000020000000000000000000000000040000000000000000000000000000000000000000094
:80538000000000000010100018000F6001000005C00000C80000200000800020C0FB0C00000000000000000000000100000000000000000000000000200000000000000000000000000000000000000000000000000018000000000D8000008002C0009840006002008001300200FB0400000000000000000000002C0000000000000000D1
:805400000000000000800100000000000000000000000000000000000000000000000018020060040C4001000005C04280081300000000080041F0F90000000000000000000000000F04000000000000000000000000E0810000000000000000000000000000000000000000000000000E000070100E0001000004F0001E8083784000E04E
:80548000813C00C0F81800000000000000000000000C00000000000000000000000000800100000000000000000000000000000000000000000000000000040060000C400100000500201800036000008001300030F80000000000000000000000000C000000000000000000000000008001000000000000000000000000000000000000DB
:8055000000000000000040000060000D800000000200005804036011008045B008F8FEA00134000000000000000000010000340000000000000000000020000000000000000000000000000000000000A0010000000000020000282101208400801002100A410008000020000400B0FF800130000000000000000000000000300000000055
:805580000000000000000000000000000000000000000000000000000080010000000000000000200000000000000000000804000000000000000048FAE0013800000000000000000003000038000000000000000000004000000000000000000000000000000000000080010000000000000000700000600100800520000680000020008B
:805600000080002048F8AC01340000000000000000000100003400000000000000000000200000000000000000000000000000000000008001000000000018100008000C90000000021000004200600200800130024AFC0408000100000000000000008C0000000100000000000000000080050000000000000000000000000000000000F9
:80568000808500000000000000005000404001000005C0040020130102000004800040FE60400C0800000000000000000F02000C08000000000000000000E0410000000000000000000000000000000000E00100000000001E100040000F0801000004F08004C003784000E0013D2010FE1800000000000000000000000C0000000000004F
:8057000000000000000000800100000000000000000000000000000000000040000000000018000050000C4001000005C00010000360000080013000E9FD2000040000000000000000000C00000400000000000000000000800100000000000000000000000000000000000008000000000018050020008C8200000002C00050440360140F
:80578000008051300A20F90000340000100000400000000D0000040000D0001A0000000001200000000000000000000000000000000000000000000000000002000008210D20840080140210024000280001A0011400CCFE0000300000000000000000000C0000000000C00018000000000000000000000000000000000000000000000065
:80580000000000000000000000000000000C000000000200000000812010000041100820FE0000380000300000000000000F0000002000F0001E0000000000440000000000000000000000000000000000000000000000000000000050000F600100800520000000821000008001080028F90C00340000000000002301000D0000300200C5
:80588000D0001A000000004C200000000000000000000000000000000000000000000000000018100028000D8000000002100018110908210C888504058BFF0400000900C02000000800004002000012000024800400000080810900000000000000000000000000000000000000000000000000080050000C4001000005C00480000B0068
:80590000220084450042E1FC00000C0000E00000C00302000300003C0000300006000000000FE0410000000000000000000000000000000000000000000000001E000040000E0001000005F0401EC88010000FE0010800D8FA1800000000C0000000830000000000300800000000000000000C8001000000000000000000000000000000C5
:8059800000000000000000000018040050000C4001000005C00018040340000C82012000E2FE0000000000C0000000230000010000300200000002000000002C840100000000000000000000000000000000000000000000000018010020000C8000000004C00018010B41108C80412008BCFFA001044200100000400068000100000400A0
:805A000000900800000000000020000000000000000000000000000000000000000000800010000200000821012084008000D000024000280101A0059400B0FA800100000000000000006000000000000000404000000000000000000000000000000000000000000000000000000000000000000000000000000000000000C0000000004E
:805A80002010000041100868FEC00100000020000000007800020000002000804000000000000040000000000000000000000000000000000000000000000000800000005000006001000000C4000000001140008001090000FDAC0110090010000000236100010000300200C0020000000000002000000000000000000000000000000000
:805B00000000000000000000C00818100028000C9000000046C00018110308010C8811041028F90444000600C08000001060002C0000000100808800000000000080490000000000000000000000000000000000000000000002484000005000404001000010C04200212000812080118010F0F960001C0000E00000C00372000F02003C29
:805B80001000F000000000000000E00100000000000000000000000000000000000000008001F0001E100040000F0401008007F4001EC00312000FE8810800E8FD1800200000C00000008360000C0000300800C020000000000000800100000000000000000000000000000000000000000006C12018040050000C420100000601001804B9
:805C00008340000C82012000D0FB0000901000C00000000B60000C0000B00000E008000000000000800100000000000000000000000000000000000000000006C00258000020002C8000000016002058000B40142C8051200A10F9201124C00610001A408A0000010000A48806904200000000000020003400000000000000000000000086
:805C800000000000000034800650220200000821012084008000001002492008124122040400DCFB80801000060000180001000000000010000600000000000000000000300000000000000000000000000000000000003000064000000000000000000000000000000000800000008040000018FA008120200720001E0082000003000089
:805D0000200807C0000000000000000000380000000000000000000000000000000000003C000730000000005000006001000000240010108018400C02010000F8F98C0530800610001A0023000000000030820680880000000000000000340000000000000000000000000000000000003480060084181000280000800000004610008050
:805D800000100002208048000453FA0405300140C12200051204000C0200200440C1080000000000008011000A0000000000000000000000000000000000000A06004480000050000C4801000020C0025804920044249009001121FBE0813C8801E00006C00300000F00003C8001F040000000000000E0810C00000000000000000000005B
:805E0000000000000000000C000720001E080040000F0001008007F2801EC00010000B60000D0040FC9801300000C00000000301000C0000300000C00000000000000080010000000000000000000000000000000000000000800680201804005000004201000006C1001804020010048201010812FAC05118C000C00000800300000C0036
:805E800000B89000C01400000000000080010400000000000000000000000000000000000000800680041800002000808000000006C00018014140014CC0013001F4FB208514890610001A40926800010000248906D0001A000000000020003400000000000000000000000000000000002034800610001201000821212084008012D10045
:805F00001A400008000D20080422F0FA000000000600001800006000000000000006C00018000000000000003000000000000000000000000000000000000030000600000804000000000800000002C00000000000000C8040000090FD800131800720001C00037200020000308007E0001E000000000060003C000000000000000000004C
:805F8000000000000000400038800700801804005800046401008001C00018000001200F0001081008F90C0530C00610001A000A6800010000208406D0001A0000000000000034000000000000000010000000000000002800348006C0080800002000808000000000C10018110360020D8040040128FB8411304000C12800048B00102C57
:806000000200B008000120000400000000804500080200000000000000010000000000008081000806004018030050000C4001000010C04280080800820C80018008D8FBE0813C8001E00006C00318000F00003C80013000060000000000E0010C00040000000000001002000000000000E8010C0007F0001E000040000F0801000001F126
:806080000006C0037A000E60000900D8FE9841300800C00000000302000C00003000000000000000000000800100800400000000000050020000000000008801000006C02018000050000C4001000004010018048360100C8001010840FA8005B00000C00002000300000C00003008001000000000000000800100000400000000000000CC
:80610000020000000000008001040006C00418110020004C8100000004002880001360020C80092002D8FE000000000000000000000000000000000000000000000000000000000000040000000000000002000000000000000000000001000000000000000000000000000000000000000000000000ACFF00000000001000004000000008
:8061800001200000000000000040000800012000000000000000000000000000000000000020000080001000024000080000200004800010000200010800012000040098FD004000080002000000000010000000000000008000040000000000000000000000000000000000000000000000000000100000000000000000000200000000B2
:80620000000000000000000000000000A8FC2C04048240100002420008028122000484A010088240000800012000841000000000000000000000000000000020000402001200024000080041200004800010000240000800012000040043FD0400000000000200000000210000000000000000000000000000000000000000000000000077
:80628000000000000000000000000000100100000000000000000000000000000000000200000800000059FB00000000005080004000000000200000000000000040000800010000000000000000000000000000000000000020000080025040024000282000A48004800212000A48012820002000141010F9180001000001000004000038
:806300000000000000000001200008000000000000000800000000000000000000000000000000000008000000000000000000000000000000000000000000000000000052FE20040490001000824000000A012400048A001004424000080001208004000000000000000000000000000000002080048100100002400008002130000480B6
:8063800000104002000008004024000400CCF8000000000000000000000000000000000000000000000000000000000000000000000000000000000000000000000000000000000000000000000000000000000000400000000000000000D8FF00000000000000000000000000000000000000000000000000000000000000000000000000
:8064000000000000000000000000000000000000020000000000000000000000000000000000000000000098FD000000000000000000000000000000000000000000000000000200000000000000000000000000000000000000000000000000000002000000000000000000000000000000000000000000B8FD00000000000000000000CC
:80648000000000000000000000000000000000000000000000000000000000000000000000000000000000000000000000000000000000000000000000000000000000000098FF0000000000000000000000000000000000000000000000000000000000000000000000000000000000000000000000000000000000000000000000000005
:80650000000000000000000000000000000098FF00000000000000000000000000000000000000000000000000000000000000000000000000000000000000000000000000000011000000800010000200008800002000008000000000400420F8000000080000000000000000000000000000000000000000000020000000000000000035
:806580000000000000000000000000000000000000000000000000000000800000000000010000000800000018FC20000000000000004000001000000000000000000000000000000000000000000000000000000000000000000000000000000000000000200000824000000001000000800000000000000088FF2000001500000000402F
:806600000000408001006006C0000000000000000040000000000000000000000000000000000000000000000C00000000000800282800010001841600840A02000004000000E8FF00010004000000000000C00000000000080000000000820000008040000000000000000000000000000000000020000000000000000000000018002110
:80668000000404000018000060100000000080A8FD0E0000000000000000000000000000000800000000000001000020000100000000000000000000000000000000000000000000000000000000000000000000000010000008200000000000C8FB8A00000400000000000020000000000000000000008000000000000000000000000084
:806700000000000000000000000000000000000000000000000000048040001002000008000010000000000080A0FB00000000000000000000000000000000000000000800000000000000000000000000000000000000000000000000000000000000000000000000000000000000000000000000000000000018FF0000000000000000F1
:806780000000000000000000000000000000000000000000000000000000000000000000000000000000000000000000000000000000000000000000000080000000004000000018FB000000000000000000000000000000000000000000000000000000000000000000000000000000000000000000800000000000000000000000000046
:806800000000000040000000000000000000000058FF100000000000200000000000000000000000000000000000000000000000000000000000000000000000000000000000000000000000000000000000000000000000000000000000000000ECFB0000000000000000000000000000000000000000000000000000000000000000006A
:80688000000000000000000000000000000000000000000000000040000000000000000000000000000000020000B8F900000000000000000000000000000000000000000000000000000000000000000000000000000000000000000000000000000000000000000000000000000000000000000001000000000088FE000000000000001E
:806900000000000000000000000000000000000000000000000000000000000000000000000000000000000000000000000000002000008000000002000002000000000000000000B0FD18008000000000000000000000000000000000000000000000000000000000000000000000000000000000000000000000000040000000000000EE
:80698000000000000000000000000000000000100058FE00000000000000000000000000000000000000000000000000000000000000000000000000000000000000000000000000000000000000400800000000000000000000000000000000000058FB040000000200000000000000000000000000000000000000000000000000000090
:806A000000000000000000000000000000000000000000000000000000000000000000000000000000000000000000D8F902000000000000000000000000000000000000000000000000000000000000000000000000000000000000000000000000000000000800000000000000000000000000000001000400000068FC000000000000D2
:806A800000000000000000000000000000000000000000000000000000000000000000000000000000000000000000000000000000000000000000000000000000006000000000002098FB00000000000000020000000000000000000000200000000000000000000000000000000000000000000000000000000000000000000000000061
:806B00000000000000000000000000008000000000007CFB08000000000000000000000000000000000000000000000000000000000000000000000000000000000000000000000000000000000000000000000000000000000000000000000000000090FF0000000000000000000000000000000000000000000000000000000000000087
:806B8000000000000000000000000000000000000000000000000000000000000000000000000000000000000000000098FF00000000000000000000000000000000000000100000000000000000000000000000000000000000000000000000000000000000000000000000000000000000000000000000000000000088FE000004000064
:806C000000000000000000000000200000000000000000000100000000000000000000000000000000000000000000000000001000000000000000000004000010000040000000010000B8FB0000000000000000000000000000000000000000000000000000000000000000000000000000000000000000000000000000000000000000DB
:806C80000000000000000000000000000000000000008032FD00000000000000000080200000000000000000000000000000000000000000000000000000000000000000000000000000080000000000000000020000000000200010800010000000000818FD0A0000000000000000800000080000000000000000000000000000000000CC
:806D000000000000000000000000000000000000000000000000000400100000000000000001800010800010000000800070FD80000000000000000000000000000000000040000000000000000000000000000000000000000000000000000000000000000000000000000000000000000000000400001000000000000018FE04002020C3
:806D8000000000000000080000000004000000000000000000080000000000000000000000000000000000000000000000000000000000000001000000000000000000000000000080000028FC000000000000000000400000000000000000000000000000000000000000000000000000000000000000000000000000000000000000009A
:806E0000000008000000000080000004020000000000000010F9000000000000000080000000000000000000000000000000000000000000000000000000000000000000000000000000000000000008000000000800000000002000040000200002400018B8F8000000000000000000000000000000000800400000000000000000000154
:806E80000000000000000000000000000000000000000000020000000000001000000000000000400000012000048000100088FF9E001000010020004000001002000010A00000200204410010000000040000000000000000000000000000000000000000000000100200080000800000000001000000000000000000008042F92033040B
:806F000080000080004001204001000304B0002080025000025000808004000000000000000000000000000000000000A0000100000210000830002000000000044000800010000240000800A8F880000000828000100060400B0000210008C0000200000800020000013000000000000000000000000000000000000000801400000806A2
:806F800002200208814060000440301005214208040000500080FD400000000200000000000000000000000800000000000000000000001000000000000000000000000000000000000000000000000802002000008040000000402000040100000400001000F0F800000000802000040080101000402000000001000000000000008000B5
:807000001000000000000000000000000000000000000000800000000082000000010800100002004008000020400000000000C8F8000008000000020000000000000000000000000000000000000000000000000000000000000000000000000000000000000020000400000000200000000000000040080801002000001000B8FC0201F5
:807080000000000000000008000000000008000000000000000000000000000000000000000000000000000000000000000000002000040000000000000000000000000800000000008000008038FA0002002000000000000000000000000000000001000000000000000000000000000000000000000000000000000000000000000002FD
:8071000000000000001000000000000000000000080000004000E0FB040000000000000000000000000000000000000000000000000000000000000000000000000000000000000000000000000000000000000000000600000000000000000000000000210000F9FD060000000000000000000000000000000000000000000000000000B5
:80718000000000000000000000000000000000000000000200000100000004000000000000000000000100000000000000400000F8FB00000000000000000000000000000000000000000000000000000000000000000000000000000000000000000000000000000000400000000000000000000000000000010000000004000098FE0079
:807200002020000000000000020000000000040000000000000000000000000000000000000000000000000000000000400000000000000000000000000000000000000000000000000210040000D8FE00000000000000000000000000000000840010000000000000000000000000000000000000000000000000000000001000000000F8
:80728000000000000000000000000000000000000080000000024000FC000000000000000000000000000000000000000000000000000000000000000000000000000000000000000000000000000000000000000000000000000000000000000000000000000C0010FB000000000000000000000000000000200000000000000000000099
:807300000000200000000000000000000000000000000000000000000000000000000004000000000000000400000000100000040088FC100040000000000000000000100000000000000000000000000000020000000000000000000000000000000000000000000000000000000000000000000000000000000000000000000000B8F93A
:8073800000000000000000000000040000000000000000020000000000000002000000000000000000000000000000000020000000004000100000000000000000000010000000020000000000000098FC00000080069048024003000001A0013400001044020000080000200004000000000000000000000000000000002000040000D080
:80740000000000000800002000008040000000406008008101000400B0FC00000000064000000003000000800130000080000000000000000000000000000000000000000000000000000000000000000000000000000000000000000001000040000000010000000050FE00000000008400000000000000C0013C00004020160000000049
:80748000000000080000000000000000000000000000000040000C000000400000001800004000008001000000C00200400B00000010F0F90000000046C042000000000000A001300000C002080000602400809104000000000000000000000000000000002000000000C00400000000000020000000060100000001600204000030029861
:80750000FD0000000046821818000302008C0210000A0080000C0000002000009030200000000000000000000000000000008001300800C0000000006010008049000005000000800200820A0000000260FE0000008001F0001EC80300000F40800800009000100000780000E0013C00000000000000000000000000000000C00139000058
:807580001000000000700000C001000004000000000278000800003C1030FF0000000006C00018000301000C0000000000400014000060000080013000000000000000000000000000000000800130000000000000006000008001000004000000800260000A00003000D8FE0000000001E88218800300000C0000000000400008000060B4
:80760000120080493400000000000000000000000000000000A001300000C000000000600000800100000200000000216112440400300448FAA0010480009002004000680001A0013400001004024000000000A00104000000000000000004000000000000002200040000D000000000080001200000801010081B406008008121000000D5
:80768000A4FA800100000600400000006000008001300000808000000000000080010000000000000000000000000000000000000000000000000000000000000000000000010018400000000100000000D0FEE001000000C000000000000000C0013C00004020160000000000C0010020000000000000000000000000000000400008002E
